{
	"contracts/Struct.sol": {
		"Struct": {
			"abi": [
				{
					"inputs": [],
					"name": "GetPessoas",
					"outputs": [
						{
							"components": [
								{
									"internalType": "uint256",
									"name": "idade",
									"type": "uint256"
								},
								{
									"internalType": "string",
									"name": "nome",
									"type": "string"
								}
							],
							"internalType": "struct Struct.Pessoa[]",
							"name": "",
							"type": "tuple[]"
						}
					],
					"stateMutability": "view",
					"type": "function"
				},
				{
					"inputs": [
						{
							"internalType": "uint256",
							"name": "_idade",
							"type": "uint256"
						},
						{
							"internalType": "string",
							"name": "_nome",
							"type": "string"
						}
					],
					"name": "InserirPessoas",
					"outputs": [],
					"stateMutability": "nonpayable",
					"type": "function"
				}
			],
			"devdoc": {
				"kind": "dev",
				"methods": {},
				"version": 1
			},
			"evm": {
				"assembly": "    /* \"contracts/Struct.sol\":70:428  contract Struct {... */\n  mstore(0x40, 0x80)\n  callvalue\n  dup1\n  iszero\n  tag_1\n  jumpi\n  0x00\n  dup1\n  revert\ntag_1:\n  pop\n  dataSize(sub_0)\n  dup1\n  dataOffset(sub_0)\n  0x00\n  codecopy\n  0x00\n  return\nstop\n\nsub_0: assembly {\n        /* \"contracts/Struct.sol\":70:428  contract Struct {... */\n      mstore(0x40, 0x80)\n      callvalue\n      dup1\n      iszero\n      tag_1\n      jumpi\n      0x00\n      dup1\n      revert\n    tag_1:\n      pop\n      jumpi(tag_2, lt(calldatasize, 0x04))\n      shr(0xe0, calldataload(0x00))\n      dup1\n      0x40735fcc\n      eq\n      tag_3\n      jumpi\n      dup1\n      0x418c6684\n      eq\n      tag_4\n      jumpi\n    tag_2:\n      0x00\n      dup1\n      revert\n        /* \"contracts/Struct.sol\":196:320  function InserirPessoas(uint _idade, string memory _nome) public {... */\n    tag_3:\n      tag_5\n      0x04\n      dup1\n      calldatasize\n      sub\n      dup2\n      add\n      swap1\n      tag_6\n      swap2\n      swap1\n      tag_7\n      jump\t// in\n    tag_6:\n      tag_8\n      jump\t// in\n    tag_5:\n      stop\n        /* \"contracts/Struct.sol\":328:425  function GetPessoas() public view returns(Pessoa[] memory) {... */\n    tag_4:\n      tag_9\n      tag_10\n      jump\t// in\n    tag_9:\n      mload(0x40)\n      tag_11\n      swap2\n      swap1\n      tag_12\n      jump\t// in\n    tag_11:\n      mload(0x40)\n      dup1\n      swap2\n      sub\n      swap1\n      return\n        /* \"contracts/Struct.sol\":196:320  function InserirPessoas(uint _idade, string memory _nome) public {... */\n    tag_8:\n        /* \"contracts/Struct.sol\":272:284  listaPessoas */\n      0x00\n        /* \"contracts/Struct.sol\":290:311  Pessoa(_idade, _nome) */\n      mload(0x40)\n      dup1\n      0x40\n      add\n      0x40\n      mstore\n      dup1\n        /* \"contracts/Struct.sol\":297:303  _idade */\n      dup5\n        /* \"contracts/Struct.sol\":290:311  Pessoa(_idade, _nome) */\n      dup2\n      mstore\n      0x20\n      add\n        /* \"contracts/Struct.sol\":305:310  _nome */\n      dup4\n        /* \"contracts/Struct.sol\":290:311  Pessoa(_idade, _nome) */\n      dup2\n      mstore\n      pop\n        /* \"contracts/Struct.sol\":272:312  listaPessoas.push(Pessoa(_idade, _nome)) */\n      swap1\n      dup1\n      0x01\n      dup2\n      sload\n      add\n      dup1\n      dup3\n      sstore\n      dup1\n      swap2\n      pop\n      pop\n      0x01\n      swap1\n      sub\n      swap1\n      0x00\n      mstore\n      keccak256(0x00, 0x20)\n      swap1\n      0x02\n      mul\n      add\n      0x00\n      swap1\n      swap2\n      swap1\n      swap2\n      swap1\n      swap2\n      pop\n      0x00\n      dup3\n      add\n      mload\n      dup2\n      0x00\n      add\n      sstore\n      0x20\n      dup3\n      add\n      mload\n      dup2\n      0x01\n      add\n      swap1\n      dup1\n      mload\n      swap1\n      0x20\n      add\n      swap1\n      tag_15\n      swap3\n      swap2\n      swap1\n      tag_16\n      jump\t// in\n    tag_15:\n      pop\n      pop\n      pop\n        /* \"contracts/Struct.sol\":196:320  function InserirPessoas(uint _idade, string memory _nome) public {... */\n      pop\n      pop\n      jump\t// out\n        /* \"contracts/Struct.sol\":328:425  function GetPessoas() public view returns(Pessoa[] memory) {... */\n    tag_10:\n        /* \"contracts/Struct.sol\":370:385  Pessoa[] memory */\n      0x60\n        /* \"contracts/Struct.sol\":405:417  listaPessoas */\n      0x00\n        /* \"contracts/Struct.sol\":398:417  return listaPessoas */\n      dup1\n      sload\n      dup1\n      0x20\n      mul\n      0x20\n      add\n      mload(0x40)\n      swap1\n      dup2\n      add\n      0x40\n      mstore\n      dup1\n      swap3\n      swap2\n      swap1\n      dup2\n      dup2\n      mstore\n      0x20\n      add\n      0x00\n      swap1\n    tag_18:\n      dup3\n      dup3\n      lt\n      iszero\n      tag_19\n      jumpi\n      dup4\n      dup3\n      swap1\n      0x00\n      mstore\n      keccak256(0x00, 0x20)\n      swap1\n      0x02\n      mul\n      add\n      mload(0x40)\n      dup1\n      0x40\n      add\n      0x40\n      mstore\n      swap1\n      dup2\n      0x00\n      dup3\n      add\n      sload\n      dup2\n      mstore\n      0x20\n      add\n      0x01\n      dup3\n      add\n      dup1\n      sload\n      tag_21\n      swap1\n      tag_22\n      jump\t// in\n    tag_21:\n      dup1\n      0x1f\n      add\n      0x20\n      dup1\n      swap2\n      div\n      mul\n      0x20\n      add\n      mload(0x40)\n      swap1\n      dup2\n      add\n      0x40\n      mstore\n      dup1\n      swap3\n      swap2\n      swap1\n      dup2\n      dup2\n      mstore\n      0x20\n      add\n      dup3\n      dup1\n      sload\n      tag_23\n      swap1\n      tag_22\n      jump\t// in\n    tag_23:\n      dup1\n      iszero\n      tag_24\n      jumpi\n      dup1\n      0x1f\n      lt\n      tag_25\n      jumpi\n      0x0100\n      dup1\n      dup4\n      sload\n      div\n      mul\n      dup4\n      mstore\n      swap2\n      0x20\n      add\n      swap2\n      jump(tag_24)\n    tag_25:\n      dup3\n      add\n      swap2\n      swap1\n      0x00\n      mstore\n      keccak256(0x00, 0x20)\n      swap1\n    tag_26:\n      dup2\n      sload\n      dup2\n      mstore\n      swap1\n      0x01\n      add\n      swap1\n      0x20\n      add\n      dup1\n      dup4\n      gt\n      tag_26\n      jumpi\n      dup3\n      swap1\n      sub\n      0x1f\n      and\n      dup3\n      add\n      swap2\n    tag_24:\n      pop\n      pop\n      pop\n      pop\n      pop\n      dup2\n      mstore\n      pop\n      pop\n      dup2\n      mstore\n      0x20\n      add\n      swap1\n      0x01\n      add\n      swap1\n      jump(tag_18)\n    tag_19:\n      pop\n      pop\n      pop\n      pop\n      swap1\n      pop\n        /* \"contracts/Struct.sol\":328:425  function GetPessoas() public view returns(Pessoa[] memory) {... */\n      swap1\n      jump\t// out\n    tag_16:\n      dup3\n      dup1\n      sload\n      tag_27\n      swap1\n      tag_22\n      jump\t// in\n    tag_27:\n      swap1\n      0x00\n      mstore\n      keccak256(0x00, 0x20)\n      swap1\n      0x1f\n      add\n      0x20\n      swap1\n      div\n      dup2\n      add\n      swap3\n      dup3\n      tag_29\n      jumpi\n      0x00\n      dup6\n      sstore\n      jump(tag_28)\n    tag_29:\n      dup3\n      0x1f\n      lt\n      tag_30\n      jumpi\n      dup1\n      mload\n      not(0xff)\n      and\n      dup4\n      dup1\n      add\n      or\n      dup6\n      sstore\n      jump(tag_28)\n    tag_30:\n      dup3\n      dup1\n      add\n      0x01\n      add\n      dup6\n      sstore\n      dup3\n      iszero\n      tag_28\n      jumpi\n      swap2\n      dup3\n      add\n    tag_31:\n      dup3\n      dup2\n      gt\n      iszero\n      tag_32\n      jumpi\n      dup3\n      mload\n      dup3\n      sstore\n      swap2\n      0x20\n      add\n      swap2\n      swap1\n      0x01\n      add\n      swap1\n      jump(tag_31)\n    tag_32:\n    tag_28:\n      pop\n      swap1\n      pop\n      tag_33\n      swap2\n      swap1\n      tag_34\n      jump\t// in\n    tag_33:\n      pop\n      swap1\n      jump\t// out\n    tag_34:\n    tag_35:\n      dup1\n      dup3\n      gt\n      iszero\n      tag_36\n      jumpi\n      0x00\n      dup2\n      0x00\n      swap1\n      sstore\n      pop\n      0x01\n      add\n      jump(tag_35)\n    tag_36:\n      pop\n      swap1\n      jump\t// out\n        /* \"#utility.yul\":7:82   */\n    tag_37:\n        /* \"#utility.yul\":40:46   */\n      0x00\n        /* \"#utility.yul\":73:75   */\n      0x40\n        /* \"#utility.yul\":67:76   */\n      mload\n        /* \"#utility.yul\":57:76   */\n      swap1\n      pop\n        /* \"#utility.yul\":7:82   */\n      swap1\n      jump\t// out\n        /* \"#utility.yul\":88:205   */\n    tag_38:\n        /* \"#utility.yul\":197:198   */\n      0x00\n        /* \"#utility.yul\":194:195   */\n      dup1\n        /* \"#utility.yul\":187:199   */\n      revert\n        /* \"#utility.yul\":211:328   */\n    tag_39:\n        /* \"#utility.yul\":320:321   */\n      0x00\n        /* \"#utility.yul\":317:318   */\n      dup1\n        /* \"#utility.yul\":310:322   */\n      revert\n        /* \"#utility.yul\":334:411   */\n    tag_40:\n        /* \"#utility.yul\":371:378   */\n      0x00\n        /* \"#utility.yul\":400:405   */\n      dup2\n        /* \"#utility.yul\":389:405   */\n      swap1\n      pop\n        /* \"#utility.yul\":334:411   */\n      swap2\n      swap1\n      pop\n      jump\t// out\n        /* \"#utility.yul\":417:539   */\n    tag_41:\n        /* \"#utility.yul\":490:514   */\n      tag_72\n        /* \"#utility.yul\":508:513   */\n      dup2\n        /* \"#utility.yul\":490:514   */\n      tag_40\n      jump\t// in\n    tag_72:\n        /* \"#utility.yul\":483:488   */\n      dup2\n        /* \"#utility.yul\":480:515   */\n      eq\n        /* \"#utility.yul\":470:533   */\n      tag_73\n      jumpi\n        /* \"#utility.yul\":529:530   */\n      0x00\n        /* \"#utility.yul\":526:527   */\n      dup1\n        /* \"#utility.yul\":519:531   */\n      revert\n        /* \"#utility.yul\":470:533   */\n    tag_73:\n        /* \"#utility.yul\":417:539   */\n      pop\n      jump\t// out\n        /* \"#utility.yul\":545:684   */\n    tag_42:\n        /* \"#utility.yul\":591:596   */\n      0x00\n        /* \"#utility.yul\":629:635   */\n      dup2\n        /* \"#utility.yul\":616:636   */\n      calldataload\n        /* \"#utility.yul\":607:636   */\n      swap1\n      pop\n        /* \"#utility.yul\":645:678   */\n      tag_75\n        /* \"#utility.yul\":672:677   */\n      dup2\n        /* \"#utility.yul\":645:678   */\n      tag_41\n      jump\t// in\n    tag_75:\n        /* \"#utility.yul\":545:684   */\n      swap3\n      swap2\n      pop\n      pop\n      jump\t// out\n        /* \"#utility.yul\":690:807   */\n    tag_43:\n        /* \"#utility.yul\":799:800   */\n      0x00\n        /* \"#utility.yul\":796:797   */\n      dup1\n        /* \"#utility.yul\":789:801   */\n      revert\n        /* \"#utility.yul\":813:930   */\n    tag_44:\n        /* \"#utility.yul\":922:923   */\n      0x00\n        /* \"#utility.yul\":919:920   */\n      dup1\n        /* \"#utility.yul\":912:924   */\n      revert\n        /* \"#utility.yul\":936:1038   */\n    tag_45:\n        /* \"#utility.yul\":977:983   */\n      0x00\n        /* \"#utility.yul\":1028:1030   */\n      0x1f\n        /* \"#utility.yul\":1024:1031   */\n      not\n        /* \"#utility.yul\":1019:1021   */\n      0x1f\n        /* \"#utility.yul\":1012:1017   */\n      dup4\n        /* \"#utility.yul\":1008:1022   */\n      add\n        /* \"#utility.yul\":1004:1032   */\n      and\n        /* \"#utility.yul\":994:1032   */\n      swap1\n      pop\n        /* \"#utility.yul\":936:1038   */\n      swap2\n      swap1\n      pop\n      jump\t// out\n        /* \"#utility.yul\":1044:1224   */\n    tag_46:\n        /* \"#utility.yul\":1092:1169   */\n      0x4e487b7100000000000000000000000000000000000000000000000000000000\n        /* \"#utility.yul\":1089:1090   */\n      0x00\n        /* \"#utility.yul\":1082:1170   */\n      mstore\n        /* \"#utility.yul\":1189:1193   */\n      0x41\n        /* \"#utility.yul\":1186:1187   */\n      0x04\n        /* \"#utility.yul\":1179:1194   */\n      mstore\n        /* \"#utility.yul\":1213:1217   */\n      0x24\n        /* \"#utility.yul\":1210:1211   */\n      0x00\n        /* \"#utility.yul\":1203:1218   */\n      revert\n        /* \"#utility.yul\":1230:1511   */\n    tag_47:\n        /* \"#utility.yul\":1313:1340   */\n      tag_81\n        /* \"#utility.yul\":1335:1339   */\n      dup3\n        /* \"#utility.yul\":1313:1340   */\n      tag_45\n      jump\t// in\n    tag_81:\n        /* \"#utility.yul\":1305:1311   */\n      dup2\n        /* \"#utility.yul\":1301:1341   */\n      add\n        /* \"#utility.yul\":1443:1449   */\n      dup2\n        /* \"#utility.yul\":1431:1441   */\n      dup2\n        /* \"#utility.yul\":1428:1450   */\n      lt\n        /* \"#utility.yul\":1407:1425   */\n      0xffffffffffffffff\n        /* \"#utility.yul\":1395:1405   */\n      dup3\n        /* \"#utility.yul\":1392:1426   */\n      gt\n        /* \"#utility.yul\":1389:1451   */\n      or\n        /* \"#utility.yul\":1386:1474   */\n      iszero\n      tag_82\n      jumpi\n        /* \"#utility.yul\":1454:1472   */\n      tag_83\n      tag_46\n      jump\t// in\n    tag_83:\n        /* \"#utility.yul\":1386:1474   */\n    tag_82:\n        /* \"#utility.yul\":1494:1504   */\n      dup1\n        /* \"#utility.yul\":1490:1492   */\n      0x40\n        /* \"#utility.yul\":1483:1505   */\n      mstore\n        /* \"#utility.yul\":1273:1511   */\n      pop\n        /* \"#utility.yul\":1230:1511   */\n      pop\n      pop\n      jump\t// out\n        /* \"#utility.yul\":1517:1646   */\n    tag_48:\n        /* \"#utility.yul\":1551:1557   */\n      0x00\n        /* \"#utility.yul\":1578:1598   */\n      tag_85\n      tag_37\n      jump\t// in\n    tag_85:\n        /* \"#utility.yul\":1568:1598   */\n      swap1\n      pop\n        /* \"#utility.yul\":1607:1640   */\n      tag_86\n        /* \"#utility.yul\":1635:1639   */\n      dup3\n        /* \"#utility.yul\":1627:1633   */\n      dup3\n        /* \"#utility.yul\":1607:1640   */\n      tag_47\n      jump\t// in\n    tag_86:\n        /* \"#utility.yul\":1517:1646   */\n      swap2\n      swap1\n      pop\n      jump\t// out\n        /* \"#utility.yul\":1652:1960   */\n    tag_49:\n        /* \"#utility.yul\":1714:1718   */\n      0x00\n        /* \"#utility.yul\":1804:1822   */\n      0xffffffffffffffff\n        /* \"#utility.yul\":1796:1802   */\n      dup3\n        /* \"#utility.yul\":1793:1823   */\n      gt\n        /* \"#utility.yul\":1790:1846   */\n      iszero\n      tag_88\n      jumpi\n        /* \"#utility.yul\":1826:1844   */\n      tag_89\n      tag_46\n      jump\t// in\n    tag_89:\n        /* \"#utility.yul\":1790:1846   */\n    tag_88:\n        /* \"#utility.yul\":1864:1893   */\n      tag_90\n        /* \"#utility.yul\":1886:1892   */\n      dup3\n        /* \"#utility.yul\":1864:1893   */\n      tag_45\n      jump\t// in\n    tag_90:\n        /* \"#utility.yul\":1856:1893   */\n      swap1\n      pop\n        /* \"#utility.yul\":1948:1952   */\n      0x20\n        /* \"#utility.yul\":1942:1946   */\n      dup2\n        /* \"#utility.yul\":1938:1953   */\n      add\n        /* \"#utility.yul\":1930:1953   */\n      swap1\n      pop\n        /* \"#utility.yul\":1652:1960   */\n      swap2\n      swap1\n      pop\n      jump\t// out\n        /* \"#utility.yul\":1966:2120   */\n    tag_50:\n        /* \"#utility.yul\":2050:2056   */\n      dup3\n        /* \"#utility.yul\":2045:2048   */\n      dup2\n        /* \"#utility.yul\":2040:2043   */\n      dup4\n        /* \"#utility.yul\":2027:2057   */\n      calldatacopy\n        /* \"#utility.yul\":2112:2113   */\n      0x00\n        /* \"#utility.yul\":2103:2109   */\n      dup4\n        /* \"#utility.yul\":2098:2101   */\n      dup4\n        /* \"#utility.yul\":2094:2110   */\n      add\n        /* \"#utility.yul\":2087:2114   */\n      mstore\n        /* \"#utility.yul\":1966:2120   */\n      pop\n      pop\n      pop\n      jump\t// out\n        /* \"#utility.yul\":2126:2538   */\n    tag_51:\n        /* \"#utility.yul\":2204:2209   */\n      0x00\n        /* \"#utility.yul\":2229:2295   */\n      tag_93\n        /* \"#utility.yul\":2245:2294   */\n      tag_94\n        /* \"#utility.yul\":2287:2293   */\n      dup5\n        /* \"#utility.yul\":2245:2294   */\n      tag_49\n      jump\t// in\n    tag_94:\n        /* \"#utility.yul\":2229:2295   */\n      tag_48\n      jump\t// in\n    tag_93:\n        /* \"#utility.yul\":2220:2295   */\n      swap1\n      pop\n        /* \"#utility.yul\":2318:2324   */\n      dup3\n        /* \"#utility.yul\":2311:2316   */\n      dup2\n        /* \"#utility.yul\":2304:2325   */\n      mstore\n        /* \"#utility.yul\":2356:2360   */\n      0x20\n        /* \"#utility.yul\":2349:2354   */\n      dup2\n        /* \"#utility.yul\":2345:2361   */\n      add\n        /* \"#utility.yul\":2394:2397   */\n      dup5\n        /* \"#utility.yul\":2385:2391   */\n      dup5\n        /* \"#utility.yul\":2380:2383   */\n      dup5\n        /* \"#utility.yul\":2376:2392   */\n      add\n        /* \"#utility.yul\":2373:2398   */\n      gt\n        /* \"#utility.yul\":2370:2482   */\n      iszero\n      tag_95\n      jumpi\n        /* \"#utility.yul\":2401:2480   */\n      tag_96\n      tag_44\n      jump\t// in\n    tag_96:\n        /* \"#utility.yul\":2370:2482   */\n    tag_95:\n        /* \"#utility.yul\":2491:2532   */\n      tag_97\n        /* \"#utility.yul\":2525:2531   */\n      dup5\n        /* \"#utility.yul\":2520:2523   */\n      dup3\n        /* \"#utility.yul\":2515:2518   */\n      dup6\n        /* \"#utility.yul\":2491:2532   */\n      tag_50\n      jump\t// in\n    tag_97:\n        /* \"#utility.yul\":2210:2538   */\n      pop\n        /* \"#utility.yul\":2126:2538   */\n      swap4\n      swap3\n      pop\n      pop\n      pop\n      jump\t// out\n        /* \"#utility.yul\":2558:2898   */\n    tag_52:\n        /* \"#utility.yul\":2614:2619   */\n      0x00\n        /* \"#utility.yul\":2663:2666   */\n      dup3\n        /* \"#utility.yul\":2656:2660   */\n      0x1f\n        /* \"#utility.yul\":2648:2654   */\n      dup4\n        /* \"#utility.yul\":2644:2661   */\n      add\n        /* \"#utility.yul\":2640:2667   */\n      slt\n        /* \"#utility.yul\":2630:2752   */\n      tag_99\n      jumpi\n        /* \"#utility.yul\":2671:2750   */\n      tag_100\n      tag_43\n      jump\t// in\n    tag_100:\n        /* \"#utility.yul\":2630:2752   */\n    tag_99:\n        /* \"#utility.yul\":2788:2794   */\n      dup2\n        /* \"#utility.yul\":2775:2795   */\n      calldataload\n        /* \"#utility.yul\":2813:2892   */\n      tag_101\n        /* \"#utility.yul\":2888:2891   */\n      dup5\n        /* \"#utility.yul\":2880:2886   */\n      dup3\n        /* \"#utility.yul\":2873:2877   */\n      0x20\n        /* \"#utility.yul\":2865:2871   */\n      dup7\n        /* \"#utility.yul\":2861:2878   */\n      add\n        /* \"#utility.yul\":2813:2892   */\n      tag_51\n      jump\t// in\n    tag_101:\n        /* \"#utility.yul\":2804:2892   */\n      swap2\n      pop\n        /* \"#utility.yul\":2620:2898   */\n      pop\n        /* \"#utility.yul\":2558:2898   */\n      swap3\n      swap2\n      pop\n      pop\n      jump\t// out\n        /* \"#utility.yul\":2904:3558   */\n    tag_7:\n        /* \"#utility.yul\":2982:2988   */\n      0x00\n        /* \"#utility.yul\":2990:2996   */\n      dup1\n        /* \"#utility.yul\":3039:3041   */\n      0x40\n        /* \"#utility.yul\":3027:3036   */\n      dup4\n        /* \"#utility.yul\":3018:3025   */\n      dup6\n        /* \"#utility.yul\":3014:3037   */\n      sub\n        /* \"#utility.yul\":3010:3042   */\n      slt\n        /* \"#utility.yul\":3007:3126   */\n      iszero\n      tag_103\n      jumpi\n        /* \"#utility.yul\":3045:3124   */\n      tag_104\n      tag_38\n      jump\t// in\n    tag_104:\n        /* \"#utility.yul\":3007:3126   */\n    tag_103:\n        /* \"#utility.yul\":3165:3166   */\n      0x00\n        /* \"#utility.yul\":3190:3243   */\n      tag_105\n        /* \"#utility.yul\":3235:3242   */\n      dup6\n        /* \"#utility.yul\":3226:3232   */\n      dup3\n        /* \"#utility.yul\":3215:3224   */\n      dup7\n        /* \"#utility.yul\":3211:3233   */\n      add\n        /* \"#utility.yul\":3190:3243   */\n      tag_42\n      jump\t// in\n    tag_105:\n        /* \"#utility.yul\":3180:3243   */\n      swap3\n      pop\n        /* \"#utility.yul\":3136:3253   */\n      pop\n        /* \"#utility.yul\":3320:3322   */\n      0x20\n        /* \"#utility.yul\":3309:3318   */\n      dup4\n        /* \"#utility.yul\":3305:3323   */\n      add\n        /* \"#utility.yul\":3292:3324   */\n      calldataload\n        /* \"#utility.yul\":3351:3369   */\n      0xffffffffffffffff\n        /* \"#utility.yul\":3343:3349   */\n      dup2\n        /* \"#utility.yul\":3340:3370   */\n      gt\n        /* \"#utility.yul\":3337:3454   */\n      iszero\n      tag_106\n      jumpi\n        /* \"#utility.yul\":3373:3452   */\n      tag_107\n      tag_39\n      jump\t// in\n    tag_107:\n        /* \"#utility.yul\":3337:3454   */\n    tag_106:\n        /* \"#utility.yul\":3478:3541   */\n      tag_108\n        /* \"#utility.yul\":3533:3540   */\n      dup6\n        /* \"#utility.yul\":3524:3530   */\n      dup3\n        /* \"#utility.yul\":3513:3522   */\n      dup7\n        /* \"#utility.yul\":3509:3531   */\n      add\n        /* \"#utility.yul\":3478:3541   */\n      tag_52\n      jump\t// in\n    tag_108:\n        /* \"#utility.yul\":3468:3541   */\n      swap2\n      pop\n        /* \"#utility.yul\":3263:3551   */\n      pop\n        /* \"#utility.yul\":2904:3558   */\n      swap3\n      pop\n      swap3\n      swap1\n      pop\n      jump\t// out\n        /* \"#utility.yul\":3564:3699   */\n    tag_53:\n        /* \"#utility.yul\":3652:3658   */\n      0x00\n        /* \"#utility.yul\":3686:3691   */\n      dup2\n        /* \"#utility.yul\":3680:3692   */\n      mload\n        /* \"#utility.yul\":3670:3692   */\n      swap1\n      pop\n        /* \"#utility.yul\":3564:3699   */\n      swap2\n      swap1\n      pop\n      jump\t// out\n        /* \"#utility.yul\":3705:3910   */\n    tag_54:\n        /* \"#utility.yul\":3825:3836   */\n      0x00\n        /* \"#utility.yul\":3859:3865   */\n      dup3\n        /* \"#utility.yul\":3854:3857   */\n      dup3\n        /* \"#utility.yul\":3847:3866   */\n      mstore\n        /* \"#utility.yul\":3899:3903   */\n      0x20\n        /* \"#utility.yul\":3894:3897   */\n      dup3\n        /* \"#utility.yul\":3890:3904   */\n      add\n        /* \"#utility.yul\":3875:3904   */\n      swap1\n      pop\n        /* \"#utility.yul\":3705:3910   */\n      swap3\n      swap2\n      pop\n      pop\n      jump\t// out\n        /* \"#utility.yul\":3916:4069   */\n    tag_55:\n        /* \"#utility.yul\":4004:4008   */\n      0x00\n        /* \"#utility.yul\":4027:4030   */\n      dup2\n        /* \"#utility.yul\":4019:4030   */\n      swap1\n      pop\n        /* \"#utility.yul\":4057:4061   */\n      0x20\n        /* \"#utility.yul\":4052:4055   */\n      dup3\n        /* \"#utility.yul\":4048:4062   */\n      add\n        /* \"#utility.yul\":4040:4062   */\n      swap1\n      pop\n        /* \"#utility.yul\":3916:4069   */\n      swap2\n      swap1\n      pop\n      jump\t// out\n        /* \"#utility.yul\":4075:4183   */\n    tag_56:\n        /* \"#utility.yul\":4152:4176   */\n      tag_113\n        /* \"#utility.yul\":4170:4175   */\n      dup2\n        /* \"#utility.yul\":4152:4176   */\n      tag_40\n      jump\t// in\n    tag_113:\n        /* \"#utility.yul\":4147:4150   */\n      dup3\n        /* \"#utility.yul\":4140:4177   */\n      mstore\n        /* \"#utility.yul\":4075:4183   */\n      pop\n      pop\n      jump\t// out\n        /* \"#utility.yul\":4189:4288   */\n    tag_57:\n        /* \"#utility.yul\":4241:4247   */\n      0x00\n        /* \"#utility.yul\":4275:4280   */\n      dup2\n        /* \"#utility.yul\":4269:4281   */\n      mload\n        /* \"#utility.yul\":4259:4281   */\n      swap1\n      pop\n        /* \"#utility.yul\":4189:4288   */\n      swap2\n      swap1\n      pop\n      jump\t// out\n        /* \"#utility.yul\":4294:4453   */\n    tag_58:\n        /* \"#utility.yul\":4368:4379   */\n      0x00\n        /* \"#utility.yul\":4402:4408   */\n      dup3\n        /* \"#utility.yul\":4397:4400   */\n      dup3\n        /* \"#utility.yul\":4390:4409   */\n      mstore\n        /* \"#utility.yul\":4442:4446   */\n      0x20\n        /* \"#utility.yul\":4437:4440   */\n      dup3\n        /* \"#utility.yul\":4433:4447   */\n      add\n        /* \"#utility.yul\":4418:4447   */\n      swap1\n      pop\n        /* \"#utility.yul\":4294:4453   */\n      swap3\n      swap2\n      pop\n      pop\n      jump\t// out\n        /* \"#utility.yul\":4459:4766   */\n    tag_59:\n        /* \"#utility.yul\":4527:4528   */\n      0x00\n        /* \"#utility.yul\":4537:4650   */\n    tag_117:\n        /* \"#utility.yul\":4551:4557   */\n      dup4\n        /* \"#utility.yul\":4548:4549   */\n      dup2\n        /* \"#utility.yul\":4545:4558   */\n      lt\n        /* \"#utility.yul\":4537:4650   */\n      iszero\n      tag_119\n      jumpi\n        /* \"#utility.yul\":4636:4637   */\n      dup1\n        /* \"#utility.yul\":4631:4634   */\n      dup3\n        /* \"#utility.yul\":4627:4638   */\n      add\n        /* \"#utility.yul\":4621:4639   */\n      mload\n        /* \"#utility.yul\":4617:4618   */\n      dup2\n        /* \"#utility.yul\":4612:4615   */\n      dup5\n        /* \"#utility.yul\":4608:4619   */\n      add\n        /* \"#utility.yul\":4601:4640   */\n      mstore\n        /* \"#utility.yul\":4573:4575   */\n      0x20\n        /* \"#utility.yul\":4570:4571   */\n      dup2\n        /* \"#utility.yul\":4566:4576   */\n      add\n        /* \"#utility.yul\":4561:4576   */\n      swap1\n      pop\n        /* \"#utility.yul\":4537:4650   */\n      jump(tag_117)\n    tag_119:\n        /* \"#utility.yul\":4668:4674   */\n      dup4\n        /* \"#utility.yul\":4665:4666   */\n      dup2\n        /* \"#utility.yul\":4662:4675   */\n      gt\n        /* \"#utility.yul\":4659:4760   */\n      iszero\n      tag_120\n      jumpi\n        /* \"#utility.yul\":4748:4749   */\n      0x00\n        /* \"#utility.yul\":4739:4745   */\n      dup5\n        /* \"#utility.yul\":4734:4737   */\n      dup5\n        /* \"#utility.yul\":4730:4746   */\n      add\n        /* \"#utility.yul\":4723:4750   */\n      mstore\n        /* \"#utility.yul\":4659:4760   */\n    tag_120:\n        /* \"#utility.yul\":4508:4766   */\n      pop\n        /* \"#utility.yul\":4459:4766   */\n      pop\n      pop\n      pop\n      jump\t// out\n        /* \"#utility.yul\":4772:5116   */\n    tag_60:\n        /* \"#utility.yul\":4850:4853   */\n      0x00\n        /* \"#utility.yul\":4878:4917   */\n      tag_122\n        /* \"#utility.yul\":4911:4916   */\n      dup3\n        /* \"#utility.yul\":4878:4917   */\n      tag_57\n      jump\t// in\n    tag_122:\n        /* \"#utility.yul\":4933:4994   */\n      tag_123\n        /* \"#utility.yul\":4987:4993   */\n      dup2\n        /* \"#utility.yul\":4982:4985   */\n      dup6\n        /* \"#utility.yul\":4933:4994   */\n      tag_58\n      jump\t// in\n    tag_123:\n        /* \"#utility.yul\":4926:4994   */\n      swap4\n      pop\n        /* \"#utility.yul\":5003:5055   */\n      tag_124\n        /* \"#utility.yul\":5048:5054   */\n      dup2\n        /* \"#utility.yul\":5043:5046   */\n      dup6\n        /* \"#utility.yul\":5036:5040   */\n      0x20\n        /* \"#utility.yul\":5029:5034   */\n      dup7\n        /* \"#utility.yul\":5025:5041   */\n      add\n        /* \"#utility.yul\":5003:5055   */\n      tag_59\n      jump\t// in\n    tag_124:\n        /* \"#utility.yul\":5080:5109   */\n      tag_125\n        /* \"#utility.yul\":5102:5108   */\n      dup2\n        /* \"#utility.yul\":5080:5109   */\n      tag_45\n      jump\t// in\n    tag_125:\n        /* \"#utility.yul\":5075:5078   */\n      dup5\n        /* \"#utility.yul\":5071:5110   */\n      add\n        /* \"#utility.yul\":5064:5110   */\n      swap2\n      pop\n        /* \"#utility.yul\":4854:5116   */\n      pop\n        /* \"#utility.yul\":4772:5116   */\n      swap3\n      swap2\n      pop\n      pop\n      jump\t// out\n        /* \"#utility.yul\":5174:5763   */\n    tag_61:\n        /* \"#utility.yul\":5275:5278   */\n      0x00\n        /* \"#utility.yul\":5311:5315   */\n      0x40\n        /* \"#utility.yul\":5306:5309   */\n      dup4\n        /* \"#utility.yul\":5302:5316   */\n      add\n        /* \"#utility.yul\":5399:5403   */\n      0x00\n        /* \"#utility.yul\":5392:5397   */\n      dup4\n        /* \"#utility.yul\":5388:5404   */\n      add\n        /* \"#utility.yul\":5382:5405   */\n      mload\n        /* \"#utility.yul\":5418:5481   */\n      tag_127\n        /* \"#utility.yul\":5475:5479   */\n      0x00\n        /* \"#utility.yul\":5470:5473   */\n      dup7\n        /* \"#utility.yul\":5466:5480   */\n      add\n        /* \"#utility.yul\":5452:5464   */\n      dup3\n        /* \"#utility.yul\":5418:5481   */\n      tag_56\n      jump\t// in\n    tag_127:\n        /* \"#utility.yul\":5326:5491   */\n      pop\n        /* \"#utility.yul\":5573:5577   */\n      0x20\n        /* \"#utility.yul\":5566:5571   */\n      dup4\n        /* \"#utility.yul\":5562:5578   */\n      add\n        /* \"#utility.yul\":5556:5579   */\n      mload\n        /* \"#utility.yul\":5626:5629   */\n      dup5\n        /* \"#utility.yul\":5620:5624   */\n      dup3\n        /* \"#utility.yul\":5616:5630   */\n      sub\n        /* \"#utility.yul\":5609:5613   */\n      0x20\n        /* \"#utility.yul\":5604:5607   */\n      dup7\n        /* \"#utility.yul\":5600:5614   */\n      add\n        /* \"#utility.yul\":5593:5631   */\n      mstore\n        /* \"#utility.yul\":5652:5725   */\n      tag_128\n        /* \"#utility.yul\":5720:5724   */\n      dup3\n        /* \"#utility.yul\":5706:5718   */\n      dup3\n        /* \"#utility.yul\":5652:5725   */\n      tag_60\n      jump\t// in\n    tag_128:\n        /* \"#utility.yul\":5644:5725   */\n      swap2\n      pop\n        /* \"#utility.yul\":5501:5736   */\n      pop\n        /* \"#utility.yul\":5753:5757   */\n      dup1\n        /* \"#utility.yul\":5746:5757   */\n      swap2\n      pop\n        /* \"#utility.yul\":5280:5763   */\n      pop\n        /* \"#utility.yul\":5174:5763   */\n      swap3\n      swap2\n      pop\n      pop\n      jump\t// out\n        /* \"#utility.yul\":5769:6009   */\n    tag_62:\n        /* \"#utility.yul\":5880:5890   */\n      0x00\n        /* \"#utility.yul\":5915:6003   */\n      tag_130\n        /* \"#utility.yul\":5999:6002   */\n      dup4\n        /* \"#utility.yul\":5991:5997   */\n      dup4\n        /* \"#utility.yul\":5915:6003   */\n      tag_61\n      jump\t// in\n    tag_130:\n        /* \"#utility.yul\":5901:6003   */\n      swap1\n      pop\n        /* \"#utility.yul\":5769:6009   */\n      swap3\n      swap2\n      pop\n      pop\n      jump\t// out\n        /* \"#utility.yul\":6015:6149   */\n    tag_63:\n        /* \"#utility.yul\":6106:6110   */\n      0x00\n        /* \"#utility.yul\":6138:6142   */\n      0x20\n        /* \"#utility.yul\":6133:6136   */\n      dup3\n        /* \"#utility.yul\":6129:6143   */\n      add\n        /* \"#utility.yul\":6121:6143   */\n      swap1\n      pop\n        /* \"#utility.yul\":6015:6149   */\n      swap2\n      swap1\n      pop\n      jump\t// out\n        /* \"#utility.yul\":6211:7290   */\n    tag_64:\n        /* \"#utility.yul\":6372:6375   */\n      0x00\n        /* \"#utility.yul\":6401:6476   */\n      tag_133\n        /* \"#utility.yul\":6470:6475   */\n      dup3\n        /* \"#utility.yul\":6401:6476   */\n      tag_53\n      jump\t// in\n    tag_133:\n        /* \"#utility.yul\":6492:6599   */\n      tag_134\n        /* \"#utility.yul\":6592:6598   */\n      dup2\n        /* \"#utility.yul\":6587:6590   */\n      dup6\n        /* \"#utility.yul\":6492:6599   */\n      tag_54\n      jump\t// in\n    tag_134:\n        /* \"#utility.yul\":6485:6599   */\n      swap4\n      pop\n        /* \"#utility.yul\":6625:6628   */\n      dup4\n        /* \"#utility.yul\":6670:6674   */\n      0x20\n        /* \"#utility.yul\":6662:6668   */\n      dup3\n        /* \"#utility.yul\":6658:6675   */\n      mul\n        /* \"#utility.yul\":6653:6656   */\n      dup6\n        /* \"#utility.yul\":6649:6676   */\n      add\n        /* \"#utility.yul\":6700:6777   */\n      tag_135\n        /* \"#utility.yul\":6771:6776   */\n      dup6\n        /* \"#utility.yul\":6700:6777   */\n      tag_55\n      jump\t// in\n    tag_135:\n        /* \"#utility.yul\":6800:6807   */\n      dup1\n        /* \"#utility.yul\":6831:6832   */\n      0x00\n        /* \"#utility.yul\":6816:7245   */\n    tag_136:\n        /* \"#utility.yul\":6841:6847   */\n      dup6\n        /* \"#utility.yul\":6838:6839   */\n      dup2\n        /* \"#utility.yul\":6835:6848   */\n      lt\n        /* \"#utility.yul\":6816:7245   */\n      iszero\n      tag_138\n      jumpi\n        /* \"#utility.yul\":6912:6921   */\n      dup5\n        /* \"#utility.yul\":6906:6910   */\n      dup5\n        /* \"#utility.yul\":6902:6922   */\n      sub\n        /* \"#utility.yul\":6897:6900   */\n      dup10\n        /* \"#utility.yul\":6890:6923   */\n      mstore\n        /* \"#utility.yul\":6963:6969   */\n      dup2\n        /* \"#utility.yul\":6957:6970   */\n      mload\n        /* \"#utility.yul\":6991:7097   */\n      tag_139\n        /* \"#utility.yul\":7092:7096   */\n      dup6\n        /* \"#utility.yul\":7077:7090   */\n      dup3\n        /* \"#utility.yul\":6991:7097   */\n      tag_62\n      jump\t// in\n    tag_139:\n        /* \"#utility.yul\":6983:7097   */\n      swap5\n      pop\n        /* \"#utility.yul\":7120:7201   */\n      tag_140\n        /* \"#utility.yul\":7194:7200   */\n      dup4\n        /* \"#utility.yul\":7120:7201   */\n      tag_63\n      jump\t// in\n    tag_140:\n        /* \"#utility.yul\":7110:7201   */\n      swap3\n      pop\n        /* \"#utility.yul\":7230:7234   */\n      0x20\n        /* \"#utility.yul\":7225:7228   */\n      dup11\n        /* \"#utility.yul\":7221:7235   */\n      add\n        /* \"#utility.yul\":7214:7235   */\n      swap10\n      pop\n        /* \"#utility.yul\":6876:7245   */\n      pop\n        /* \"#utility.yul\":6863:6864   */\n      0x01\n        /* \"#utility.yul\":6860:6861   */\n      dup2\n        /* \"#utility.yul\":6856:6865   */\n      add\n        /* \"#utility.yul\":6851:6865   */\n      swap1\n      pop\n        /* \"#utility.yul\":6816:7245   */\n      jump(tag_136)\n    tag_138:\n        /* \"#utility.yul\":6820:6834   */\n      pop\n        /* \"#utility.yul\":7261:7265   */\n      dup3\n        /* \"#utility.yul\":7254:7265   */\n      swap8\n      pop\n        /* \"#utility.yul\":7281:7284   */\n      dup8\n        /* \"#utility.yul\":7274:7284   */\n      swap6\n      pop\n        /* \"#utility.yul\":6377:7290   */\n      pop\n      pop\n      pop\n      pop\n      pop\n        /* \"#utility.yul\":6211:7290   */\n      swap3\n      swap2\n      pop\n      pop\n      jump\t// out\n        /* \"#utility.yul\":7296:7753   */\n    tag_12:\n        /* \"#utility.yul\":7481:7485   */\n      0x00\n        /* \"#utility.yul\":7519:7521   */\n      0x20\n        /* \"#utility.yul\":7508:7517   */\n      dup3\n        /* \"#utility.yul\":7504:7522   */\n      add\n        /* \"#utility.yul\":7496:7522   */\n      swap1\n      pop\n        /* \"#utility.yul\":7568:7577   */\n      dup2\n        /* \"#utility.yul\":7562:7566   */\n      dup2\n        /* \"#utility.yul\":7558:7578   */\n      sub\n        /* \"#utility.yul\":7554:7555   */\n      0x00\n        /* \"#utility.yul\":7543:7552   */\n      dup4\n        /* \"#utility.yul\":7539:7556   */\n      add\n        /* \"#utility.yul\":7532:7579   */\n      mstore\n        /* \"#utility.yul\":7596:7746   */\n      tag_142\n        /* \"#utility.yul\":7741:7745   */\n      dup2\n        /* \"#utility.yul\":7732:7738   */\n      dup5\n        /* \"#utility.yul\":7596:7746   */\n      tag_64\n      jump\t// in\n    tag_142:\n        /* \"#utility.yul\":7588:7746   */\n      swap1\n      pop\n        /* \"#utility.yul\":7296:7753   */\n      swap3\n      swap2\n      pop\n      pop\n      jump\t// out\n        /* \"#utility.yul\":7759:7939   */\n    tag_65:\n        /* \"#utility.yul\":7807:7884   */\n      0x4e487b7100000000000000000000000000000000000000000000000000000000\n        /* \"#utility.yul\":7804:7805   */\n      0x00\n        /* \"#utility.yul\":7797:7885   */\n      mstore\n        /* \"#utility.yul\":7904:7908   */\n      0x22\n        /* \"#utility.yul\":7901:7902   */\n      0x04\n        /* \"#utility.yul\":7894:7909   */\n      mstore\n        /* \"#utility.yul\":7928:7932   */\n      0x24\n        /* \"#utility.yul\":7925:7926   */\n      0x00\n        /* \"#utility.yul\":7918:7933   */\n      revert\n        /* \"#utility.yul\":7945:8265   */\n    tag_22:\n        /* \"#utility.yul\":7989:7995   */\n      0x00\n        /* \"#utility.yul\":8026:8027   */\n      0x02\n        /* \"#utility.yul\":8020:8024   */\n      dup3\n        /* \"#utility.yul\":8016:8028   */\n      div\n        /* \"#utility.yul\":8006:8028   */\n      swap1\n      pop\n        /* \"#utility.yul\":8073:8074   */\n      0x01\n        /* \"#utility.yul\":8067:8071   */\n      dup3\n        /* \"#utility.yul\":8063:8075   */\n      and\n        /* \"#utility.yul\":8094:8112   */\n      dup1\n        /* \"#utility.yul\":8084:8165   */\n      tag_145\n      jumpi\n        /* \"#utility.yul\":8150:8154   */\n      0x7f\n        /* \"#utility.yul\":8142:8148   */\n      dup3\n        /* \"#utility.yul\":8138:8155   */\n      and\n        /* \"#utility.yul\":8128:8155   */\n      swap2\n      pop\n        /* \"#utility.yul\":8084:8165   */\n    tag_145:\n        /* \"#utility.yul\":8212:8214   */\n      0x20\n        /* \"#utility.yul\":8204:8210   */\n      dup3\n        /* \"#utility.yul\":8201:8215   */\n      lt\n        /* \"#utility.yul\":8181:8199   */\n      dup2\n        /* \"#utility.yul\":8178:8216   */\n      eq\n        /* \"#utility.yul\":8175:8259   */\n      iszero\n      tag_146\n      jumpi\n        /* \"#utility.yul\":8231:8249   */\n      tag_147\n      tag_65\n      jump\t// in\n    tag_147:\n        /* \"#utility.yul\":8175:8259   */\n    tag_146:\n        /* \"#utility.yul\":7996:8265   */\n      pop\n        /* \"#utility.yul\":7945:8265   */\n      swap2\n      swap1\n      pop\n      jump\t// out\n\n    auxdata: 0xa264697066735822122058a84c4b104605017a639a73f372260b3e78b85c8c42de59bbcf65dd62dc24e464736f6c634300080a0033\n}\n",
				"bytecode": {
					"linkReferences": {},
					"object": "608060405234801561001057600080fd5b506106bb806100206000396000f3fe608060405234801561001057600080fd5b50600436106100365760003560e01c806340735fcc1461003b578063418c668414610057575b600080fd5b61005560048036038101906100509190610410565b610075565b005b61005f6100e2565b60405161006c9190610602565b60405180910390f35b600060405180604001604052808481526020018381525090806001815401808255809150506001900390600052602060002090600202016000909190919091506000820151816000015560208201518160010190805190602001906100db9291906101dd565b5050505050565b60606000805480602002602001604051908101604052809291908181526020016000905b828210156101d457838290600052602060002090600202016040518060400160405290816000820154815260200160018201805461014390610653565b80601f016020809104026020016040519081016040528092919081815260200182805461016f90610653565b80156101bc5780601f10610191576101008083540402835291602001916101bc565b820191906000526020600020905b81548152906001019060200180831161019f57829003601f168201915b50505050508152505081526020019060010190610106565b50505050905090565b8280546101e990610653565b90600052602060002090601f01602090048101928261020b5760008555610252565b82601f1061022457805160ff1916838001178555610252565b82800160010185558215610252579182015b82811115610251578251825591602001919060010190610236565b5b50905061025f9190610263565b5090565b5b8082111561027c576000816000905550600101610264565b5090565b6000604051905090565b600080fd5b600080fd5b6000819050919050565b6102a781610294565b81146102b257600080fd5b50565b6000813590506102c48161029e565b92915050565b600080fd5b600080fd5b6000601f19601f8301169050919050565b7f4e487b7100000000000000000000000000000000000000000000000000000000600052604160045260246000fd5b61031d826102d4565b810181811067ffffffffffffffff8211171561033c5761033b6102e5565b5b80604052505050565b600061034f610280565b905061035b8282610314565b919050565b600067ffffffffffffffff82111561037b5761037a6102e5565b5b610384826102d4565b9050602081019050919050565b82818337600083830152505050565b60006103b36103ae84610360565b610345565b9050828152602081018484840111156103cf576103ce6102cf565b5b6103da848285610391565b509392505050565b600082601f8301126103f7576103f66102ca565b5b81356104078482602086016103a0565b91505092915050565b600080604083850312156104275761042661028a565b5b6000610435858286016102b5565b925050602083013567ffffffffffffffff8111156104565761045561028f565b5b610462858286016103e2565b9150509250929050565b600081519050919050565b600082825260208201905092915050565b6000819050602082019050919050565b6104a181610294565b82525050565b600081519050919050565b600082825260208201905092915050565b60005b838110156104e15780820151818401526020810190506104c6565b838111156104f0576000848401525b50505050565b6000610501826104a7565b61050b81856104b2565b935061051b8185602086016104c3565b610524816102d4565b840191505092915050565b60006040830160008301516105476000860182610498565b506020830151848203602086015261055f82826104f6565b9150508091505092915050565b6000610578838361052f565b905092915050565b6000602082019050919050565b60006105988261046c565b6105a28185610477565b9350836020820285016105b485610488565b8060005b858110156105f057848403895281516105d1858261056c565b94506105dc83610580565b925060208a019950506001810190506105b8565b50829750879550505050505092915050565b6000602082019050818103600083015261061c818461058d565b905092915050565b7f4e487b7100000000000000000000000000000000000000000000000000000000600052602260045260246000fd5b6000600282049050600182168061066b57607f821691505b6020821081141561067f5761067e610624565b5b5091905056fea264697066735822122058a84c4b104605017a639a73f372260b3e78b85c8c42de59bbcf65dd62dc24e464736f6c634300080a0033",
					"opcodes": "PUSH1 0x80 PUSH1 0x40 MSTORE CALLVALUE DUP1 ISZERO PUSH2 0x10 JUMPI PUSH1 0x0 DUP1 REVERT JUMPDEST POP PUSH2 0x6BB DUP1 PUSH2 0x20 PUSH1 0x0 CODECOPY PUSH1 0x0 RETURN INVALID PUSH1 0x80 PUSH1 0x40 MSTORE CALLVALUE DUP1 ISZERO PUSH2 0x10 JUMPI PUSH1 0x0 DUP1 REVERT JUMPDEST POP PUSH1 0x4 CALLDATASIZE LT PUSH2 0x36 JUMPI PUSH1 0x0 CALLDATALOAD PUSH1 0xE0 SHR DUP1 PUSH4 0x40735FCC EQ PUSH2 0x3B JUMPI DUP1 PUSH4 0x418C6684 EQ PUSH2 0x57 JUMPI JUMPDEST PUSH1 0x0 DUP1 REVERT JUMPDEST PUSH2 0x55 PUSH1 0x4 DUP1 CALLDATASIZE SUB DUP2 ADD SWAP1 PUSH2 0x50 SWAP2 SWAP1 PUSH2 0x410 JUMP JUMPDEST PUSH2 0x75 JUMP JUMPDEST STOP JUMPDEST PUSH2 0x5F PUSH2 0xE2 JUMP JUMPDEST PUSH1 0x40 MLOAD PUSH2 0x6C SWAP2 SWAP1 PUSH2 0x602 JUMP JUMPDEST PUSH1 0x40 MLOAD DUP1 SWAP2 SUB SWAP1 RETURN JUMPDEST PUSH1 0x0 PUSH1 0x40 MLOAD DUP1 PUSH1 0x40 ADD PUSH1 0x40 MSTORE DUP1 DUP5 DUP2 MSTORE PUSH1 0x20 ADD DUP4 DUP2 MSTORE POP SWAP1 DUP1 PUSH1 0x1 DUP2 SLOAD ADD DUP1 DUP3 SSTORE DUP1 SWAP2 POP POP PUSH1 0x1 SWAP1 SUB SWAP1 PUSH1 0x0 MSTORE PUSH1 0x20 PUSH1 0x0 KECCAK256 SWAP1 PUSH1 0x2 MUL ADD PUSH1 0x0 SWAP1 SWAP2 SWAP1 SWAP2 SWAP1 SWAP2 POP PUSH1 0x0 DUP3 ADD MLOAD DUP2 PUSH1 0x0 ADD SSTORE PUSH1 0x20 DUP3 ADD MLOAD DUP2 PUSH1 0x1 ADD SWAP1 DUP1 MLOAD SWAP1 PUSH1 0x20 ADD SWAP1 PUSH2 0xDB SWAP3 SWAP2 SWAP1 PUSH2 0x1DD JUMP JUMPDEST POP POP POP POP POP JUMP JUMPDEST PUSH1 0x60 PUSH1 0x0 DUP1 SLOAD DUP1 PUSH1 0x20 MUL PUSH1 0x20 ADD PUSH1 0x40 MLOAD SWAP1 DUP2 ADD PUSH1 0x40 MSTORE DUP1 SWAP3 SWAP2 SWAP1 DUP2 DUP2 MSTORE PUSH1 0x20 ADD PUSH1 0x0 SWAP1 JUMPDEST DUP3 DUP3 LT ISZERO PUSH2 0x1D4 JUMPI DUP4 DUP3 SWAP1 PUSH1 0x0 MSTORE PUSH1 0x20 PUSH1 0x0 KECCAK256 SWAP1 PUSH1 0x2 MUL ADD PUSH1 0x40 MLOAD DUP1 PUSH1 0x40 ADD PUSH1 0x40 MSTORE SWAP1 DUP2 PUSH1 0x0 DUP3 ADD SLOAD DUP2 MSTORE PUSH1 0x20 ADD PUSH1 0x1 DUP3 ADD DUP1 SLOAD PUSH2 0x143 SWAP1 PUSH2 0x653 JUMP JUMPDEST DUP1 PUSH1 0x1F ADD PUSH1 0x20 DUP1 SWAP2 DIV MUL PUSH1 0x20 ADD PUSH1 0x40 MLOAD SWAP1 DUP2 ADD PUSH1 0x40 MSTORE DUP1 SWAP3 SWAP2 SWAP1 DUP2 DUP2 MSTORE PUSH1 0x20 ADD DUP3 DUP1 SLOAD PUSH2 0x16F SWAP1 PUSH2 0x653 JUMP JUMPDEST DUP1 ISZERO PUSH2 0x1BC JUMPI DUP1 PUSH1 0x1F LT PUSH2 0x191 JUMPI PUSH2 0x100 DUP1 DUP4 SLOAD DIV MUL DUP4 MSTORE SWAP2 PUSH1 0x20 ADD SWAP2 PUSH2 0x1BC JUMP JUMPDEST DUP3 ADD SWAP2 SWAP1 PUSH1 0x0 MSTORE PUSH1 0x20 PUSH1 0x0 KECCAK256 SWAP1 JUMPDEST DUP2 SLOAD DUP2 MSTORE SWAP1 PUSH1 0x1 ADD SWAP1 PUSH1 0x20 ADD DUP1 DUP4 GT PUSH2 0x19F JUMPI DUP3 SWAP1 SUB PUSH1 0x1F AND DUP3 ADD SWAP2 JUMPDEST POP POP POP POP POP DUP2 MSTORE POP POP DUP2 MSTORE PUSH1 0x20 ADD SWAP1 PUSH1 0x1 ADD SWAP1 PUSH2 0x106 JUMP JUMPDEST POP POP POP POP SWAP1 POP SWAP1 JUMP JUMPDEST DUP3 DUP1 SLOAD PUSH2 0x1E9 SWAP1 PUSH2 0x653 JUMP JUMPDEST SWAP1 PUSH1 0x0 MSTORE PUSH1 0x20 PUSH1 0x0 KECCAK256 SWAP1 PUSH1 0x1F ADD PUSH1 0x20 SWAP1 DIV DUP2 ADD SWAP3 DUP3 PUSH2 0x20B JUMPI PUSH1 0x0 DUP6 SSTORE PUSH2 0x252 JUMP JUMPDEST DUP3 PUSH1 0x1F LT PUSH2 0x224 JUMPI DUP1 MLOAD PUSH1 0xFF NOT AND DUP4 DUP1 ADD OR DUP6 SSTORE PUSH2 0x252 JUMP JUMPDEST DUP3 DUP1 ADD PUSH1 0x1 ADD DUP6 SSTORE DUP3 ISZERO PUSH2 0x252 JUMPI SWAP2 DUP3 ADD JUMPDEST DUP3 DUP2 GT ISZERO PUSH2 0x251 JUMPI DUP3 MLOAD DUP3 SSTORE SWAP2 PUSH1 0x20 ADD SWAP2 SWAP1 PUSH1 0x1 ADD SWAP1 PUSH2 0x236 JUMP JUMPDEST JUMPDEST POP SWAP1 POP PUSH2 0x25F SWAP2 SWAP1 PUSH2 0x263 JUMP JUMPDEST POP SWAP1 JUMP JUMPDEST JUMPDEST DUP1 DUP3 GT ISZERO PUSH2 0x27C JUMPI PUSH1 0x0 DUP2 PUSH1 0x0 SWAP1 SSTORE POP PUSH1 0x1 ADD PUSH2 0x264 JUMP JUMPDEST POP SWAP1 JUMP JUMPDEST PUSH1 0x0 PUSH1 0x40 MLOAD SWAP1 POP SWAP1 JUMP JUMPDEST PUSH1 0x0 DUP1 REVERT JUMPDEST PUSH1 0x0 DUP1 REVERT JUMPDEST PUSH1 0x0 DUP2 SWAP1 POP SWAP2 SWAP1 POP JUMP JUMPDEST PUSH2 0x2A7 DUP2 PUSH2 0x294 JUMP JUMPDEST DUP2 EQ PUSH2 0x2B2 JUMPI PUSH1 0x0 DUP1 REVERT JUMPDEST POP JUMP JUMPDEST PUSH1 0x0 DUP2 CALLDATALOAD SWAP1 POP PUSH2 0x2C4 DUP2 PUSH2 0x29E JUMP JUMPDEST SWAP3 SWAP2 POP POP JUMP JUMPDEST PUSH1 0x0 DUP1 REVERT JUMPDEST PUSH1 0x0 DUP1 REVERT JUMPDEST PUSH1 0x0 PUSH1 0x1F NOT PUSH1 0x1F DUP4 ADD AND SWAP1 POP SWAP2 SWAP1 POP JUMP JUMPDEST PUSH32 0x4E487B7100000000000000000000000000000000000000000000000000000000 PUSH1 0x0 MSTORE PUSH1 0x41 PUSH1 0x4 MSTORE PUSH1 0x24 PUSH1 0x0 REVERT JUMPDEST PUSH2 0x31D DUP3 PUSH2 0x2D4 JUMP JUMPDEST DUP2 ADD DUP2 DUP2 LT PUSH8 0xFFFFFFFFFFFFFFFF DUP3 GT OR ISZERO PUSH2 0x33C JUMPI PUSH2 0x33B PUSH2 0x2E5 JUMP JUMPDEST JUMPDEST DUP1 PUSH1 0x40 MSTORE POP POP POP JUMP JUMPDEST PUSH1 0x0 PUSH2 0x34F PUSH2 0x280 JUMP JUMPDEST SWAP1 POP PUSH2 0x35B DUP3 DUP3 PUSH2 0x314 JUMP JUMPDEST SWAP2 SWAP1 POP JUMP JUMPDEST PUSH1 0x0 PUSH8 0xFFFFFFFFFFFFFFFF DUP3 GT ISZERO PUSH2 0x37B JUMPI PUSH2 0x37A PUSH2 0x2E5 JUMP JUMPDEST JUMPDEST PUSH2 0x384 DUP3 PUSH2 0x2D4 JUMP JUMPDEST SWAP1 POP PUSH1 0x20 DUP2 ADD SWAP1 POP SWAP2 SWAP1 POP JUMP JUMPDEST DUP3 DUP2 DUP4 CALLDATACOPY PUSH1 0x0 DUP4 DUP4 ADD MSTORE POP POP POP JUMP JUMPDEST PUSH1 0x0 PUSH2 0x3B3 PUSH2 0x3AE DUP5 PUSH2 0x360 JUMP JUMPDEST PUSH2 0x345 JUMP JUMPDEST SWAP1 POP DUP3 DUP2 MSTORE PUSH1 0x20 DUP2 ADD DUP5 DUP5 DUP5 ADD GT ISZERO PUSH2 0x3CF JUMPI PUSH2 0x3CE PUSH2 0x2CF JUMP JUMPDEST JUMPDEST PUSH2 0x3DA DUP5 DUP3 DUP6 PUSH2 0x391 JUMP JUMPDEST POP SWAP4 SWAP3 POP POP POP JUMP JUMPDEST PUSH1 0x0 DUP3 PUSH1 0x1F DUP4 ADD SLT PUSH2 0x3F7 JUMPI PUSH2 0x3F6 PUSH2 0x2CA JUMP JUMPDEST JUMPDEST DUP2 CALLDATALOAD PUSH2 0x407 DUP5 DUP3 PUSH1 0x20 DUP7 ADD PUSH2 0x3A0 JUMP JUMPDEST SWAP2 POP POP SWAP3 SWAP2 POP POP JUMP JUMPDEST PUSH1 0x0 DUP1 PUSH1 0x40 DUP4 DUP6 SUB SLT ISZERO PUSH2 0x427 JUMPI PUSH2 0x426 PUSH2 0x28A JUMP JUMPDEST JUMPDEST PUSH1 0x0 PUSH2 0x435 DUP6 DUP3 DUP7 ADD PUSH2 0x2B5 JUMP JUMPDEST SWAP3 POP POP PUSH1 0x20 DUP4 ADD CALLDATALOAD PUSH8 0xFFFFFFFFFFFFFFFF DUP2 GT ISZERO PUSH2 0x456 JUMPI PUSH2 0x455 PUSH2 0x28F JUMP JUMPDEST JUMPDEST PUSH2 0x462 DUP6 DUP3 DUP7 ADD PUSH2 0x3E2 JUMP JUMPDEST SWAP2 POP POP SWAP3 POP SWAP3 SWAP1 POP JUMP JUMPDEST PUSH1 0x0 DUP2 MLOAD SWAP1 POP SWAP2 SWAP1 POP JUMP JUMPDEST PUSH1 0x0 DUP3 DUP3 MSTORE PUSH1 0x20 DUP3 ADD SWAP1 POP SWAP3 SWAP2 POP POP JUMP JUMPDEST PUSH1 0x0 DUP2 SWAP1 POP PUSH1 0x20 DUP3 ADD SWAP1 POP SWAP2 SWAP1 POP JUMP JUMPDEST PUSH2 0x4A1 DUP2 PUSH2 0x294 JUMP JUMPDEST DUP3 MSTORE POP POP JUMP JUMPDEST PUSH1 0x0 DUP2 MLOAD SWAP1 POP SWAP2 SWAP1 POP JUMP JUMPDEST PUSH1 0x0 DUP3 DUP3 MSTORE PUSH1 0x20 DUP3 ADD SWAP1 POP SWAP3 SWAP2 POP POP JUMP JUMPDEST PUSH1 0x0 JUMPDEST DUP4 DUP2 LT ISZERO PUSH2 0x4E1 JUMPI DUP1 DUP3 ADD MLOAD DUP2 DUP5 ADD MSTORE PUSH1 0x20 DUP2 ADD SWAP1 POP PUSH2 0x4C6 JUMP JUMPDEST DUP4 DUP2 GT ISZERO PUSH2 0x4F0 JUMPI PUSH1 0x0 DUP5 DUP5 ADD MSTORE JUMPDEST POP POP POP POP JUMP JUMPDEST PUSH1 0x0 PUSH2 0x501 DUP3 PUSH2 0x4A7 JUMP JUMPDEST PUSH2 0x50B DUP2 DUP6 PUSH2 0x4B2 JUMP JUMPDEST SWAP4 POP PUSH2 0x51B DUP2 DUP6 PUSH1 0x20 DUP7 ADD PUSH2 0x4C3 JUMP JUMPDEST PUSH2 0x524 DUP2 PUSH2 0x2D4 JUMP JUMPDEST DUP5 ADD SWAP2 POP POP SWAP3 SWAP2 POP POP JUMP JUMPDEST PUSH1 0x0 PUSH1 0x40 DUP4 ADD PUSH1 0x0 DUP4 ADD MLOAD PUSH2 0x547 PUSH1 0x0 DUP7 ADD DUP3 PUSH2 0x498 JUMP JUMPDEST POP PUSH1 0x20 DUP4 ADD MLOAD DUP5 DUP3 SUB PUSH1 0x20 DUP7 ADD MSTORE PUSH2 0x55F DUP3 DUP3 PUSH2 0x4F6 JUMP JUMPDEST SWAP2 POP POP DUP1 SWAP2 POP POP SWAP3 SWAP2 POP POP JUMP JUMPDEST PUSH1 0x0 PUSH2 0x578 DUP4 DUP4 PUSH2 0x52F JUMP JUMPDEST SWAP1 POP SWAP3 SWAP2 POP POP JUMP JUMPDEST PUSH1 0x0 PUSH1 0x20 DUP3 ADD SWAP1 POP SWAP2 SWAP1 POP JUMP JUMPDEST PUSH1 0x0 PUSH2 0x598 DUP3 PUSH2 0x46C JUMP JUMPDEST PUSH2 0x5A2 DUP2 DUP6 PUSH2 0x477 JUMP JUMPDEST SWAP4 POP DUP4 PUSH1 0x20 DUP3 MUL DUP6 ADD PUSH2 0x5B4 DUP6 PUSH2 0x488 JUMP JUMPDEST DUP1 PUSH1 0x0 JUMPDEST DUP6 DUP2 LT ISZERO PUSH2 0x5F0 JUMPI DUP5 DUP5 SUB DUP10 MSTORE DUP2 MLOAD PUSH2 0x5D1 DUP6 DUP3 PUSH2 0x56C JUMP JUMPDEST SWAP5 POP PUSH2 0x5DC DUP4 PUSH2 0x580 JUMP JUMPDEST SWAP3 POP PUSH1 0x20 DUP11 ADD SWAP10 POP POP PUSH1 0x1 DUP2 ADD SWAP1 POP PUSH2 0x5B8 JUMP JUMPDEST POP DUP3 SWAP8 POP DUP8 SWAP6 POP POP POP POP POP POP SWAP3 SWAP2 POP POP JUMP JUMPDEST PUSH1 0x0 PUSH1 0x20 DUP3 ADD SWAP1 POP DUP2 DUP2 SUB PUSH1 0x0 DUP4 ADD MSTORE PUSH2 0x61C DUP2 DUP5 PUSH2 0x58D JUMP JUMPDEST SWAP1 POP SWAP3 SWAP2 POP POP JUMP JUMPDEST PUSH32 0x4E487B7100000000000000000000000000000000000000000000000000000000 PUSH1 0x0 MSTORE PUSH1 0x22 PUSH1 0x4 MSTORE PUSH1 0x24 PUSH1 0x0 REVERT JUMPDEST PUSH1 0x0 PUSH1 0x2 DUP3 DIV SWAP1 POP PUSH1 0x1 DUP3 AND DUP1 PUSH2 0x66B JUMPI PUSH1 0x7F DUP3 AND SWAP2 POP JUMPDEST PUSH1 0x20 DUP3 LT DUP2 EQ ISZERO PUSH2 0x67F JUMPI PUSH2 0x67E PUSH2 0x624 JUMP JUMPDEST JUMPDEST POP SWAP2 SWAP1 POP JUMP INVALID LOG2 PUSH5 0x6970667358 0x22 SLT KECCAK256 PC 0xA8 0x4C 0x4B LT CHAINID SDIV ADD PUSH27 0x639A73F372260B3E78B85C8C42DE59BBCF65DD62DC24E464736F6C PUSH4 0x4300080A STOP CALLER "
				},
				"gasEstimates": {
					"creation": {
						"codeDepositCost": "344600",
						"executionCost": "380",
						"totalCost": "344980"
					},
					"external": {
						"GetPessoas()": "infinite",
						"InserirPessoas(uint256,string)": "infinite"
					}
				},
				"methodIdentifiers": {
					"GetPessoas()": "418c6684",
					"InserirPessoas(uint256,string)": "40735fcc"
				}
			},
			"storageLayout": {
				"storage": [
					{
						"astId": 10,
						"contract": "contracts/Struct.sol:Struct",
						"label": "listaPessoas",
						"offset": 0,
						"slot": "0",
						"type": "t_array(t_struct(Pessoa)6_storage)dyn_storage"
					}
				],
				"types": {
					"t_array(t_struct(Pessoa)6_storage)dyn_storage": {
						"base": "t_struct(Pessoa)6_storage",
						"encoding": "dynamic_array",
						"label": "struct Struct.Pessoa[]",
						"numberOfBytes": "32"
					},
					"t_string_storage": {
						"encoding": "bytes",
						"label": "string",
						"numberOfBytes": "32"
					},
					"t_struct(Pessoa)6_storage": {
						"encoding": "inplace",
						"label": "struct Struct.Pessoa",
						"members": [
							{
								"astId": 3,
								"contract": "contracts/Struct.sol:Struct",
								"label": "idade",
								"offset": 0,
								"slot": "0",
								"type": "t_uint256"
							},
							{
								"astId": 5,
								"contract": "contracts/Struct.sol:Struct",
								"label": "nome",
								"offset": 0,
								"slot": "1",
								"type": "t_string_storage"
							}
						],
						"numberOfBytes": "64"
					},
					"t_uint256": {
						"encoding": "inplace",
						"label": "uint256",
						"numberOfBytes": "32"
					}
				}
			},
			"userdoc": {
				"kind": "user",
				"methods": {},
				"version": 1
			}
		}
	}
}