{
	"contracts/MyFunctions.sol": {
		"MyFunctions": {
			"abi": [
				{
					"inputs": [],
					"stateMutability": "nonpayable",
					"type": "constructor"
				},
				{
					"inputs": [],
					"name": "testFunction1",
					"outputs": [
						{
							"internalType": "uint256",
							"name": "",
							"type": "uint256"
						}
					],
					"stateMutability": "pure",
					"type": "function"
				},
				{
					"inputs": [
						{
							"internalType": "uint256",
							"name": "valor",
							"type": "uint256"
						}
					],
					"name": "testFunction2",
					"outputs": [
						{
							"internalType": "uint256",
							"name": "",
							"type": "uint256"
						}
					],
					"stateMutability": "view",
					"type": "function"
				}
			],
			"devdoc": {
				"kind": "dev",
				"methods": {},
				"version": 1
			},
			"evm": {
				"assembly": "    /* \"contracts/MyFunctions.sol\":61:771  contract MyFunctions {... */\n  mstore(0x40, 0x80)\n    /* \"contracts/MyFunctions.sol\":120:171  constructor() {... */\n  callvalue\n  dup1\n  iszero\n  tag_1\n  jumpi\n  0x00\n  dup1\n  revert\ntag_1:\n  pop\n    /* \"contracts/MyFunctions.sol\":153:163  msg.sender */\n  caller\n    /* \"contracts/MyFunctions.sol\":145:150  owner */\n  0x00\n  dup1\n    /* \"contracts/MyFunctions.sol\":145:163  owner = msg.sender */\n  0x0100\n  exp\n  dup2\n  sload\n  dup2\n  0xffffffffffffffffffffffffffffffffffffffff\n  mul\n  not\n  and\n  swap1\n  dup4\n  0xffffffffffffffffffffffffffffffffffffffff\n  and\n  mul\n  or\n  swap1\n  sstore\n  pop\n    /* \"contracts/MyFunctions.sol\":61:771  contract MyFunctions {... */\n  dataSize(sub_0)\n  dup1\n  dataOffset(sub_0)\n  0x00\n  codecopy\n  0x00\n  return\nstop\n\nsub_0: assembly {\n        /* \"contracts/MyFunctions.sol\":61:771  contract MyFunctions {... */\n      mstore(0x40, 0x80)\n      callvalue\n      dup1\n      iszero\n      tag_1\n      jumpi\n      0x00\n      dup1\n      revert\n    tag_1:\n      pop\n      jumpi(tag_2, lt(calldatasize, 0x04))\n      shr(0xe0, calldataload(0x00))\n      dup1\n      0x3c289b53\n      eq\n      tag_3\n      jumpi\n      dup1\n      0x9a58dc6d\n      eq\n      tag_4\n      jumpi\n    tag_2:\n      0x00\n      dup1\n      revert\n        /* \"contracts/MyFunctions.sol\":557:646  function testFunction1() public pure returns (uint) {... */\n    tag_3:\n      tag_5\n      tag_6\n      jump\t// in\n    tag_5:\n      mload(0x40)\n      tag_7\n      swap2\n      swap1\n      tag_8\n      jump\t// in\n    tag_7:\n      mload(0x40)\n      dup1\n      swap2\n      sub\n      swap1\n      return\n        /* \"contracts/MyFunctions.sol\":654:768  function testFunction2(uint valor) public view onlyOwner returns (uint) {... */\n    tag_4:\n      tag_9\n      0x04\n      dup1\n      calldatasize\n      sub\n      dup2\n      add\n      swap1\n      tag_10\n      swap2\n      swap1\n      tag_11\n      jump\t// in\n    tag_10:\n      tag_12\n      jump\t// in\n    tag_9:\n      mload(0x40)\n      tag_13\n      swap2\n      swap1\n      tag_8\n      jump\t// in\n    tag_13:\n      mload(0x40)\n      dup1\n      swap2\n      sub\n      swap1\n      return\n        /* \"contracts/MyFunctions.sol\":557:646  function testFunction1() public pure returns (uint) {... */\n    tag_6:\n        /* \"contracts/MyFunctions.sol\":603:607  uint */\n      0x00\n        /* \"contracts/MyFunctions.sol\":627:638  getResult() */\n      tag_15\n        /* \"contracts/MyFunctions.sol\":627:636  getResult */\n      tag_16\n        /* \"contracts/MyFunctions.sol\":627:638  getResult() */\n      jump\t// in\n    tag_15:\n        /* \"contracts/MyFunctions.sol\":620:638  return getResult() */\n      swap1\n      pop\n        /* \"contracts/MyFunctions.sol\":557:646  function testFunction1() public pure returns (uint) {... */\n      swap1\n      jump\t// out\n        /* \"contracts/MyFunctions.sol\":654:768  function testFunction2(uint valor) public view onlyOwner returns (uint) {... */\n    tag_12:\n        /* \"contracts/MyFunctions.sol\":720:724  uint */\n      0x00\n        /* \"contracts/MyFunctions.sol\":231:236  owner */\n      dup1\n      0x00\n      swap1\n      sload\n      swap1\n      0x0100\n      exp\n      swap1\n      div\n      0xffffffffffffffffffffffffffffffffffffffff\n      and\n        /* \"contracts/MyFunctions.sol\":217:236  msg.sender == owner */\n      0xffffffffffffffffffffffffffffffffffffffff\n      and\n        /* \"contracts/MyFunctions.sol\":217:227  msg.sender */\n      caller\n        /* \"contracts/MyFunctions.sol\":217:236  msg.sender == owner */\n      0xffffffffffffffffffffffffffffffffffffffff\n      and\n      eq\n        /* \"contracts/MyFunctions.sol\":209:237  require(msg.sender == owner) */\n      tag_18\n      jumpi\n      0x00\n      dup1\n      revert\n    tag_18:\n        /* \"contracts/MyFunctions.sol\":744:760  getResult2(2, 4) */\n      tag_20\n        /* \"contracts/MyFunctions.sol\":755:756  2 */\n      0x02\n        /* \"contracts/MyFunctions.sol\":758:759  4 */\n      0x04\n        /* \"contracts/MyFunctions.sol\":744:754  getResult2 */\n      tag_21\n        /* \"contracts/MyFunctions.sol\":744:760  getResult2(2, 4) */\n      jump\t// in\n    tag_20:\n        /* \"contracts/MyFunctions.sol\":737:760  return getResult2(2, 4) */\n      swap1\n      pop\n        /* \"contracts/MyFunctions.sol\":654:768  function testFunction2(uint valor) public view onlyOwner returns (uint) {... */\n      swap2\n      swap1\n      pop\n      jump\t// out\n        /* \"contracts/MyFunctions.sol\":265:438  function getResult() internal pure returns (uint) {... */\n    tag_16:\n        /* \"contracts/MyFunctions.sol\":309:313  uint */\n      0x00\n        /* \"contracts/MyFunctions.sol\":326:332  uint a */\n      dup1\n        /* \"contracts/MyFunctions.sol\":335:336  1 */\n      0x01\n        /* \"contracts/MyFunctions.sol\":326:336  uint a = 1 */\n      swap1\n      pop\n        /* \"contracts/MyFunctions.sol\":365:371  uint b */\n      0x00\n        /* \"contracts/MyFunctions.sol\":374:376  10 */\n      0x0a\n        /* \"contracts/MyFunctions.sol\":365:376  uint b = 10 */\n      swap1\n      pop\n        /* \"contracts/MyFunctions.sol\":387:398  uint result */\n      0x00\n        /* \"contracts/MyFunctions.sol\":405:406  b */\n      dup2\n        /* \"contracts/MyFunctions.sol\":401:402  a */\n      dup4\n        /* \"contracts/MyFunctions.sol\":401:406  a + b */\n      tag_23\n      swap2\n      swap1\n      tag_24\n      jump\t// in\n    tag_23:\n        /* \"contracts/MyFunctions.sol\":387:406  uint result = a + b */\n      swap1\n      pop\n        /* \"contracts/MyFunctions.sol\":424:430  result */\n      dup1\n        /* \"contracts/MyFunctions.sol\":417:430  return result */\n      swap4\n      pop\n      pop\n      pop\n      pop\n        /* \"contracts/MyFunctions.sol\":265:438  function getResult() internal pure returns (uint) {... */\n      swap1\n      jump\t// out\n        /* \"contracts/MyFunctions.sol\":446:545  function getResult2(uint _x, uint _y) internal pure returns(uint) {... */\n    tag_21:\n        /* \"contracts/MyFunctions.sol\":506:510  uint */\n      0x00\n        /* \"contracts/MyFunctions.sol\":535:537  _y */\n      dup2\n        /* \"contracts/MyFunctions.sol\":530:532  _x */\n      dup4\n        /* \"contracts/MyFunctions.sol\":530:537  _x + _y */\n      tag_26\n      swap2\n      swap1\n      tag_24\n      jump\t// in\n    tag_26:\n        /* \"contracts/MyFunctions.sol\":523:537  return _x + _y */\n      swap1\n      pop\n        /* \"contracts/MyFunctions.sol\":446:545  function getResult2(uint _x, uint _y) internal pure returns(uint) {... */\n      swap3\n      swap2\n      pop\n      pop\n      jump\t// out\n        /* \"#utility.yul\":7:84   */\n    tag_27:\n        /* \"#utility.yul\":44:51   */\n      0x00\n        /* \"#utility.yul\":73:78   */\n      dup2\n        /* \"#utility.yul\":62:78   */\n      swap1\n      pop\n        /* \"#utility.yul\":7:84   */\n      swap2\n      swap1\n      pop\n      jump\t// out\n        /* \"#utility.yul\":90:208   */\n    tag_28:\n        /* \"#utility.yul\":177:201   */\n      tag_38\n        /* \"#utility.yul\":195:200   */\n      dup2\n        /* \"#utility.yul\":177:201   */\n      tag_27\n      jump\t// in\n    tag_38:\n        /* \"#utility.yul\":172:175   */\n      dup3\n        /* \"#utility.yul\":165:202   */\n      mstore\n        /* \"#utility.yul\":90:208   */\n      pop\n      pop\n      jump\t// out\n        /* \"#utility.yul\":214:436   */\n    tag_8:\n        /* \"#utility.yul\":307:311   */\n      0x00\n        /* \"#utility.yul\":345:347   */\n      0x20\n        /* \"#utility.yul\":334:343   */\n      dup3\n        /* \"#utility.yul\":330:348   */\n      add\n        /* \"#utility.yul\":322:348   */\n      swap1\n      pop\n        /* \"#utility.yul\":358:429   */\n      tag_40\n        /* \"#utility.yul\":426:427   */\n      0x00\n        /* \"#utility.yul\":415:424   */\n      dup4\n        /* \"#utility.yul\":411:428   */\n      add\n        /* \"#utility.yul\":402:408   */\n      dup5\n        /* \"#utility.yul\":358:429   */\n      tag_28\n      jump\t// in\n    tag_40:\n        /* \"#utility.yul\":214:436   */\n      swap3\n      swap2\n      pop\n      pop\n      jump\t// out\n        /* \"#utility.yul\":523:640   */\n    tag_30:\n        /* \"#utility.yul\":632:633   */\n      0x00\n        /* \"#utility.yul\":629:630   */\n      dup1\n        /* \"#utility.yul\":622:634   */\n      revert\n        /* \"#utility.yul\":769:891   */\n    tag_32:\n        /* \"#utility.yul\":842:866   */\n      tag_45\n        /* \"#utility.yul\":860:865   */\n      dup2\n        /* \"#utility.yul\":842:866   */\n      tag_27\n      jump\t// in\n    tag_45:\n        /* \"#utility.yul\":835:840   */\n      dup2\n        /* \"#utility.yul\":832:867   */\n      eq\n        /* \"#utility.yul\":822:885   */\n      tag_46\n      jumpi\n        /* \"#utility.yul\":881:882   */\n      0x00\n        /* \"#utility.yul\":878:879   */\n      dup1\n        /* \"#utility.yul\":871:883   */\n      revert\n        /* \"#utility.yul\":822:885   */\n    tag_46:\n        /* \"#utility.yul\":769:891   */\n      pop\n      jump\t// out\n        /* \"#utility.yul\":897:1036   */\n    tag_33:\n        /* \"#utility.yul\":943:948   */\n      0x00\n        /* \"#utility.yul\":981:987   */\n      dup2\n        /* \"#utility.yul\":968:988   */\n      calldataload\n        /* \"#utility.yul\":959:988   */\n      swap1\n      pop\n        /* \"#utility.yul\":997:1030   */\n      tag_48\n        /* \"#utility.yul\":1024:1029   */\n      dup2\n        /* \"#utility.yul\":997:1030   */\n      tag_32\n      jump\t// in\n    tag_48:\n        /* \"#utility.yul\":897:1036   */\n      swap3\n      swap2\n      pop\n      pop\n      jump\t// out\n        /* \"#utility.yul\":1042:1371   */\n    tag_11:\n        /* \"#utility.yul\":1101:1107   */\n      0x00\n        /* \"#utility.yul\":1150:1152   */\n      0x20\n        /* \"#utility.yul\":1138:1147   */\n      dup3\n        /* \"#utility.yul\":1129:1136   */\n      dup5\n        /* \"#utility.yul\":1125:1148   */\n      sub\n        /* \"#utility.yul\":1121:1153   */\n      slt\n        /* \"#utility.yul\":1118:1237   */\n      iszero\n      tag_50\n      jumpi\n        /* \"#utility.yul\":1156:1235   */\n      tag_51\n      tag_30\n      jump\t// in\n    tag_51:\n        /* \"#utility.yul\":1118:1237   */\n    tag_50:\n        /* \"#utility.yul\":1276:1277   */\n      0x00\n        /* \"#utility.yul\":1301:1354   */\n      tag_52\n        /* \"#utility.yul\":1346:1353   */\n      dup5\n        /* \"#utility.yul\":1337:1343   */\n      dup3\n        /* \"#utility.yul\":1326:1335   */\n      dup6\n        /* \"#utility.yul\":1322:1344   */\n      add\n        /* \"#utility.yul\":1301:1354   */\n      tag_33\n      jump\t// in\n    tag_52:\n        /* \"#utility.yul\":1291:1354   */\n      swap2\n      pop\n        /* \"#utility.yul\":1247:1364   */\n      pop\n        /* \"#utility.yul\":1042:1371   */\n      swap3\n      swap2\n      pop\n      pop\n      jump\t// out\n        /* \"#utility.yul\":1377:1557   */\n    tag_34:\n        /* \"#utility.yul\":1425:1502   */\n      0x4e487b7100000000000000000000000000000000000000000000000000000000\n        /* \"#utility.yul\":1422:1423   */\n      0x00\n        /* \"#utility.yul\":1415:1503   */\n      mstore\n        /* \"#utility.yul\":1522:1526   */\n      0x11\n        /* \"#utility.yul\":1519:1520   */\n      0x04\n        /* \"#utility.yul\":1512:1527   */\n      mstore\n        /* \"#utility.yul\":1546:1550   */\n      0x24\n        /* \"#utility.yul\":1543:1544   */\n      0x00\n        /* \"#utility.yul\":1536:1551   */\n      revert\n        /* \"#utility.yul\":1563:1868   */\n    tag_24:\n        /* \"#utility.yul\":1603:1606   */\n      0x00\n        /* \"#utility.yul\":1622:1642   */\n      tag_55\n        /* \"#utility.yul\":1640:1641   */\n      dup3\n        /* \"#utility.yul\":1622:1642   */\n      tag_27\n      jump\t// in\n    tag_55:\n        /* \"#utility.yul\":1617:1642   */\n      swap2\n      pop\n        /* \"#utility.yul\":1656:1676   */\n      tag_56\n        /* \"#utility.yul\":1674:1675   */\n      dup4\n        /* \"#utility.yul\":1656:1676   */\n      tag_27\n      jump\t// in\n    tag_56:\n        /* \"#utility.yul\":1651:1676   */\n      swap3\n      pop\n        /* \"#utility.yul\":1810:1811   */\n      dup3\n        /* \"#utility.yul\":1742:1808   */\n      0xffffffffffffffffffffffffffffffffffffffffffffffffffffffffffffffff\n        /* \"#utility.yul\":1738:1812   */\n      sub\n        /* \"#utility.yul\":1735:1736   */\n      dup3\n        /* \"#utility.yul\":1732:1813   */\n      gt\n        /* \"#utility.yul\":1729:1836   */\n      iszero\n      tag_57\n      jumpi\n        /* \"#utility.yul\":1816:1834   */\n      tag_58\n      tag_34\n      jump\t// in\n    tag_58:\n        /* \"#utility.yul\":1729:1836   */\n    tag_57:\n        /* \"#utility.yul\":1860:1861   */\n      dup3\n        /* \"#utility.yul\":1857:1858   */\n      dup3\n        /* \"#utility.yul\":1853:1862   */\n      add\n        /* \"#utility.yul\":1846:1862   */\n      swap1\n      pop\n        /* \"#utility.yul\":1563:1868   */\n      swap3\n      swap2\n      pop\n      pop\n      jump\t// out\n\n    auxdata: 0xa26469706673582212209753823f2e4c110df2512f9bcc825e3239b862f62bd172f38f29d99cb9c4d43564736f6c634300080d0033\n}\n",
				"bytecode": {
					"linkReferences": {},
					"object": "608060405234801561001057600080fd5b50336000806101000a81548173ffffffffffffffffffffffffffffffffffffffff021916908373ffffffffffffffffffffffffffffffffffffffff16021790555061028f806100606000396000f3fe608060405234801561001057600080fd5b50600436106100365760003560e01c80633c289b531461003b5780639a58dc6d14610059575b600080fd5b610043610089565b604051610050919061015b565b60405180910390f35b610073600480360381019061006e91906101a7565b610098565b604051610080919061015b565b60405180910390f35b6000610093610106565b905090565b60008060009054906101000a900473ffffffffffffffffffffffffffffffffffffffff1673ffffffffffffffffffffffffffffffffffffffff163373ffffffffffffffffffffffffffffffffffffffff16146100f357600080fd5b6100ff6002600461012c565b9050919050565b600080600190506000600a9050600081836101219190610203565b905080935050505090565b6000818361013a9190610203565b905092915050565b6000819050919050565b61015581610142565b82525050565b6000602082019050610170600083018461014c565b92915050565b600080fd5b61018481610142565b811461018f57600080fd5b50565b6000813590506101a18161017b565b92915050565b6000602082840312156101bd576101bc610176565b5b60006101cb84828501610192565b91505092915050565b7f4e487b7100000000000000000000000000000000000000000000000000000000600052601160045260246000fd5b600061020e82610142565b915061021983610142565b9250827fffffffffffffffffffffffffffffffffffffffffffffffffffffffffffffffff0382111561024e5761024d6101d4565b5b82820190509291505056fea26469706673582212209753823f2e4c110df2512f9bcc825e3239b862f62bd172f38f29d99cb9c4d43564736f6c634300080d0033",
					"opcodes": "PUSH1 0x80 PUSH1 0x40 MSTORE CALLVALUE DUP1 ISZERO PUSH2 0x10 JUMPI PUSH1 0x0 DUP1 REVERT JUMPDEST POP CALLER PUSH1 0x0 DUP1 PUSH2 0x100 EXP DUP2 SLOAD DUP2 PUSH20 0xFFFFFFFFFFFFFFFFFFFFFFFFFFFFFFFFFFFFFFFF MUL NOT AND SWAP1 DUP4 PUSH20 0xFFFFFFFFFFFFFFFFFFFFFFFFFFFFFFFFFFFFFFFF AND MUL OR SWAP1 SSTORE POP PUSH2 0x28F DUP1 PUSH2 0x60 PUSH1 0x0 CODECOPY PUSH1 0x0 RETURN INVALID PUSH1 0x80 PUSH1 0x40 MSTORE CALLVALUE DUP1 ISZERO PUSH2 0x10 JUMPI PUSH1 0x0 DUP1 REVERT JUMPDEST POP PUSH1 0x4 CALLDATASIZE LT PUSH2 0x36 JUMPI PUSH1 0x0 CALLDATALOAD PUSH1 0xE0 SHR DUP1 PUSH4 0x3C289B53 EQ PUSH2 0x3B JUMPI DUP1 PUSH4 0x9A58DC6D EQ PUSH2 0x59 JUMPI JUMPDEST PUSH1 0x0 DUP1 REVERT JUMPDEST PUSH2 0x43 PUSH2 0x89 JUMP JUMPDEST PUSH1 0x40 MLOAD PUSH2 0x50 SWAP2 SWAP1 PUSH2 0x15B JUMP JUMPDEST PUSH1 0x40 MLOAD DUP1 SWAP2 SUB SWAP1 RETURN JUMPDEST PUSH2 0x73 PUSH1 0x4 DUP1 CALLDATASIZE SUB DUP2 ADD SWAP1 PUSH2 0x6E SWAP2 SWAP1 PUSH2 0x1A7 JUMP JUMPDEST PUSH2 0x98 JUMP JUMPDEST PUSH1 0x40 MLOAD PUSH2 0x80 SWAP2 SWAP1 PUSH2 0x15B JUMP JUMPDEST PUSH1 0x40 MLOAD DUP1 SWAP2 SUB SWAP1 RETURN JUMPDEST PUSH1 0x0 PUSH2 0x93 PUSH2 0x106 JUMP JUMPDEST SWAP1 POP SWAP1 JUMP JUMPDEST PUSH1 0x0 DUP1 PUSH1 0x0 SWAP1 SLOAD SWAP1 PUSH2 0x100 EXP SWAP1 DIV PUSH20 0xFFFFFFFFFFFFFFFFFFFFFFFFFFFFFFFFFFFFFFFF AND PUSH20 0xFFFFFFFFFFFFFFFFFFFFFFFFFFFFFFFFFFFFFFFF AND CALLER PUSH20 0xFFFFFFFFFFFFFFFFFFFFFFFFFFFFFFFFFFFFFFFF AND EQ PUSH2 0xF3 JUMPI PUSH1 0x0 DUP1 REVERT JUMPDEST PUSH2 0xFF PUSH1 0x2 PUSH1 0x4 PUSH2 0x12C JUMP JUMPDEST SWAP1 POP SWAP2 SWAP1 POP JUMP JUMPDEST PUSH1 0x0 DUP1 PUSH1 0x1 SWAP1 POP PUSH1 0x0 PUSH1 0xA SWAP1 POP PUSH1 0x0 DUP2 DUP4 PUSH2 0x121 SWAP2 SWAP1 PUSH2 0x203 JUMP JUMPDEST SWAP1 POP DUP1 SWAP4 POP POP POP POP SWAP1 JUMP JUMPDEST PUSH1 0x0 DUP2 DUP4 PUSH2 0x13A SWAP2 SWAP1 PUSH2 0x203 JUMP JUMPDEST SWAP1 POP SWAP3 SWAP2 POP POP JUMP JUMPDEST PUSH1 0x0 DUP2 SWAP1 POP SWAP2 SWAP1 POP JUMP JUMPDEST PUSH2 0x155 DUP2 PUSH2 0x142 JUMP JUMPDEST DUP3 MSTORE POP POP JUMP JUMPDEST PUSH1 0x0 PUSH1 0x20 DUP3 ADD SWAP1 POP PUSH2 0x170 PUSH1 0x0 DUP4 ADD DUP5 PUSH2 0x14C JUMP JUMPDEST SWAP3 SWAP2 POP POP JUMP JUMPDEST PUSH1 0x0 DUP1 REVERT JUMPDEST PUSH2 0x184 DUP2 PUSH2 0x142 JUMP JUMPDEST DUP2 EQ PUSH2 0x18F JUMPI PUSH1 0x0 DUP1 REVERT JUMPDEST POP JUMP JUMPDEST PUSH1 0x0 DUP2 CALLDATALOAD SWAP1 POP PUSH2 0x1A1 DUP2 PUSH2 0x17B JUMP JUMPDEST SWAP3 SWAP2 POP POP JUMP JUMPDEST PUSH1 0x0 PUSH1 0x20 DUP3 DUP5 SUB SLT ISZERO PUSH2 0x1BD JUMPI PUSH2 0x1BC PUSH2 0x176 JUMP JUMPDEST JUMPDEST PUSH1 0x0 PUSH2 0x1CB DUP5 DUP3 DUP6 ADD PUSH2 0x192 JUMP JUMPDEST SWAP2 POP POP SWAP3 SWAP2 POP POP JUMP JUMPDEST PUSH32 0x4E487B7100000000000000000000000000000000000000000000000000000000 PUSH1 0x0 MSTORE PUSH1 0x11 PUSH1 0x4 MSTORE PUSH1 0x24 PUSH1 0x0 REVERT JUMPDEST PUSH1 0x0 PUSH2 0x20E DUP3 PUSH2 0x142 JUMP JUMPDEST SWAP2 POP PUSH2 0x219 DUP4 PUSH2 0x142 JUMP JUMPDEST SWAP3 POP DUP3 PUSH32 0xFFFFFFFFFFFFFFFFFFFFFFFFFFFFFFFFFFFFFFFFFFFFFFFFFFFFFFFFFFFFFFFF SUB DUP3 GT ISZERO PUSH2 0x24E JUMPI PUSH2 0x24D PUSH2 0x1D4 JUMP JUMPDEST JUMPDEST DUP3 DUP3 ADD SWAP1 POP SWAP3 SWAP2 POP POP JUMP INVALID LOG2 PUSH5 0x6970667358 0x22 SLT KECCAK256 SWAP8 MSTORE8 DUP3 EXTCODEHASH 0x2E 0x4C GT 0xD CALLCODE MLOAD 0x2F SWAP12 0xCC DUP3 0x5E ORIGIN CODECOPY 0xB8 PUSH3 0xF62BD1 PUSH19 0xF38F29D99CB9C4D43564736F6C634300080D00 CALLER "
				},
				"gasEstimates": {
					"creation": {
						"codeDepositCost": "131000",
						"executionCost": "24443",
						"totalCost": "155443"
					},
					"external": {
						"testFunction1()": "infinite",
						"testFunction2(uint256)": "infinite"
					},
					"internal": {
						"getResult()": "infinite",
						"getResult2(uint256,uint256)": "infinite"
					}
				},
				"methodIdentifiers": {
					"testFunction1()": "3c289b53",
					"testFunction2(uint256)": "9a58dc6d"
				}
			},
			"storageLayout": {
				"storage": [
					{
						"astId": 3,
						"contract": "contracts/MyFunctions.sol:MyFunctions",
						"label": "owner",
						"offset": 0,
						"slot": "0",
						"type": "t_address"
					}
				],
				"types": {
					"t_address": {
						"encoding": "inplace",
						"label": "address",
						"numberOfBytes": "20"
					}
				}
			},
			"userdoc": {
				"kind": "user",
				"methods": {},
				"version": 1
			}
		}
	}
}