{
	"contracts/MyFunctions.sol": {
		"MyFunctions": {
			"abi": [
				{
					"inputs": [],
					"stateMutability": "nonpayable",
					"type": "constructor"
				},
				{
					"inputs": [],
					"name": "testFunction1",
					"outputs": [
						{
							"internalType": "uint256",
							"name": "",
							"type": "uint256"
						}
					],
					"stateMutability": "pure",
					"type": "function"
				},
				{
					"inputs": [],
					"name": "testFunction2",
					"outputs": [
						{
							"internalType": "uint256",
							"name": "",
							"type": "uint256"
						}
					],
					"stateMutability": "view",
					"type": "function"
				}
			],
			"devdoc": {
				"kind": "dev",
				"methods": {},
				"version": 1
			},
			"evm": {
				"assembly": "    /* \"contracts/MyFunctions.sol\":61:761  contract MyFunctions {... */\n  mstore(0x40, 0x80)\n    /* \"contracts/MyFunctions.sol\":120:171  constructor() {... */\n  callvalue\n  dup1\n  iszero\n  tag_1\n  jumpi\n  0x00\n  dup1\n  revert\ntag_1:\n  pop\n    /* \"contracts/MyFunctions.sol\":153:163  msg.sender */\n  caller\n    /* \"contracts/MyFunctions.sol\":145:150  owner */\n  0x00\n  dup1\n    /* \"contracts/MyFunctions.sol\":145:163  owner = msg.sender */\n  0x0100\n  exp\n  dup2\n  sload\n  dup2\n  0xffffffffffffffffffffffffffffffffffffffff\n  mul\n  not\n  and\n  swap1\n  dup4\n  0xffffffffffffffffffffffffffffffffffffffff\n  and\n  mul\n  or\n  swap1\n  sstore\n  pop\n    /* \"contracts/MyFunctions.sol\":61:761  contract MyFunctions {... */\n  dataSize(sub_0)\n  dup1\n  dataOffset(sub_0)\n  0x00\n  codecopy\n  0x00\n  return\nstop\n\nsub_0: assembly {\n        /* \"contracts/MyFunctions.sol\":61:761  contract MyFunctions {... */\n      mstore(0x40, 0x80)\n      callvalue\n      dup1\n      iszero\n      tag_1\n      jumpi\n      0x00\n      dup1\n      revert\n    tag_1:\n      pop\n      jumpi(tag_2, lt(calldatasize, 0x04))\n      shr(0xe0, calldataload(0x00))\n      dup1\n      0x3c289b53\n      eq\n      tag_3\n      jumpi\n      dup1\n      0xb8fb063e\n      eq\n      tag_4\n      jumpi\n    tag_2:\n      0x00\n      dup1\n      revert\n        /* \"contracts/MyFunctions.sol\":557:646  function testFunction1() public pure returns (uint) {... */\n    tag_3:\n      tag_5\n      tag_6\n      jump\t// in\n    tag_5:\n      mload(0x40)\n      tag_7\n      swap2\n      swap1\n      tag_8\n      jump\t// in\n    tag_7:\n      mload(0x40)\n      dup1\n      swap2\n      sub\n      swap1\n      return\n        /* \"contracts/MyFunctions.sol\":654:758  function testFunction2() public view onlyOwner returns (uint) {... */\n    tag_4:\n      tag_9\n      tag_10\n      jump\t// in\n    tag_9:\n      mload(0x40)\n      tag_11\n      swap2\n      swap1\n      tag_8\n      jump\t// in\n    tag_11:\n      mload(0x40)\n      dup1\n      swap2\n      sub\n      swap1\n      return\n        /* \"contracts/MyFunctions.sol\":557:646  function testFunction1() public pure returns (uint) {... */\n    tag_6:\n        /* \"contracts/MyFunctions.sol\":603:607  uint */\n      0x00\n        /* \"contracts/MyFunctions.sol\":627:638  getResult() */\n      tag_13\n        /* \"contracts/MyFunctions.sol\":627:636  getResult */\n      tag_14\n        /* \"contracts/MyFunctions.sol\":627:638  getResult() */\n      jump\t// in\n    tag_13:\n        /* \"contracts/MyFunctions.sol\":620:638  return getResult() */\n      swap1\n      pop\n        /* \"contracts/MyFunctions.sol\":557:646  function testFunction1() public pure returns (uint) {... */\n      swap1\n      jump\t// out\n        /* \"contracts/MyFunctions.sol\":654:758  function testFunction2() public view onlyOwner returns (uint) {... */\n    tag_10:\n        /* \"contracts/MyFunctions.sol\":710:714  uint */\n      0x00\n        /* \"contracts/MyFunctions.sol\":412:417  owner */\n      dup1\n      0x00\n      swap1\n      sload\n      swap1\n      0x0100\n      exp\n      swap1\n      div\n      0xffffffffffffffffffffffffffffffffffffffff\n      and\n        /* \"contracts/MyFunctions.sol\":398:417  msg.sender == owner */\n      0xffffffffffffffffffffffffffffffffffffffff\n      and\n        /* \"contracts/MyFunctions.sol\":398:408  msg.sender */\n      caller\n        /* \"contracts/MyFunctions.sol\":398:417  msg.sender == owner */\n      0xffffffffffffffffffffffffffffffffffffffff\n      and\n      eq\n        /* \"contracts/MyFunctions.sol\":390:418  require(msg.sender == owner) */\n      tag_16\n      jumpi\n      0x00\n      dup1\n      revert\n    tag_16:\n        /* \"contracts/MyFunctions.sol\":734:750  getResult2(2, 4) */\n      tag_18\n        /* \"contracts/MyFunctions.sol\":745:746  2 */\n      0x02\n        /* \"contracts/MyFunctions.sol\":748:749  4 */\n      0x04\n        /* \"contracts/MyFunctions.sol\":734:744  getResult2 */\n      tag_19\n        /* \"contracts/MyFunctions.sol\":734:750  getResult2(2, 4) */\n      jump\t// in\n    tag_18:\n        /* \"contracts/MyFunctions.sol\":727:750  return getResult2(2, 4) */\n      swap1\n      pop\n        /* \"contracts/MyFunctions.sol\":654:758  function testFunction2() public view onlyOwner returns (uint) {... */\n      swap1\n      jump\t// out\n        /* \"contracts/MyFunctions.sol\":179:352  function getResult() internal pure returns (uint) {... */\n    tag_14:\n        /* \"contracts/MyFunctions.sol\":223:227  uint */\n      0x00\n        /* \"contracts/MyFunctions.sol\":240:246  uint a */\n      dup1\n        /* \"contracts/MyFunctions.sol\":249:250  1 */\n      0x01\n        /* \"contracts/MyFunctions.sol\":240:250  uint a = 1 */\n      swap1\n      pop\n        /* \"contracts/MyFunctions.sol\":279:285  uint b */\n      0x00\n        /* \"contracts/MyFunctions.sol\":288:290  10 */\n      0x0a\n        /* \"contracts/MyFunctions.sol\":279:290  uint b = 10 */\n      swap1\n      pop\n        /* \"contracts/MyFunctions.sol\":301:312  uint result */\n      0x00\n        /* \"contracts/MyFunctions.sol\":319:320  b */\n      dup2\n        /* \"contracts/MyFunctions.sol\":315:316  a */\n      dup4\n        /* \"contracts/MyFunctions.sol\":315:320  a + b */\n      tag_21\n      swap2\n      swap1\n      tag_22\n      jump\t// in\n    tag_21:\n        /* \"contracts/MyFunctions.sol\":301:320  uint result = a + b */\n      swap1\n      pop\n        /* \"contracts/MyFunctions.sol\":338:344  result */\n      dup1\n        /* \"contracts/MyFunctions.sol\":331:344  return result */\n      swap4\n      pop\n      pop\n      pop\n      pop\n        /* \"contracts/MyFunctions.sol\":179:352  function getResult() internal pure returns (uint) {... */\n      swap1\n      jump\t// out\n        /* \"contracts/MyFunctions.sol\":446:545  function getResult2(uint _x, uint _y) internal pure returns(uint) {... */\n    tag_19:\n        /* \"contracts/MyFunctions.sol\":506:510  uint */\n      0x00\n        /* \"contracts/MyFunctions.sol\":535:537  _y */\n      dup2\n        /* \"contracts/MyFunctions.sol\":530:532  _x */\n      dup4\n        /* \"contracts/MyFunctions.sol\":530:537  _x + _y */\n      tag_24\n      swap2\n      swap1\n      tag_22\n      jump\t// in\n    tag_24:\n        /* \"contracts/MyFunctions.sol\":523:537  return _x + _y */\n      swap1\n      pop\n        /* \"contracts/MyFunctions.sol\":446:545  function getResult2(uint _x, uint _y) internal pure returns(uint) {... */\n      swap3\n      swap2\n      pop\n      pop\n      jump\t// out\n        /* \"#utility.yul\":7:84   */\n    tag_25:\n        /* \"#utility.yul\":44:51   */\n      0x00\n        /* \"#utility.yul\":73:78   */\n      dup2\n        /* \"#utility.yul\":62:78   */\n      swap1\n      pop\n        /* \"#utility.yul\":7:84   */\n      swap2\n      swap1\n      pop\n      jump\t// out\n        /* \"#utility.yul\":90:208   */\n    tag_26:\n        /* \"#utility.yul\":177:201   */\n      tag_31\n        /* \"#utility.yul\":195:200   */\n      dup2\n        /* \"#utility.yul\":177:201   */\n      tag_25\n      jump\t// in\n    tag_31:\n        /* \"#utility.yul\":172:175   */\n      dup3\n        /* \"#utility.yul\":165:202   */\n      mstore\n        /* \"#utility.yul\":90:208   */\n      pop\n      pop\n      jump\t// out\n        /* \"#utility.yul\":214:436   */\n    tag_8:\n        /* \"#utility.yul\":307:311   */\n      0x00\n        /* \"#utility.yul\":345:347   */\n      0x20\n        /* \"#utility.yul\":334:343   */\n      dup3\n        /* \"#utility.yul\":330:348   */\n      add\n        /* \"#utility.yul\":322:348   */\n      swap1\n      pop\n        /* \"#utility.yul\":358:429   */\n      tag_33\n        /* \"#utility.yul\":426:427   */\n      0x00\n        /* \"#utility.yul\":415:424   */\n      dup4\n        /* \"#utility.yul\":411:428   */\n      add\n        /* \"#utility.yul\":402:408   */\n      dup5\n        /* \"#utility.yul\":358:429   */\n      tag_26\n      jump\t// in\n    tag_33:\n        /* \"#utility.yul\":214:436   */\n      swap3\n      swap2\n      pop\n      pop\n      jump\t// out\n        /* \"#utility.yul\":442:622   */\n    tag_27:\n        /* \"#utility.yul\":490:567   */\n      0x4e487b7100000000000000000000000000000000000000000000000000000000\n        /* \"#utility.yul\":487:488   */\n      0x00\n        /* \"#utility.yul\":480:568   */\n      mstore\n        /* \"#utility.yul\":587:591   */\n      0x11\n        /* \"#utility.yul\":584:585   */\n      0x04\n        /* \"#utility.yul\":577:592   */\n      mstore\n        /* \"#utility.yul\":611:615   */\n      0x24\n        /* \"#utility.yul\":608:609   */\n      0x00\n        /* \"#utility.yul\":601:616   */\n      revert\n        /* \"#utility.yul\":628:933   */\n    tag_22:\n        /* \"#utility.yul\":668:671   */\n      0x00\n        /* \"#utility.yul\":687:707   */\n      tag_36\n        /* \"#utility.yul\":705:706   */\n      dup3\n        /* \"#utility.yul\":687:707   */\n      tag_25\n      jump\t// in\n    tag_36:\n        /* \"#utility.yul\":682:707   */\n      swap2\n      pop\n        /* \"#utility.yul\":721:741   */\n      tag_37\n        /* \"#utility.yul\":739:740   */\n      dup4\n        /* \"#utility.yul\":721:741   */\n      tag_25\n      jump\t// in\n    tag_37:\n        /* \"#utility.yul\":716:741   */\n      swap3\n      pop\n        /* \"#utility.yul\":875:876   */\n      dup3\n        /* \"#utility.yul\":807:873   */\n      0xffffffffffffffffffffffffffffffffffffffffffffffffffffffffffffffff\n        /* \"#utility.yul\":803:877   */\n      sub\n        /* \"#utility.yul\":800:801   */\n      dup3\n        /* \"#utility.yul\":797:878   */\n      gt\n        /* \"#utility.yul\":794:901   */\n      iszero\n      tag_38\n      jumpi\n        /* \"#utility.yul\":881:899   */\n      tag_39\n      tag_27\n      jump\t// in\n    tag_39:\n        /* \"#utility.yul\":794:901   */\n    tag_38:\n        /* \"#utility.yul\":925:926   */\n      dup3\n        /* \"#utility.yul\":922:923   */\n      dup3\n        /* \"#utility.yul\":918:927   */\n      add\n        /* \"#utility.yul\":911:927   */\n      swap1\n      pop\n        /* \"#utility.yul\":628:933   */\n      swap3\n      swap2\n      pop\n      pop\n      jump\t// out\n\n    auxdata: 0xa26469706673582212209330234c5915570356b7d1a8239628862ea6de447386dd30b53cbb948591842364736f6c634300080d0033\n}\n",
				"bytecode": {
					"linkReferences": {},
					"object": "608060405234801561001057600080fd5b50336000806101000a81548173ffffffffffffffffffffffffffffffffffffffff021916908373ffffffffffffffffffffffffffffffffffffffff16021790555061021d806100606000396000f3fe608060405234801561001057600080fd5b50600436106100365760003560e01c80633c289b531461003b578063b8fb063e14610059575b600080fd5b610043610077565b6040516100509190610147565b60405180910390f35b610061610086565b60405161006e9190610147565b60405180910390f35b60006100816100f2565b905090565b60008060009054906101000a900473ffffffffffffffffffffffffffffffffffffffff1673ffffffffffffffffffffffffffffffffffffffff163373ffffffffffffffffffffffffffffffffffffffff16146100e157600080fd5b6100ed60026004610118565b905090565b600080600190506000600a90506000818361010d9190610191565b905080935050505090565b600081836101269190610191565b905092915050565b6000819050919050565b6101418161012e565b82525050565b600060208201905061015c6000830184610138565b92915050565b7f4e487b7100000000000000000000000000000000000000000000000000000000600052601160045260246000fd5b600061019c8261012e565b91506101a78361012e565b9250827fffffffffffffffffffffffffffffffffffffffffffffffffffffffffffffffff038211156101dc576101db610162565b5b82820190509291505056fea26469706673582212209330234c5915570356b7d1a8239628862ea6de447386dd30b53cbb948591842364736f6c634300080d0033",
					"opcodes": "PUSH1 0x80 PUSH1 0x40 MSTORE CALLVALUE DUP1 ISZERO PUSH2 0x10 JUMPI PUSH1 0x0 DUP1 REVERT JUMPDEST POP CALLER PUSH1 0x0 DUP1 PUSH2 0x100 EXP DUP2 SLOAD DUP2 PUSH20 0xFFFFFFFFFFFFFFFFFFFFFFFFFFFFFFFFFFFFFFFF MUL NOT AND SWAP1 DUP4 PUSH20 0xFFFFFFFFFFFFFFFFFFFFFFFFFFFFFFFFFFFFFFFF AND MUL OR SWAP1 SSTORE POP PUSH2 0x21D DUP1 PUSH2 0x60 PUSH1 0x0 CODECOPY PUSH1 0x0 RETURN INVALID PUSH1 0x80 PUSH1 0x40 MSTORE CALLVALUE DUP1 ISZERO PUSH2 0x10 JUMPI PUSH1 0x0 DUP1 REVERT JUMPDEST POP PUSH1 0x4 CALLDATASIZE LT PUSH2 0x36 JUMPI PUSH1 0x0 CALLDATALOAD PUSH1 0xE0 SHR DUP1 PUSH4 0x3C289B53 EQ PUSH2 0x3B JUMPI DUP1 PUSH4 0xB8FB063E EQ PUSH2 0x59 JUMPI JUMPDEST PUSH1 0x0 DUP1 REVERT JUMPDEST PUSH2 0x43 PUSH2 0x77 JUMP JUMPDEST PUSH1 0x40 MLOAD PUSH2 0x50 SWAP2 SWAP1 PUSH2 0x147 JUMP JUMPDEST PUSH1 0x40 MLOAD DUP1 SWAP2 SUB SWAP1 RETURN JUMPDEST PUSH2 0x61 PUSH2 0x86 JUMP JUMPDEST PUSH1 0x40 MLOAD PUSH2 0x6E SWAP2 SWAP1 PUSH2 0x147 JUMP JUMPDEST PUSH1 0x40 MLOAD DUP1 SWAP2 SUB SWAP1 RETURN JUMPDEST PUSH1 0x0 PUSH2 0x81 PUSH2 0xF2 JUMP JUMPDEST SWAP1 POP SWAP1 JUMP JUMPDEST PUSH1 0x0 DUP1 PUSH1 0x0 SWAP1 SLOAD SWAP1 PUSH2 0x100 EXP SWAP1 DIV PUSH20 0xFFFFFFFFFFFFFFFFFFFFFFFFFFFFFFFFFFFFFFFF AND PUSH20 0xFFFFFFFFFFFFFFFFFFFFFFFFFFFFFFFFFFFFFFFF AND CALLER PUSH20 0xFFFFFFFFFFFFFFFFFFFFFFFFFFFFFFFFFFFFFFFF AND EQ PUSH2 0xE1 JUMPI PUSH1 0x0 DUP1 REVERT JUMPDEST PUSH2 0xED PUSH1 0x2 PUSH1 0x4 PUSH2 0x118 JUMP JUMPDEST SWAP1 POP SWAP1 JUMP JUMPDEST PUSH1 0x0 DUP1 PUSH1 0x1 SWAP1 POP PUSH1 0x0 PUSH1 0xA SWAP1 POP PUSH1 0x0 DUP2 DUP4 PUSH2 0x10D SWAP2 SWAP1 PUSH2 0x191 JUMP JUMPDEST SWAP1 POP DUP1 SWAP4 POP POP POP POP SWAP1 JUMP JUMPDEST PUSH1 0x0 DUP2 DUP4 PUSH2 0x126 SWAP2 SWAP1 PUSH2 0x191 JUMP JUMPDEST SWAP1 POP SWAP3 SWAP2 POP POP JUMP JUMPDEST PUSH1 0x0 DUP2 SWAP1 POP SWAP2 SWAP1 POP JUMP JUMPDEST PUSH2 0x141 DUP2 PUSH2 0x12E JUMP JUMPDEST DUP3 MSTORE POP POP JUMP JUMPDEST PUSH1 0x0 PUSH1 0x20 DUP3 ADD SWAP1 POP PUSH2 0x15C PUSH1 0x0 DUP4 ADD DUP5 PUSH2 0x138 JUMP JUMPDEST SWAP3 SWAP2 POP POP JUMP JUMPDEST PUSH32 0x4E487B7100000000000000000000000000000000000000000000000000000000 PUSH1 0x0 MSTORE PUSH1 0x11 PUSH1 0x4 MSTORE PUSH1 0x24 PUSH1 0x0 REVERT JUMPDEST PUSH1 0x0 PUSH2 0x19C DUP3 PUSH2 0x12E JUMP JUMPDEST SWAP2 POP PUSH2 0x1A7 DUP4 PUSH2 0x12E JUMP JUMPDEST SWAP3 POP DUP3 PUSH32 0xFFFFFFFFFFFFFFFFFFFFFFFFFFFFFFFFFFFFFFFFFFFFFFFFFFFFFFFFFFFFFFFF SUB DUP3 GT ISZERO PUSH2 0x1DC JUMPI PUSH2 0x1DB PUSH2 0x162 JUMP JUMPDEST JUMPDEST DUP3 DUP3 ADD SWAP1 POP SWAP3 SWAP2 POP POP JUMP INVALID LOG2 PUSH5 0x6970667358 0x22 SLT KECCAK256 SWAP4 ADDRESS 0x23 0x4C MSIZE ISZERO JUMPI SUB JUMP 0xB7 0xD1 0xA8 0x23 SWAP7 0x28 DUP7 0x2E 0xA6 0xDE DIFFICULTY PUSH20 0x86DD30B53CBB948591842364736F6C634300080D STOP CALLER "
				},
				"gasEstimates": {
					"creation": {
						"codeDepositCost": "108200",
						"executionCost": "24419",
						"totalCost": "132619"
					},
					"external": {
						"testFunction1()": "infinite",
						"testFunction2()": "infinite"
					},
					"internal": {
						"getResult()": "infinite",
						"getResult2(uint256,uint256)": "infinite"
					}
				},
				"methodIdentifiers": {
					"testFunction1()": "3c289b53",
					"testFunction2()": "b8fb063e"
				}
			},
			"storageLayout": {
				"storage": [
					{
						"astId": 3,
						"contract": "contracts/MyFunctions.sol:MyFunctions",
						"label": "owner",
						"offset": 0,
						"slot": "0",
						"type": "t_address"
					}
				],
				"types": {
					"t_address": {
						"encoding": "inplace",
						"label": "address",
						"numberOfBytes": "20"
					}
				}
			},
			"userdoc": {
				"kind": "user",
				"methods": {},
				"version": 1
			}
		}
	}
}