{
	"contracts/MyFunctions.sol": {
		"MyFunctions": {
			"abi": [
				{
					"inputs": [],
					"stateMutability": "nonpayable",
					"type": "constructor"
				},
				{
					"inputs": [],
					"name": "testFunction1",
					"outputs": [
						{
							"internalType": "uint256",
							"name": "",
							"type": "uint256"
						}
					],
					"stateMutability": "pure",
					"type": "function"
				},
				{
					"inputs": [
						{
							"internalType": "uint256",
							"name": "_x",
							"type": "uint256"
						},
						{
							"internalType": "uint256",
							"name": "_y",
							"type": "uint256"
						}
					],
					"name": "testFunction2",
					"outputs": [
						{
							"internalType": "uint256",
							"name": "",
							"type": "uint256"
						}
					],
					"stateMutability": "view",
					"type": "function"
				}
			],
			"devdoc": {
				"kind": "dev",
				"methods": {},
				"version": 1
			},
			"evm": {
				"assembly": "    /* \"contracts/MyFunctions.sol\":61:779  contract MyFunctions {... */\n  mstore(0x40, 0x80)\n    /* \"contracts/MyFunctions.sol\":120:171  constructor() {... */\n  callvalue\n  dup1\n  iszero\n  tag_1\n  jumpi\n  0x00\n  dup1\n  revert\ntag_1:\n  pop\n    /* \"contracts/MyFunctions.sol\":153:163  msg.sender */\n  caller\n    /* \"contracts/MyFunctions.sol\":145:150  owner */\n  0x00\n  dup1\n    /* \"contracts/MyFunctions.sol\":145:163  owner = msg.sender */\n  0x0100\n  exp\n  dup2\n  sload\n  dup2\n  0xffffffffffffffffffffffffffffffffffffffff\n  mul\n  not\n  and\n  swap1\n  dup4\n  0xffffffffffffffffffffffffffffffffffffffff\n  and\n  mul\n  or\n  swap1\n  sstore\n  pop\n    /* \"contracts/MyFunctions.sol\":61:779  contract MyFunctions {... */\n  dataSize(sub_0)\n  dup1\n  dataOffset(sub_0)\n  0x00\n  codecopy\n  0x00\n  return\nstop\n\nsub_0: assembly {\n        /* \"contracts/MyFunctions.sol\":61:779  contract MyFunctions {... */\n      mstore(0x40, 0x80)\n      callvalue\n      dup1\n      iszero\n      tag_1\n      jumpi\n      0x00\n      dup1\n      revert\n    tag_1:\n      pop\n      jumpi(tag_2, lt(calldatasize, 0x04))\n      shr(0xe0, calldataload(0x00))\n      dup1\n      0x3c289b53\n      eq\n      tag_3\n      jumpi\n      dup1\n      0x4ec66b34\n      eq\n      tag_4\n      jumpi\n    tag_2:\n      0x00\n      dup1\n      revert\n        /* \"contracts/MyFunctions.sol\":557:646  function testFunction1() public pure returns (uint) {... */\n    tag_3:\n      tag_5\n      tag_6\n      jump\t// in\n    tag_5:\n      mload(0x40)\n      tag_7\n      swap2\n      swap1\n      tag_8\n      jump\t// in\n    tag_7:\n      mload(0x40)\n      dup1\n      swap2\n      sub\n      swap1\n      return\n        /* \"contracts/MyFunctions.sol\":654:776  function testFunction2(uint _x, uint _y) public view onlyOwner returns (uint) {... */\n    tag_4:\n      tag_9\n      0x04\n      dup1\n      calldatasize\n      sub\n      dup2\n      add\n      swap1\n      tag_10\n      swap2\n      swap1\n      tag_11\n      jump\t// in\n    tag_10:\n      tag_12\n      jump\t// in\n    tag_9:\n      mload(0x40)\n      tag_13\n      swap2\n      swap1\n      tag_8\n      jump\t// in\n    tag_13:\n      mload(0x40)\n      dup1\n      swap2\n      sub\n      swap1\n      return\n        /* \"contracts/MyFunctions.sol\":557:646  function testFunction1() public pure returns (uint) {... */\n    tag_6:\n        /* \"contracts/MyFunctions.sol\":603:607  uint */\n      0x00\n        /* \"contracts/MyFunctions.sol\":627:638  getResult() */\n      tag_15\n        /* \"contracts/MyFunctions.sol\":627:636  getResult */\n      tag_16\n        /* \"contracts/MyFunctions.sol\":627:638  getResult() */\n      jump\t// in\n    tag_15:\n        /* \"contracts/MyFunctions.sol\":620:638  return getResult() */\n      swap1\n      pop\n        /* \"contracts/MyFunctions.sol\":557:646  function testFunction1() public pure returns (uint) {... */\n      swap1\n      jump\t// out\n        /* \"contracts/MyFunctions.sol\":654:776  function testFunction2(uint _x, uint _y) public view onlyOwner returns (uint) {... */\n    tag_12:\n        /* \"contracts/MyFunctions.sol\":726:730  uint */\n      0x00\n        /* \"contracts/MyFunctions.sol\":412:417  owner */\n      dup1\n      0x00\n      swap1\n      sload\n      swap1\n      0x0100\n      exp\n      swap1\n      div\n      0xffffffffffffffffffffffffffffffffffffffff\n      and\n        /* \"contracts/MyFunctions.sol\":398:417  msg.sender == owner */\n      0xffffffffffffffffffffffffffffffffffffffff\n      and\n        /* \"contracts/MyFunctions.sol\":398:408  msg.sender */\n      caller\n        /* \"contracts/MyFunctions.sol\":398:417  msg.sender == owner */\n      0xffffffffffffffffffffffffffffffffffffffff\n      and\n      eq\n        /* \"contracts/MyFunctions.sol\":390:418  require(msg.sender == owner) */\n      tag_18\n      jumpi\n      0x00\n      dup1\n      revert\n    tag_18:\n        /* \"contracts/MyFunctions.sol\":750:768  getResult2(_x, _y) */\n      tag_20\n        /* \"contracts/MyFunctions.sol\":761:763  _x */\n      dup4\n        /* \"contracts/MyFunctions.sol\":765:767  _y */\n      dup4\n        /* \"contracts/MyFunctions.sol\":750:760  getResult2 */\n      tag_21\n        /* \"contracts/MyFunctions.sol\":750:768  getResult2(_x, _y) */\n      jump\t// in\n    tag_20:\n        /* \"contracts/MyFunctions.sol\":743:768  return getResult2(_x, _y) */\n      swap1\n      pop\n        /* \"contracts/MyFunctions.sol\":654:776  function testFunction2(uint _x, uint _y) public view onlyOwner returns (uint) {... */\n      swap3\n      swap2\n      pop\n      pop\n      jump\t// out\n        /* \"contracts/MyFunctions.sol\":179:352  function getResult() internal pure returns (uint) {... */\n    tag_16:\n        /* \"contracts/MyFunctions.sol\":223:227  uint */\n      0x00\n        /* \"contracts/MyFunctions.sol\":240:246  uint a */\n      dup1\n        /* \"contracts/MyFunctions.sol\":249:250  1 */\n      0x01\n        /* \"contracts/MyFunctions.sol\":240:250  uint a = 1 */\n      swap1\n      pop\n        /* \"contracts/MyFunctions.sol\":279:285  uint b */\n      0x00\n        /* \"contracts/MyFunctions.sol\":288:290  10 */\n      0x0a\n        /* \"contracts/MyFunctions.sol\":279:290  uint b = 10 */\n      swap1\n      pop\n        /* \"contracts/MyFunctions.sol\":301:312  uint result */\n      0x00\n        /* \"contracts/MyFunctions.sol\":319:320  b */\n      dup2\n        /* \"contracts/MyFunctions.sol\":315:316  a */\n      dup4\n        /* \"contracts/MyFunctions.sol\":315:320  a + b */\n      tag_23\n      swap2\n      swap1\n      tag_24\n      jump\t// in\n    tag_23:\n        /* \"contracts/MyFunctions.sol\":301:320  uint result = a + b */\n      swap1\n      pop\n        /* \"contracts/MyFunctions.sol\":338:344  result */\n      dup1\n        /* \"contracts/MyFunctions.sol\":331:344  return result */\n      swap4\n      pop\n      pop\n      pop\n      pop\n        /* \"contracts/MyFunctions.sol\":179:352  function getResult() internal pure returns (uint) {... */\n      swap1\n      jump\t// out\n        /* \"contracts/MyFunctions.sol\":446:545  function getResult2(uint _x, uint _y) internal pure returns(uint) {... */\n    tag_21:\n        /* \"contracts/MyFunctions.sol\":506:510  uint */\n      0x00\n        /* \"contracts/MyFunctions.sol\":535:537  _y */\n      dup2\n        /* \"contracts/MyFunctions.sol\":530:532  _x */\n      dup4\n        /* \"contracts/MyFunctions.sol\":530:537  _x + _y */\n      tag_26\n      swap2\n      swap1\n      tag_24\n      jump\t// in\n    tag_26:\n        /* \"contracts/MyFunctions.sol\":523:537  return _x + _y */\n      swap1\n      pop\n        /* \"contracts/MyFunctions.sol\":446:545  function getResult2(uint _x, uint _y) internal pure returns(uint) {... */\n      swap3\n      swap2\n      pop\n      pop\n      jump\t// out\n        /* \"#utility.yul\":7:84   */\n    tag_27:\n        /* \"#utility.yul\":44:51   */\n      0x00\n        /* \"#utility.yul\":73:78   */\n      dup2\n        /* \"#utility.yul\":62:78   */\n      swap1\n      pop\n        /* \"#utility.yul\":7:84   */\n      swap2\n      swap1\n      pop\n      jump\t// out\n        /* \"#utility.yul\":90:208   */\n    tag_28:\n        /* \"#utility.yul\":177:201   */\n      tag_38\n        /* \"#utility.yul\":195:200   */\n      dup2\n        /* \"#utility.yul\":177:201   */\n      tag_27\n      jump\t// in\n    tag_38:\n        /* \"#utility.yul\":172:175   */\n      dup3\n        /* \"#utility.yul\":165:202   */\n      mstore\n        /* \"#utility.yul\":90:208   */\n      pop\n      pop\n      jump\t// out\n        /* \"#utility.yul\":214:436   */\n    tag_8:\n        /* \"#utility.yul\":307:311   */\n      0x00\n        /* \"#utility.yul\":345:347   */\n      0x20\n        /* \"#utility.yul\":334:343   */\n      dup3\n        /* \"#utility.yul\":330:348   */\n      add\n        /* \"#utility.yul\":322:348   */\n      swap1\n      pop\n        /* \"#utility.yul\":358:429   */\n      tag_40\n        /* \"#utility.yul\":426:427   */\n      0x00\n        /* \"#utility.yul\":415:424   */\n      dup4\n        /* \"#utility.yul\":411:428   */\n      add\n        /* \"#utility.yul\":402:408   */\n      dup5\n        /* \"#utility.yul\":358:429   */\n      tag_28\n      jump\t// in\n    tag_40:\n        /* \"#utility.yul\":214:436   */\n      swap3\n      swap2\n      pop\n      pop\n      jump\t// out\n        /* \"#utility.yul\":523:640   */\n    tag_30:\n        /* \"#utility.yul\":632:633   */\n      0x00\n        /* \"#utility.yul\":629:630   */\n      dup1\n        /* \"#utility.yul\":622:634   */\n      revert\n        /* \"#utility.yul\":769:891   */\n    tag_32:\n        /* \"#utility.yul\":842:866   */\n      tag_45\n        /* \"#utility.yul\":860:865   */\n      dup2\n        /* \"#utility.yul\":842:866   */\n      tag_27\n      jump\t// in\n    tag_45:\n        /* \"#utility.yul\":835:840   */\n      dup2\n        /* \"#utility.yul\":832:867   */\n      eq\n        /* \"#utility.yul\":822:885   */\n      tag_46\n      jumpi\n        /* \"#utility.yul\":881:882   */\n      0x00\n        /* \"#utility.yul\":878:879   */\n      dup1\n        /* \"#utility.yul\":871:883   */\n      revert\n        /* \"#utility.yul\":822:885   */\n    tag_46:\n        /* \"#utility.yul\":769:891   */\n      pop\n      jump\t// out\n        /* \"#utility.yul\":897:1036   */\n    tag_33:\n        /* \"#utility.yul\":943:948   */\n      0x00\n        /* \"#utility.yul\":981:987   */\n      dup2\n        /* \"#utility.yul\":968:988   */\n      calldataload\n        /* \"#utility.yul\":959:988   */\n      swap1\n      pop\n        /* \"#utility.yul\":997:1030   */\n      tag_48\n        /* \"#utility.yul\":1024:1029   */\n      dup2\n        /* \"#utility.yul\":997:1030   */\n      tag_32\n      jump\t// in\n    tag_48:\n        /* \"#utility.yul\":897:1036   */\n      swap3\n      swap2\n      pop\n      pop\n      jump\t// out\n        /* \"#utility.yul\":1042:1516   */\n    tag_11:\n        /* \"#utility.yul\":1110:1116   */\n      0x00\n        /* \"#utility.yul\":1118:1124   */\n      dup1\n        /* \"#utility.yul\":1167:1169   */\n      0x40\n        /* \"#utility.yul\":1155:1164   */\n      dup4\n        /* \"#utility.yul\":1146:1153   */\n      dup6\n        /* \"#utility.yul\":1142:1165   */\n      sub\n        /* \"#utility.yul\":1138:1170   */\n      slt\n        /* \"#utility.yul\":1135:1254   */\n      iszero\n      tag_50\n      jumpi\n        /* \"#utility.yul\":1173:1252   */\n      tag_51\n      tag_30\n      jump\t// in\n    tag_51:\n        /* \"#utility.yul\":1135:1254   */\n    tag_50:\n        /* \"#utility.yul\":1293:1294   */\n      0x00\n        /* \"#utility.yul\":1318:1371   */\n      tag_52\n        /* \"#utility.yul\":1363:1370   */\n      dup6\n        /* \"#utility.yul\":1354:1360   */\n      dup3\n        /* \"#utility.yul\":1343:1352   */\n      dup7\n        /* \"#utility.yul\":1339:1361   */\n      add\n        /* \"#utility.yul\":1318:1371   */\n      tag_33\n      jump\t// in\n    tag_52:\n        /* \"#utility.yul\":1308:1371   */\n      swap3\n      pop\n        /* \"#utility.yul\":1264:1381   */\n      pop\n        /* \"#utility.yul\":1420:1422   */\n      0x20\n        /* \"#utility.yul\":1446:1499   */\n      tag_53\n        /* \"#utility.yul\":1491:1498   */\n      dup6\n        /* \"#utility.yul\":1482:1488   */\n      dup3\n        /* \"#utility.yul\":1471:1480   */\n      dup7\n        /* \"#utility.yul\":1467:1489   */\n      add\n        /* \"#utility.yul\":1446:1499   */\n      tag_33\n      jump\t// in\n    tag_53:\n        /* \"#utility.yul\":1436:1499   */\n      swap2\n      pop\n        /* \"#utility.yul\":1391:1509   */\n      pop\n        /* \"#utility.yul\":1042:1516   */\n      swap3\n      pop\n      swap3\n      swap1\n      pop\n      jump\t// out\n        /* \"#utility.yul\":1522:1702   */\n    tag_34:\n        /* \"#utility.yul\":1570:1647   */\n      0x4e487b7100000000000000000000000000000000000000000000000000000000\n        /* \"#utility.yul\":1567:1568   */\n      0x00\n        /* \"#utility.yul\":1560:1648   */\n      mstore\n        /* \"#utility.yul\":1667:1671   */\n      0x11\n        /* \"#utility.yul\":1664:1665   */\n      0x04\n        /* \"#utility.yul\":1657:1672   */\n      mstore\n        /* \"#utility.yul\":1691:1695   */\n      0x24\n        /* \"#utility.yul\":1688:1689   */\n      0x00\n        /* \"#utility.yul\":1681:1696   */\n      revert\n        /* \"#utility.yul\":1708:2013   */\n    tag_24:\n        /* \"#utility.yul\":1748:1751   */\n      0x00\n        /* \"#utility.yul\":1767:1787   */\n      tag_56\n        /* \"#utility.yul\":1785:1786   */\n      dup3\n        /* \"#utility.yul\":1767:1787   */\n      tag_27\n      jump\t// in\n    tag_56:\n        /* \"#utility.yul\":1762:1787   */\n      swap2\n      pop\n        /* \"#utility.yul\":1801:1821   */\n      tag_57\n        /* \"#utility.yul\":1819:1820   */\n      dup4\n        /* \"#utility.yul\":1801:1821   */\n      tag_27\n      jump\t// in\n    tag_57:\n        /* \"#utility.yul\":1796:1821   */\n      swap3\n      pop\n        /* \"#utility.yul\":1955:1956   */\n      dup3\n        /* \"#utility.yul\":1887:1953   */\n      0xffffffffffffffffffffffffffffffffffffffffffffffffffffffffffffffff\n        /* \"#utility.yul\":1883:1957   */\n      sub\n        /* \"#utility.yul\":1880:1881   */\n      dup3\n        /* \"#utility.yul\":1877:1958   */\n      gt\n        /* \"#utility.yul\":1874:1981   */\n      iszero\n      tag_58\n      jumpi\n        /* \"#utility.yul\":1961:1979   */\n      tag_59\n      tag_34\n      jump\t// in\n    tag_59:\n        /* \"#utility.yul\":1874:1981   */\n    tag_58:\n        /* \"#utility.yul\":2005:2006   */\n      dup3\n        /* \"#utility.yul\":2002:2003   */\n      dup3\n        /* \"#utility.yul\":1998:2007   */\n      add\n        /* \"#utility.yul\":1991:2007   */\n      swap1\n      pop\n        /* \"#utility.yul\":1708:2013   */\n      swap3\n      swap2\n      pop\n      pop\n      jump\t// out\n\n    auxdata: 0xa2646970667358221220c5c5aece322ee6318c4c534f4e82d0edd56b45e02f4a38c384e271e2b74a7e1664736f6c634300080d0033\n}\n",
				"bytecode": {
					"linkReferences": {},
					"object": "608060405234801561001057600080fd5b50336000806101000a81548173ffffffffffffffffffffffffffffffffffffffff021916908373ffffffffffffffffffffffffffffffffffffffff1602179055506102a1806100606000396000f3fe608060405234801561001057600080fd5b50600436106100365760003560e01c80633c289b531461003b5780634ec66b3414610059575b600080fd5b610043610089565b604051610050919061015a565b60405180910390f35b610073600480360381019061006e91906101a6565b610098565b604051610080919061015a565b60405180910390f35b6000610093610105565b905090565b60008060009054906101000a900473ffffffffffffffffffffffffffffffffffffffff1673ffffffffffffffffffffffffffffffffffffffff163373ffffffffffffffffffffffffffffffffffffffff16146100f357600080fd5b6100fd838361012b565b905092915050565b600080600190506000600a9050600081836101209190610215565b905080935050505090565b600081836101399190610215565b905092915050565b6000819050919050565b61015481610141565b82525050565b600060208201905061016f600083018461014b565b92915050565b600080fd5b61018381610141565b811461018e57600080fd5b50565b6000813590506101a08161017a565b92915050565b600080604083850312156101bd576101bc610175565b5b60006101cb85828601610191565b92505060206101dc85828601610191565b9150509250929050565b7f4e487b7100000000000000000000000000000000000000000000000000000000600052601160045260246000fd5b600061022082610141565b915061022b83610141565b9250827fffffffffffffffffffffffffffffffffffffffffffffffffffffffffffffffff038211156102605761025f6101e6565b5b82820190509291505056fea2646970667358221220c5c5aece322ee6318c4c534f4e82d0edd56b45e02f4a38c384e271e2b74a7e1664736f6c634300080d0033",
					"opcodes": "PUSH1 0x80 PUSH1 0x40 MSTORE CALLVALUE DUP1 ISZERO PUSH2 0x10 JUMPI PUSH1 0x0 DUP1 REVERT JUMPDEST POP CALLER PUSH1 0x0 DUP1 PUSH2 0x100 EXP DUP2 SLOAD DUP2 PUSH20 0xFFFFFFFFFFFFFFFFFFFFFFFFFFFFFFFFFFFFFFFF MUL NOT AND SWAP1 DUP4 PUSH20 0xFFFFFFFFFFFFFFFFFFFFFFFFFFFFFFFFFFFFFFFF AND MUL OR SWAP1 SSTORE POP PUSH2 0x2A1 DUP1 PUSH2 0x60 PUSH1 0x0 CODECOPY PUSH1 0x0 RETURN INVALID PUSH1 0x80 PUSH1 0x40 MSTORE CALLVALUE DUP1 ISZERO PUSH2 0x10 JUMPI PUSH1 0x0 DUP1 REVERT JUMPDEST POP PUSH1 0x4 CALLDATASIZE LT PUSH2 0x36 JUMPI PUSH1 0x0 CALLDATALOAD PUSH1 0xE0 SHR DUP1 PUSH4 0x3C289B53 EQ PUSH2 0x3B JUMPI DUP1 PUSH4 0x4EC66B34 EQ PUSH2 0x59 JUMPI JUMPDEST PUSH1 0x0 DUP1 REVERT JUMPDEST PUSH2 0x43 PUSH2 0x89 JUMP JUMPDEST PUSH1 0x40 MLOAD PUSH2 0x50 SWAP2 SWAP1 PUSH2 0x15A JUMP JUMPDEST PUSH1 0x40 MLOAD DUP1 SWAP2 SUB SWAP1 RETURN JUMPDEST PUSH2 0x73 PUSH1 0x4 DUP1 CALLDATASIZE SUB DUP2 ADD SWAP1 PUSH2 0x6E SWAP2 SWAP1 PUSH2 0x1A6 JUMP JUMPDEST PUSH2 0x98 JUMP JUMPDEST PUSH1 0x40 MLOAD PUSH2 0x80 SWAP2 SWAP1 PUSH2 0x15A JUMP JUMPDEST PUSH1 0x40 MLOAD DUP1 SWAP2 SUB SWAP1 RETURN JUMPDEST PUSH1 0x0 PUSH2 0x93 PUSH2 0x105 JUMP JUMPDEST SWAP1 POP SWAP1 JUMP JUMPDEST PUSH1 0x0 DUP1 PUSH1 0x0 SWAP1 SLOAD SWAP1 PUSH2 0x100 EXP SWAP1 DIV PUSH20 0xFFFFFFFFFFFFFFFFFFFFFFFFFFFFFFFFFFFFFFFF AND PUSH20 0xFFFFFFFFFFFFFFFFFFFFFFFFFFFFFFFFFFFFFFFF AND CALLER PUSH20 0xFFFFFFFFFFFFFFFFFFFFFFFFFFFFFFFFFFFFFFFF AND EQ PUSH2 0xF3 JUMPI PUSH1 0x0 DUP1 REVERT JUMPDEST PUSH2 0xFD DUP4 DUP4 PUSH2 0x12B JUMP JUMPDEST SWAP1 POP SWAP3 SWAP2 POP POP JUMP JUMPDEST PUSH1 0x0 DUP1 PUSH1 0x1 SWAP1 POP PUSH1 0x0 PUSH1 0xA SWAP1 POP PUSH1 0x0 DUP2 DUP4 PUSH2 0x120 SWAP2 SWAP1 PUSH2 0x215 JUMP JUMPDEST SWAP1 POP DUP1 SWAP4 POP POP POP POP SWAP1 JUMP JUMPDEST PUSH1 0x0 DUP2 DUP4 PUSH2 0x139 SWAP2 SWAP1 PUSH2 0x215 JUMP JUMPDEST SWAP1 POP SWAP3 SWAP2 POP POP JUMP JUMPDEST PUSH1 0x0 DUP2 SWAP1 POP SWAP2 SWAP1 POP JUMP JUMPDEST PUSH2 0x154 DUP2 PUSH2 0x141 JUMP JUMPDEST DUP3 MSTORE POP POP JUMP JUMPDEST PUSH1 0x0 PUSH1 0x20 DUP3 ADD SWAP1 POP PUSH2 0x16F PUSH1 0x0 DUP4 ADD DUP5 PUSH2 0x14B JUMP JUMPDEST SWAP3 SWAP2 POP POP JUMP JUMPDEST PUSH1 0x0 DUP1 REVERT JUMPDEST PUSH2 0x183 DUP2 PUSH2 0x141 JUMP JUMPDEST DUP2 EQ PUSH2 0x18E JUMPI PUSH1 0x0 DUP1 REVERT JUMPDEST POP JUMP JUMPDEST PUSH1 0x0 DUP2 CALLDATALOAD SWAP1 POP PUSH2 0x1A0 DUP2 PUSH2 0x17A JUMP JUMPDEST SWAP3 SWAP2 POP POP JUMP JUMPDEST PUSH1 0x0 DUP1 PUSH1 0x40 DUP4 DUP6 SUB SLT ISZERO PUSH2 0x1BD JUMPI PUSH2 0x1BC PUSH2 0x175 JUMP JUMPDEST JUMPDEST PUSH1 0x0 PUSH2 0x1CB DUP6 DUP3 DUP7 ADD PUSH2 0x191 JUMP JUMPDEST SWAP3 POP POP PUSH1 0x20 PUSH2 0x1DC DUP6 DUP3 DUP7 ADD PUSH2 0x191 JUMP JUMPDEST SWAP2 POP POP SWAP3 POP SWAP3 SWAP1 POP JUMP JUMPDEST PUSH32 0x4E487B7100000000000000000000000000000000000000000000000000000000 PUSH1 0x0 MSTORE PUSH1 0x11 PUSH1 0x4 MSTORE PUSH1 0x24 PUSH1 0x0 REVERT JUMPDEST PUSH1 0x0 PUSH2 0x220 DUP3 PUSH2 0x141 JUMP JUMPDEST SWAP2 POP PUSH2 0x22B DUP4 PUSH2 0x141 JUMP JUMPDEST SWAP3 POP DUP3 PUSH32 0xFFFFFFFFFFFFFFFFFFFFFFFFFFFFFFFFFFFFFFFFFFFFFFFFFFFFFFFFFFFFFFFF SUB DUP3 GT ISZERO PUSH2 0x260 JUMPI PUSH2 0x25F PUSH2 0x1E6 JUMP JUMPDEST JUMPDEST DUP3 DUP3 ADD SWAP1 POP SWAP3 SWAP2 POP POP JUMP INVALID LOG2 PUSH5 0x6970667358 0x22 SLT KECCAK256 0xC5 0xC5 0xAE 0xCE ORIGIN 0x2E 0xE6 BALANCE DUP13 0x4C MSTORE8 0x4F 0x4E DUP3 0xD0 0xED 0xD5 PUSH12 0x45E02F4A38C384E271E2B74A PUSH31 0x1664736F6C634300080D003300000000000000000000000000000000000000 "
				},
				"gasEstimates": {
					"creation": {
						"codeDepositCost": "134600",
						"executionCost": "24449",
						"totalCost": "159049"
					},
					"external": {
						"testFunction1()": "infinite",
						"testFunction2(uint256,uint256)": "infinite"
					},
					"internal": {
						"getResult()": "infinite",
						"getResult2(uint256,uint256)": "infinite"
					}
				},
				"methodIdentifiers": {
					"testFunction1()": "3c289b53",
					"testFunction2(uint256,uint256)": "4ec66b34"
				}
			},
			"storageLayout": {
				"storage": [
					{
						"astId": 3,
						"contract": "contracts/MyFunctions.sol:MyFunctions",
						"label": "owner",
						"offset": 0,
						"slot": "0",
						"type": "t_address"
					}
				],
				"types": {
					"t_address": {
						"encoding": "inplace",
						"label": "address",
						"numberOfBytes": "20"
					}
				}
			},
			"userdoc": {
				"kind": "user",
				"methods": {},
				"version": 1
			}
		}
	}
}