{
	"contracts/Struct.sol": {
		"Struct": {
			"abi": [
				{
					"inputs": [
						{
							"internalType": "uint256",
							"name": "_indice",
							"type": "uint256"
						},
						{
							"internalType": "uint256",
							"name": "_idade",
							"type": "uint256"
						},
						{
							"internalType": "string",
							"name": "_nome",
							"type": "string"
						}
					],
					"name": "AtualizarPessoa",
					"outputs": [],
					"stateMutability": "nonpayable",
					"type": "function"
				},
				{
					"inputs": [
						{
							"internalType": "uint256",
							"name": "_indice",
							"type": "uint256"
						}
					],
					"name": "DeletarPessoa",
					"outputs": [],
					"stateMutability": "nonpayable",
					"type": "function"
				},
				{
					"inputs": [
						{
							"internalType": "uint256",
							"name": "_idade",
							"type": "uint256"
						},
						{
							"internalType": "string",
							"name": "_nome",
							"type": "string"
						}
					],
					"name": "InserirPessoas",
					"outputs": [],
					"stateMutability": "nonpayable",
					"type": "function"
				},
				{
					"inputs": [
						{
							"internalType": "uint256",
							"name": "_indice",
							"type": "uint256"
						}
					],
					"name": "ObterPessoa",
					"outputs": [
						{
							"internalType": "uint256",
							"name": "idade",
							"type": "uint256"
						},
						{
							"internalType": "string",
							"name": "nome",
							"type": "string"
						}
					],
					"stateMutability": "view",
					"type": "function"
				},
				{
					"inputs": [
						{
							"internalType": "string",
							"name": "_nome",
							"type": "string"
						}
					],
					"name": "ObterPessoaPeloNome",
					"outputs": [
						{
							"internalType": "uint256",
							"name": "idade",
							"type": "uint256"
						},
						{
							"internalType": "string",
							"name": "nome",
							"type": "string"
						}
					],
					"stateMutability": "view",
					"type": "function"
				},
				{
					"inputs": [],
					"name": "ObterPessoas",
					"outputs": [
						{
							"components": [
								{
									"internalType": "uint256",
									"name": "idade",
									"type": "uint256"
								},
								{
									"internalType": "string",
									"name": "nome",
									"type": "string"
								}
							],
							"internalType": "struct Struct.Pessoa[]",
							"name": "",
							"type": "tuple[]"
						}
					],
					"stateMutability": "view",
					"type": "function"
				},
				{
					"inputs": [],
					"name": "TotalDePessoas",
					"outputs": [
						{
							"internalType": "uint256",
							"name": "",
							"type": "uint256"
						}
					],
					"stateMutability": "view",
					"type": "function"
				}
			],
			"devdoc": {
				"kind": "dev",
				"methods": {},
				"version": 1
			},
			"evm": {
				"assembly": "    /* \"contracts/Struct.sol\":70:1533  contract Struct {... */\n  mstore(0x40, 0x80)\n  callvalue\n  dup1\n  iszero\n  tag_1\n  jumpi\n  0x00\n  dup1\n  revert\ntag_1:\n  pop\n  dataSize(sub_0)\n  dup1\n  dataOffset(sub_0)\n  0x00\n  codecopy\n  0x00\n  return\nstop\n\nsub_0: assembly {\n        /* \"contracts/Struct.sol\":70:1533  contract Struct {... */\n      mstore(0x40, 0x80)\n      callvalue\n      dup1\n      iszero\n      tag_1\n      jumpi\n      0x00\n      dup1\n      revert\n    tag_1:\n      pop\n      jumpi(tag_2, lt(calldatasize, 0x04))\n      shr(0xe0, calldataload(0x00))\n      dup1\n      0x53cee4c6\n      gt\n      tag_10\n      jumpi\n      dup1\n      0x53cee4c6\n      eq\n      tag_6\n      jumpi\n      dup1\n      0xaf6000d6\n      eq\n      tag_7\n      jumpi\n      dup1\n      0xefddcec0\n      eq\n      tag_8\n      jumpi\n      dup1\n      0xf6f8b021\n      eq\n      tag_9\n      jumpi\n      jump(tag_2)\n    tag_10:\n      dup1\n      0x403edd79\n      eq\n      tag_3\n      jumpi\n      dup1\n      0x40735fcc\n      eq\n      tag_4\n      jumpi\n      dup1\n      0x411f8c84\n      eq\n      tag_5\n      jumpi\n    tag_2:\n      0x00\n      dup1\n      revert\n        /* \"contracts/Struct.sol\":1098:1325  function AtualizarPessoa(uint _indice, uint _idade, string memory _nome) public {... */\n    tag_3:\n      tag_11\n      0x04\n      dup1\n      calldatasize\n      sub\n      dup2\n      add\n      swap1\n      tag_12\n      swap2\n      swap1\n      tag_13\n      jump\t// in\n    tag_12:\n      tag_14\n      jump\t// in\n    tag_11:\n      stop\n        /* \"contracts/Struct.sol\":196:320  function InserirPessoas(uint _idade, string memory _nome) public {... */\n    tag_4:\n      tag_15\n      0x04\n      dup1\n      calldatasize\n      sub\n      dup2\n      add\n      swap1\n      tag_16\n      swap2\n      swap1\n      tag_17\n      jump\t// in\n    tag_16:\n      tag_18\n      jump\t// in\n    tag_15:\n      stop\n        /* \"contracts/Struct.sol\":1333:1424  function DeletarPessoa(uint _indice) public {... */\n    tag_5:\n      tag_19\n      0x04\n      dup1\n      calldatasize\n      sub\n      dup2\n      add\n      swap1\n      tag_20\n      swap2\n      swap1\n      tag_21\n      jump\t// in\n    tag_20:\n      tag_22\n      jump\t// in\n    tag_19:\n      stop\n        /* \"contracts/Struct.sol\":435:617  function ObterPessoa(uint _indice) public view returns(uint idade, string memory nome) {... */\n    tag_6:\n      tag_23\n      0x04\n      dup1\n      calldatasize\n      sub\n      dup2\n      add\n      swap1\n      tag_24\n      swap2\n      swap1\n      tag_21\n      jump\t// in\n    tag_24:\n      tag_25\n      jump\t// in\n    tag_23:\n      mload(0x40)\n      tag_26\n      swap3\n      swap2\n      swap1\n      tag_27\n      jump\t// in\n    tag_26:\n      mload(0x40)\n      dup1\n      swap2\n      sub\n      swap1\n      return\n        /* \"contracts/Struct.sol\":328:427  function ObterPessoas() public view returns(Pessoa[] memory) {... */\n    tag_7:\n      tag_28\n      tag_29\n      jump\t// in\n    tag_28:\n      mload(0x40)\n      tag_30\n      swap2\n      swap1\n      tag_31\n      jump\t// in\n    tag_30:\n      mload(0x40)\n      dup1\n      swap2\n      sub\n      swap1\n      return\n        /* \"contracts/Struct.sol\":672:1090  function ObterPessoaPeloNome(string memory _nome) public view returns (uint idade, string memory nome) {... */\n    tag_8:\n      tag_32\n      0x04\n      dup1\n      calldatasize\n      sub\n      dup2\n      add\n      swap1\n      tag_33\n      swap2\n      swap1\n      tag_34\n      jump\t// in\n    tag_33:\n      tag_35\n      jump\t// in\n    tag_32:\n      mload(0x40)\n      tag_36\n      swap3\n      swap2\n      swap1\n      tag_27\n      jump\t// in\n    tag_36:\n      mload(0x40)\n      dup1\n      swap2\n      sub\n      swap1\n      return\n        /* \"contracts/Struct.sol\":1432:1530  function TotalDePessoas() public view returns (uint) {... */\n    tag_9:\n      tag_37\n      tag_38\n      jump\t// in\n    tag_37:\n      mload(0x40)\n      tag_39\n      swap2\n      swap1\n      tag_40\n      jump\t// in\n    tag_39:\n      mload(0x40)\n      dup1\n      swap2\n      sub\n      swap1\n      return\n        /* \"contracts/Struct.sol\":1098:1325  function AtualizarPessoa(uint _indice, uint _idade, string memory _nome) public {... */\n    tag_14:\n        /* \"contracts/Struct.sol\":1189:1205  Pessoa storage p */\n      0x00\n        /* \"contracts/Struct.sol\":1208:1220  listaPessoas */\n      dup1\n        /* \"contracts/Struct.sol\":1221:1228  _indice */\n      dup5\n        /* \"contracts/Struct.sol\":1208:1229  listaPessoas[_indice] */\n      dup2\n      sload\n      dup2\n      lt\n      tag_42\n      jumpi\n      tag_43\n      tag_44\n      jump\t// in\n    tag_43:\n    tag_42:\n      swap1\n      0x00\n      mstore\n      keccak256(0x00, 0x20)\n      swap1\n      0x02\n      mul\n      add\n        /* \"contracts/Struct.sol\":1189:1229  Pessoa storage p = listaPessoas[_indice] */\n      swap1\n      pop\n        /* \"contracts/Struct.sol\":1250:1256  _idade */\n      dup3\n        /* \"contracts/Struct.sol\":1240:1241  p */\n      dup2\n        /* \"contracts/Struct.sol\":1240:1247  p.idade */\n      0x00\n      add\n        /* \"contracts/Struct.sol\":1240:1256  p.idade = _idade */\n      dup2\n      swap1\n      sstore\n      pop\n        /* \"contracts/Struct.sol\":1276:1281  _nome */\n      dup2\n        /* \"contracts/Struct.sol\":1267:1268  p */\n      dup2\n        /* \"contracts/Struct.sol\":1267:1273  p.nome */\n      0x01\n      add\n        /* \"contracts/Struct.sol\":1267:1281  p.nome = _nome */\n      swap1\n      dup1\n      mload\n      swap1\n      0x20\n      add\n      swap1\n      tag_46\n      swap3\n      swap2\n      swap1\n      tag_47\n      jump\t// in\n    tag_46:\n      pop\n        /* \"contracts/Struct.sol\":1316:1317  p */\n      dup1\n        /* \"contracts/Struct.sol\":1292:1304  listaPessoas */\n      0x00\n        /* \"contracts/Struct.sol\":1305:1312  _indice */\n      dup6\n        /* \"contracts/Struct.sol\":1292:1313  listaPessoas[_indice] */\n      dup2\n      sload\n      dup2\n      lt\n      tag_48\n      jumpi\n      tag_49\n      tag_44\n      jump\t// in\n    tag_49:\n    tag_48:\n      swap1\n      0x00\n      mstore\n      keccak256(0x00, 0x20)\n      swap1\n      0x02\n      mul\n      add\n        /* \"contracts/Struct.sol\":1292:1317  listaPessoas[_indice] = p */\n      0x00\n      dup3\n      add\n      sload\n      dup2\n      0x00\n      add\n      sstore\n      0x01\n      dup3\n      add\n      dup2\n      0x01\n      add\n      swap1\n      dup1\n      sload\n      tag_51\n      swap1\n      tag_52\n      jump\t// in\n    tag_51:\n      tag_53\n      swap3\n      swap2\n      swap1\n      tag_54\n      jump\t// in\n    tag_53:\n      pop\n      swap1\n      pop\n      pop\n        /* \"contracts/Struct.sol\":1178:1325  {... */\n      pop\n        /* \"contracts/Struct.sol\":1098:1325  function AtualizarPessoa(uint _indice, uint _idade, string memory _nome) public {... */\n      pop\n      pop\n      pop\n      jump\t// out\n        /* \"contracts/Struct.sol\":196:320  function InserirPessoas(uint _idade, string memory _nome) public {... */\n    tag_18:\n        /* \"contracts/Struct.sol\":272:284  listaPessoas */\n      0x00\n        /* \"contracts/Struct.sol\":290:311  Pessoa(_idade, _nome) */\n      mload(0x40)\n      dup1\n      0x40\n      add\n      0x40\n      mstore\n      dup1\n        /* \"contracts/Struct.sol\":297:303  _idade */\n      dup5\n        /* \"contracts/Struct.sol\":290:311  Pessoa(_idade, _nome) */\n      dup2\n      mstore\n      0x20\n      add\n        /* \"contracts/Struct.sol\":305:310  _nome */\n      dup4\n        /* \"contracts/Struct.sol\":290:311  Pessoa(_idade, _nome) */\n      dup2\n      mstore\n      pop\n        /* \"contracts/Struct.sol\":272:312  listaPessoas.push(Pessoa(_idade, _nome)) */\n      swap1\n      dup1\n      0x01\n      dup2\n      sload\n      add\n      dup1\n      dup3\n      sstore\n      dup1\n      swap2\n      pop\n      pop\n      0x01\n      swap1\n      sub\n      swap1\n      0x00\n      mstore\n      keccak256(0x00, 0x20)\n      swap1\n      0x02\n      mul\n      add\n      0x00\n      swap1\n      swap2\n      swap1\n      swap2\n      swap1\n      swap2\n      pop\n      0x00\n      dup3\n      add\n      mload\n      dup2\n      0x00\n      add\n      sstore\n      0x20\n      dup3\n      add\n      mload\n      dup2\n      0x01\n      add\n      swap1\n      dup1\n      mload\n      swap1\n      0x20\n      add\n      swap1\n      tag_57\n      swap3\n      swap2\n      swap1\n      tag_47\n      jump\t// in\n    tag_57:\n      pop\n      pop\n      pop\n        /* \"contracts/Struct.sol\":196:320  function InserirPessoas(uint _idade, string memory _nome) public {... */\n      pop\n      pop\n      jump\t// out\n        /* \"contracts/Struct.sol\":1333:1424  function DeletarPessoa(uint _indice) public {... */\n    tag_22:\n        /* \"contracts/Struct.sol\":1395:1407  listaPessoas */\n      0x00\n        /* \"contracts/Struct.sol\":1408:1415  _indice */\n      dup2\n        /* \"contracts/Struct.sol\":1395:1416  listaPessoas[_indice] */\n      dup2\n      sload\n      dup2\n      lt\n      tag_59\n      jumpi\n      tag_60\n      tag_44\n      jump\t// in\n    tag_60:\n    tag_59:\n      swap1\n      0x00\n      mstore\n      keccak256(0x00, 0x20)\n      swap1\n      0x02\n      mul\n      add\n      0x00\n        /* \"contracts/Struct.sol\":1388:1416  delete listaPessoas[_indice] */\n      dup1\n      dup3\n      add\n      0x00\n      swap1\n      sstore\n      0x01\n      dup3\n      add\n      0x00\n      tag_62\n      swap2\n      swap1\n      tag_63\n      jump\t// in\n    tag_62:\n      pop\n      pop\n        /* \"contracts/Struct.sol\":1333:1424  function DeletarPessoa(uint _indice) public {... */\n      pop\n      jump\t// out\n        /* \"contracts/Struct.sol\":435:617  function ObterPessoa(uint _indice) public view returns(uint idade, string memory nome) {... */\n    tag_25:\n        /* \"contracts/Struct.sol\":490:500  uint idade */\n      0x00\n        /* \"contracts/Struct.sol\":502:520  string memory nome */\n      0x60\n        /* \"contracts/Struct.sol\":533:548  Pessoa memory p */\n      0x00\n        /* \"contracts/Struct.sol\":551:563  listaPessoas */\n      dup1\n        /* \"contracts/Struct.sol\":564:571  _indice */\n      dup5\n        /* \"contracts/Struct.sol\":551:572  listaPessoas[_indice] */\n      dup2\n      sload\n      dup2\n      lt\n      tag_65\n      jumpi\n      tag_66\n      tag_44\n      jump\t// in\n    tag_66:\n    tag_65:\n      swap1\n      0x00\n      mstore\n      keccak256(0x00, 0x20)\n      swap1\n      0x02\n      mul\n      add\n        /* \"contracts/Struct.sol\":533:572  Pessoa memory p = listaPessoas[_indice] */\n      mload(0x40)\n      dup1\n      0x40\n      add\n      0x40\n      mstore\n      swap1\n      dup2\n      0x00\n      dup3\n      add\n      sload\n      dup2\n      mstore\n      0x20\n      add\n      0x01\n      dup3\n      add\n      dup1\n      sload\n      tag_68\n      swap1\n      tag_52\n      jump\t// in\n    tag_68:\n      dup1\n      0x1f\n      add\n      0x20\n      dup1\n      swap2\n      div\n      mul\n      0x20\n      add\n      mload(0x40)\n      swap1\n      dup2\n      add\n      0x40\n      mstore\n      dup1\n      swap3\n      swap2\n      swap1\n      dup2\n      dup2\n      mstore\n      0x20\n      add\n      dup3\n      dup1\n      sload\n      tag_69\n      swap1\n      tag_52\n      jump\t// in\n    tag_69:\n      dup1\n      iszero\n      tag_70\n      jumpi\n      dup1\n      0x1f\n      lt\n      tag_71\n      jumpi\n      0x0100\n      dup1\n      dup4\n      sload\n      div\n      mul\n      dup4\n      mstore\n      swap2\n      0x20\n      add\n      swap2\n      jump(tag_70)\n    tag_71:\n      dup3\n      add\n      swap2\n      swap1\n      0x00\n      mstore\n      keccak256(0x00, 0x20)\n      swap1\n    tag_72:\n      dup2\n      sload\n      dup2\n      mstore\n      swap1\n      0x01\n      add\n      swap1\n      0x20\n      add\n      dup1\n      dup4\n      gt\n      tag_72\n      jumpi\n      dup3\n      swap1\n      sub\n      0x1f\n      and\n      dup3\n      add\n      swap2\n    tag_70:\n      pop\n      pop\n      pop\n      pop\n      pop\n      dup2\n      mstore\n      pop\n      pop\n      swap1\n      pop\n        /* \"contracts/Struct.sol\":593:594  p */\n      dup1\n        /* \"contracts/Struct.sol\":593:600  p.idade */\n      0x00\n      add\n      mload\n        /* \"contracts/Struct.sol\":602:603  p */\n      dup2\n        /* \"contracts/Struct.sol\":602:608  p.nome */\n      0x20\n      add\n      mload\n        /* \"contracts/Struct.sol\":585:609  return (p.idade, p.nome) */\n      swap3\n      pop\n      swap3\n      pop\n      pop\n        /* \"contracts/Struct.sol\":435:617  function ObterPessoa(uint _indice) public view returns(uint idade, string memory nome) {... */\n      swap2\n      pop\n      swap2\n      jump\t// out\n        /* \"contracts/Struct.sol\":328:427  function ObterPessoas() public view returns(Pessoa[] memory) {... */\n    tag_29:\n        /* \"contracts/Struct.sol\":372:387  Pessoa[] memory */\n      0x60\n        /* \"contracts/Struct.sol\":407:419  listaPessoas */\n      0x00\n        /* \"contracts/Struct.sol\":400:419  return listaPessoas */\n      dup1\n      sload\n      dup1\n      0x20\n      mul\n      0x20\n      add\n      mload(0x40)\n      swap1\n      dup2\n      add\n      0x40\n      mstore\n      dup1\n      swap3\n      swap2\n      swap1\n      dup2\n      dup2\n      mstore\n      0x20\n      add\n      0x00\n      swap1\n    tag_74:\n      dup3\n      dup3\n      lt\n      iszero\n      tag_75\n      jumpi\n      dup4\n      dup3\n      swap1\n      0x00\n      mstore\n      keccak256(0x00, 0x20)\n      swap1\n      0x02\n      mul\n      add\n      mload(0x40)\n      dup1\n      0x40\n      add\n      0x40\n      mstore\n      swap1\n      dup2\n      0x00\n      dup3\n      add\n      sload\n      dup2\n      mstore\n      0x20\n      add\n      0x01\n      dup3\n      add\n      dup1\n      sload\n      tag_77\n      swap1\n      tag_52\n      jump\t// in\n    tag_77:\n      dup1\n      0x1f\n      add\n      0x20\n      dup1\n      swap2\n      div\n      mul\n      0x20\n      add\n      mload(0x40)\n      swap1\n      dup2\n      add\n      0x40\n      mstore\n      dup1\n      swap3\n      swap2\n      swap1\n      dup2\n      dup2\n      mstore\n      0x20\n      add\n      dup3\n      dup1\n      sload\n      tag_78\n      swap1\n      tag_52\n      jump\t// in\n    tag_78:\n      dup1\n      iszero\n      tag_79\n      jumpi\n      dup1\n      0x1f\n      lt\n      tag_80\n      jumpi\n      0x0100\n      dup1\n      dup4\n      sload\n      div\n      mul\n      dup4\n      mstore\n      swap2\n      0x20\n      add\n      swap2\n      jump(tag_79)\n    tag_80:\n      dup3\n      add\n      swap2\n      swap1\n      0x00\n      mstore\n      keccak256(0x00, 0x20)\n      swap1\n    tag_81:\n      dup2\n      sload\n      dup2\n      mstore\n      swap1\n      0x01\n      add\n      swap1\n      0x20\n      add\n      dup1\n      dup4\n      gt\n      tag_81\n      jumpi\n      dup3\n      swap1\n      sub\n      0x1f\n      and\n      dup3\n      add\n      swap2\n    tag_79:\n      pop\n      pop\n      pop\n      pop\n      pop\n      dup2\n      mstore\n      pop\n      pop\n      dup2\n      mstore\n      0x20\n      add\n      swap1\n      0x01\n      add\n      swap1\n      jump(tag_74)\n    tag_75:\n      pop\n      pop\n      pop\n      pop\n      swap1\n      pop\n        /* \"contracts/Struct.sol\":328:427  function ObterPessoas() public view returns(Pessoa[] memory) {... */\n      swap1\n      jump\t// out\n        /* \"contracts/Struct.sol\":672:1090  function ObterPessoaPeloNome(string memory _nome) public view returns (uint idade, string memory nome) {... */\n    tag_35:\n        /* \"contracts/Struct.sol\":743:753  uint idade */\n      0x00\n        /* \"contracts/Struct.sol\":755:773  string memory nome */\n      0x60\n        /* \"contracts/Struct.sol\":786:792  uint i */\n      0x00\n        /* \"contracts/Struct.sol\":807:1083  for(i = 0; i < listaPessoas.length-1; i++) {... */\n    tag_83:\n        /* \"contracts/Struct.sol\":842:843  1 */\n      0x01\n        /* \"contracts/Struct.sol\":822:834  listaPessoas */\n      0x00\n        /* \"contracts/Struct.sol\":822:841  listaPessoas.length */\n      dup1\n      sload\n      swap1\n      pop\n        /* \"contracts/Struct.sol\":822:843  listaPessoas.length-1 */\n      tag_86\n      swap2\n      swap1\n      tag_87\n      jump\t// in\n    tag_86:\n        /* \"contracts/Struct.sol\":818:819  i */\n      dup2\n        /* \"contracts/Struct.sol\":818:843  i < listaPessoas.length-1 */\n      lt\n        /* \"contracts/Struct.sol\":807:1083  for(i = 0; i < listaPessoas.length-1; i++) {... */\n      iszero\n      tag_84\n      jumpi\n        /* \"contracts/Struct.sol\":865:888  string memory nomeLista */\n      0x00\n        /* \"contracts/Struct.sol\":891:903  listaPessoas */\n      dup1\n        /* \"contracts/Struct.sol\":904:905  i */\n      dup3\n        /* \"contracts/Struct.sol\":891:906  listaPessoas[i] */\n      dup2\n      sload\n      dup2\n      lt\n      tag_88\n      jumpi\n      tag_89\n      tag_44\n      jump\t// in\n    tag_89:\n    tag_88:\n      swap1\n      0x00\n      mstore\n      keccak256(0x00, 0x20)\n      swap1\n      0x02\n      mul\n      add\n        /* \"contracts/Struct.sol\":891:911  listaPessoas[i].nome */\n      0x01\n      add\n        /* \"contracts/Struct.sol\":865:911  string memory nomeLista = listaPessoas[i].nome */\n      dup1\n      sload\n      tag_91\n      swap1\n      tag_52\n      jump\t// in\n    tag_91:\n      dup1\n      0x1f\n      add\n      0x20\n      dup1\n      swap2\n      div\n      mul\n      0x20\n      add\n      mload(0x40)\n      swap1\n      dup2\n      add\n      0x40\n      mstore\n      dup1\n      swap3\n      swap2\n      swap1\n      dup2\n      dup2\n      mstore\n      0x20\n      add\n      dup3\n      dup1\n      sload\n      tag_92\n      swap1\n      tag_52\n      jump\t// in\n    tag_92:\n      dup1\n      iszero\n      tag_93\n      jumpi\n      dup1\n      0x1f\n      lt\n      tag_94\n      jumpi\n      0x0100\n      dup1\n      dup4\n      sload\n      div\n      mul\n      dup4\n      mstore\n      swap2\n      0x20\n      add\n      swap2\n      jump(tag_93)\n    tag_94:\n      dup3\n      add\n      swap2\n      swap1\n      0x00\n      mstore\n      keccak256(0x00, 0x20)\n      swap1\n    tag_95:\n      dup2\n      sload\n      dup2\n      mstore\n      swap1\n      0x01\n      add\n      swap1\n      0x20\n      add\n      dup1\n      dup4\n      gt\n      tag_95\n      jumpi\n      dup3\n      swap1\n      sub\n      0x1f\n      and\n      dup3\n      add\n      swap2\n    tag_93:\n      pop\n      pop\n      pop\n      pop\n      pop\n      swap1\n      pop\n        /* \"contracts/Struct.sol\":972:981  nomeLista */\n      dup1\n        /* \"contracts/Struct.sol\":956:983  keccak256(bytes(nomeLista)) */\n      dup1\n      mload\n      swap1\n      0x20\n      add\n      keccak256\n        /* \"contracts/Struct.sol\":945:950  _nome */\n      dup6\n        /* \"contracts/Struct.sol\":929:952  keccak256(bytes(_nome)) */\n      dup1\n      mload\n      swap1\n      0x20\n      add\n      keccak256\n        /* \"contracts/Struct.sol\":929:983  keccak256(bytes(_nome)) == keccak256(bytes(nomeLista)) */\n      eq\n        /* \"contracts/Struct.sol\":926:1072  if(keccak256(bytes(_nome)) == keccak256(bytes(nomeLista))) {... */\n      iszero\n      tag_96\n      jumpi\n        /* \"contracts/Struct.sol\":1012:1024  listaPessoas */\n      0x00\n        /* \"contracts/Struct.sol\":1025:1026  i */\n      dup3\n        /* \"contracts/Struct.sol\":1012:1027  listaPessoas[i] */\n      dup2\n      sload\n      dup2\n      lt\n      tag_97\n      jumpi\n      tag_98\n      tag_44\n      jump\t// in\n    tag_98:\n    tag_97:\n      swap1\n      0x00\n      mstore\n      keccak256(0x00, 0x20)\n      swap1\n      0x02\n      mul\n      add\n        /* \"contracts/Struct.sol\":1012:1033  listaPessoas[i].idade */\n      0x00\n      add\n      sload\n        /* \"contracts/Struct.sol\":1035:1047  listaPessoas */\n      0x00\n        /* \"contracts/Struct.sol\":1048:1049  i */\n      dup4\n        /* \"contracts/Struct.sol\":1035:1050  listaPessoas[i] */\n      dup2\n      sload\n      dup2\n      lt\n      tag_100\n      jumpi\n      tag_101\n      tag_44\n      jump\t// in\n    tag_101:\n    tag_100:\n      swap1\n      0x00\n      mstore\n      keccak256(0x00, 0x20)\n      swap1\n      0x02\n      mul\n      add\n        /* \"contracts/Struct.sol\":1035:1055  listaPessoas[i].nome */\n      0x01\n      add\n        /* \"contracts/Struct.sol\":1004:1056  return (listaPessoas[i].idade, listaPessoas[i].nome) */\n      dup1\n      dup1\n      sload\n      tag_103\n      swap1\n      tag_52\n      jump\t// in\n    tag_103:\n      dup1\n      0x1f\n      add\n      0x20\n      dup1\n      swap2\n      div\n      mul\n      0x20\n      add\n      mload(0x40)\n      swap1\n      dup2\n      add\n      0x40\n      mstore\n      dup1\n      swap3\n      swap2\n      swap1\n      dup2\n      dup2\n      mstore\n      0x20\n      add\n      dup3\n      dup1\n      sload\n      tag_104\n      swap1\n      tag_52\n      jump\t// in\n    tag_104:\n      dup1\n      iszero\n      tag_105\n      jumpi\n      dup1\n      0x1f\n      lt\n      tag_106\n      jumpi\n      0x0100\n      dup1\n      dup4\n      sload\n      div\n      mul\n      dup4\n      mstore\n      swap2\n      0x20\n      add\n      swap2\n      jump(tag_105)\n    tag_106:\n      dup3\n      add\n      swap2\n      swap1\n      0x00\n      mstore\n      keccak256(0x00, 0x20)\n      swap1\n    tag_107:\n      dup2\n      sload\n      dup2\n      mstore\n      swap1\n      0x01\n      add\n      swap1\n      0x20\n      add\n      dup1\n      dup4\n      gt\n      tag_107\n      jumpi\n      dup3\n      swap1\n      sub\n      0x1f\n      and\n      dup3\n      add\n      swap2\n    tag_105:\n      pop\n      pop\n      pop\n      pop\n      pop\n      swap1\n      pop\n      swap4\n      pop\n      swap4\n      pop\n      pop\n      pop\n      jump(tag_82)\n        /* \"contracts/Struct.sol\":926:1072  if(keccak256(bytes(_nome)) == keccak256(bytes(nomeLista))) {... */\n    tag_96:\n        /* \"contracts/Struct.sol\":850:1083  {... */\n      pop\n        /* \"contracts/Struct.sol\":845:848  i++ */\n      dup1\n      dup1\n      tag_108\n      swap1\n      tag_109\n      jump\t// in\n    tag_108:\n      swap2\n      pop\n      pop\n        /* \"contracts/Struct.sol\":807:1083  for(i = 0; i < listaPessoas.length-1; i++) {... */\n      jump(tag_83)\n    tag_84:\n        /* \"contracts/Struct.sol\":775:1090  {... */\n      pop\n        /* \"contracts/Struct.sol\":672:1090  function ObterPessoaPeloNome(string memory _nome) public view returns (uint idade, string memory nome) {... */\n    tag_82:\n      swap2\n      pop\n      swap2\n      jump\t// out\n        /* \"contracts/Struct.sol\":1432:1530  function TotalDePessoas() public view returns (uint) {... */\n    tag_38:\n        /* \"contracts/Struct.sol\":1479:1483  uint */\n      0x00\n        /* \"contracts/Struct.sol\":1503:1515  listaPessoas */\n      dup1\n        /* \"contracts/Struct.sol\":1503:1522  listaPessoas.length */\n      dup1\n      sload\n      swap1\n      pop\n        /* \"contracts/Struct.sol\":1496:1522  return listaPessoas.length */\n      swap1\n      pop\n        /* \"contracts/Struct.sol\":1432:1530  function TotalDePessoas() public view returns (uint) {... */\n      swap1\n      jump\t// out\n    tag_47:\n      dup3\n      dup1\n      sload\n      tag_111\n      swap1\n      tag_52\n      jump\t// in\n    tag_111:\n      swap1\n      0x00\n      mstore\n      keccak256(0x00, 0x20)\n      swap1\n      0x1f\n      add\n      0x20\n      swap1\n      div\n      dup2\n      add\n      swap3\n      dup3\n      tag_113\n      jumpi\n      0x00\n      dup6\n      sstore\n      jump(tag_112)\n    tag_113:\n      dup3\n      0x1f\n      lt\n      tag_114\n      jumpi\n      dup1\n      mload\n      not(0xff)\n      and\n      dup4\n      dup1\n      add\n      or\n      dup6\n      sstore\n      jump(tag_112)\n    tag_114:\n      dup3\n      dup1\n      add\n      0x01\n      add\n      dup6\n      sstore\n      dup3\n      iszero\n      tag_112\n      jumpi\n      swap2\n      dup3\n      add\n    tag_115:\n      dup3\n      dup2\n      gt\n      iszero\n      tag_116\n      jumpi\n      dup3\n      mload\n      dup3\n      sstore\n      swap2\n      0x20\n      add\n      swap2\n      swap1\n      0x01\n      add\n      swap1\n      jump(tag_115)\n    tag_116:\n    tag_112:\n      pop\n      swap1\n      pop\n      tag_117\n      swap2\n      swap1\n      tag_118\n      jump\t// in\n    tag_117:\n      pop\n      swap1\n      jump\t// out\n    tag_54:\n      dup3\n      dup1\n      sload\n      tag_119\n      swap1\n      tag_52\n      jump\t// in\n    tag_119:\n      swap1\n      0x00\n      mstore\n      keccak256(0x00, 0x20)\n      swap1\n      0x1f\n      add\n      0x20\n      swap1\n      div\n      dup2\n      add\n      swap3\n      dup3\n      tag_121\n      jumpi\n      0x00\n      dup6\n      sstore\n      jump(tag_120)\n    tag_121:\n      dup3\n      0x1f\n      lt\n      tag_122\n      jumpi\n      dup1\n      sload\n      dup6\n      sstore\n      jump(tag_120)\n    tag_122:\n      dup3\n      dup1\n      add\n      0x01\n      add\n      dup6\n      sstore\n      dup3\n      iszero\n      tag_120\n      jumpi\n      0x00\n      mstore\n      keccak256(0x00, 0x20)\n      swap2\n      0x1f\n      add\n      0x20\n      swap1\n      div\n      dup3\n      add\n    tag_123:\n      dup3\n      dup2\n      gt\n      iszero\n      tag_124\n      jumpi\n      dup3\n      sload\n      dup3\n      sstore\n      swap2\n      0x01\n      add\n      swap2\n      swap1\n      0x01\n      add\n      swap1\n      jump(tag_123)\n    tag_124:\n    tag_120:\n      pop\n      swap1\n      pop\n      tag_125\n      swap2\n      swap1\n      tag_118\n      jump\t// in\n    tag_125:\n      pop\n      swap1\n      jump\t// out\n    tag_63:\n      pop\n      dup1\n      sload\n      tag_126\n      swap1\n      tag_52\n      jump\t// in\n    tag_126:\n      0x00\n      dup3\n      sstore\n      dup1\n      0x1f\n      lt\n      tag_128\n      jumpi\n      pop\n      jump(tag_127)\n    tag_128:\n      0x1f\n      add\n      0x20\n      swap1\n      div\n      swap1\n      0x00\n      mstore\n      keccak256(0x00, 0x20)\n      swap1\n      dup2\n      add\n      swap1\n      tag_129\n      swap2\n      swap1\n      tag_118\n      jump\t// in\n    tag_129:\n    tag_127:\n      pop\n      jump\t// out\n    tag_118:\n    tag_130:\n      dup1\n      dup3\n      gt\n      iszero\n      tag_131\n      jumpi\n      0x00\n      dup2\n      0x00\n      swap1\n      sstore\n      pop\n      0x01\n      add\n      jump(tag_130)\n    tag_131:\n      pop\n      swap1\n      jump\t// out\n        /* \"#utility.yul\":7:82   */\n    tag_132:\n        /* \"#utility.yul\":40:46   */\n      0x00\n        /* \"#utility.yul\":73:75   */\n      0x40\n        /* \"#utility.yul\":67:76   */\n      mload\n        /* \"#utility.yul\":57:76   */\n      swap1\n      pop\n        /* \"#utility.yul\":7:82   */\n      swap1\n      jump\t// out\n        /* \"#utility.yul\":88:205   */\n    tag_133:\n        /* \"#utility.yul\":197:198   */\n      0x00\n        /* \"#utility.yul\":194:195   */\n      dup1\n        /* \"#utility.yul\":187:199   */\n      revert\n        /* \"#utility.yul\":211:328   */\n    tag_134:\n        /* \"#utility.yul\":320:321   */\n      0x00\n        /* \"#utility.yul\":317:318   */\n      dup1\n        /* \"#utility.yul\":310:322   */\n      revert\n        /* \"#utility.yul\":334:411   */\n    tag_135:\n        /* \"#utility.yul\":371:378   */\n      0x00\n        /* \"#utility.yul\":400:405   */\n      dup2\n        /* \"#utility.yul\":389:405   */\n      swap1\n      pop\n        /* \"#utility.yul\":334:411   */\n      swap2\n      swap1\n      pop\n      jump\t// out\n        /* \"#utility.yul\":417:539   */\n    tag_136:\n        /* \"#utility.yul\":490:514   */\n      tag_171\n        /* \"#utility.yul\":508:513   */\n      dup2\n        /* \"#utility.yul\":490:514   */\n      tag_135\n      jump\t// in\n    tag_171:\n        /* \"#utility.yul\":483:488   */\n      dup2\n        /* \"#utility.yul\":480:515   */\n      eq\n        /* \"#utility.yul\":470:533   */\n      tag_172\n      jumpi\n        /* \"#utility.yul\":529:530   */\n      0x00\n        /* \"#utility.yul\":526:527   */\n      dup1\n        /* \"#utility.yul\":519:531   */\n      revert\n        /* \"#utility.yul\":470:533   */\n    tag_172:\n        /* \"#utility.yul\":417:539   */\n      pop\n      jump\t// out\n        /* \"#utility.yul\":545:684   */\n    tag_137:\n        /* \"#utility.yul\":591:596   */\n      0x00\n        /* \"#utility.yul\":629:635   */\n      dup2\n        /* \"#utility.yul\":616:636   */\n      calldataload\n        /* \"#utility.yul\":607:636   */\n      swap1\n      pop\n        /* \"#utility.yul\":645:678   */\n      tag_174\n        /* \"#utility.yul\":672:677   */\n      dup2\n        /* \"#utility.yul\":645:678   */\n      tag_136\n      jump\t// in\n    tag_174:\n        /* \"#utility.yul\":545:684   */\n      swap3\n      swap2\n      pop\n      pop\n      jump\t// out\n        /* \"#utility.yul\":690:807   */\n    tag_138:\n        /* \"#utility.yul\":799:800   */\n      0x00\n        /* \"#utility.yul\":796:797   */\n      dup1\n        /* \"#utility.yul\":789:801   */\n      revert\n        /* \"#utility.yul\":813:930   */\n    tag_139:\n        /* \"#utility.yul\":922:923   */\n      0x00\n        /* \"#utility.yul\":919:920   */\n      dup1\n        /* \"#utility.yul\":912:924   */\n      revert\n        /* \"#utility.yul\":936:1038   */\n    tag_140:\n        /* \"#utility.yul\":977:983   */\n      0x00\n        /* \"#utility.yul\":1028:1030   */\n      0x1f\n        /* \"#utility.yul\":1024:1031   */\n      not\n        /* \"#utility.yul\":1019:1021   */\n      0x1f\n        /* \"#utility.yul\":1012:1017   */\n      dup4\n        /* \"#utility.yul\":1008:1022   */\n      add\n        /* \"#utility.yul\":1004:1032   */\n      and\n        /* \"#utility.yul\":994:1032   */\n      swap1\n      pop\n        /* \"#utility.yul\":936:1038   */\n      swap2\n      swap1\n      pop\n      jump\t// out\n        /* \"#utility.yul\":1044:1224   */\n    tag_141:\n        /* \"#utility.yul\":1092:1169   */\n      0x4e487b7100000000000000000000000000000000000000000000000000000000\n        /* \"#utility.yul\":1089:1090   */\n      0x00\n        /* \"#utility.yul\":1082:1170   */\n      mstore\n        /* \"#utility.yul\":1189:1193   */\n      0x41\n        /* \"#utility.yul\":1186:1187   */\n      0x04\n        /* \"#utility.yul\":1179:1194   */\n      mstore\n        /* \"#utility.yul\":1213:1217   */\n      0x24\n        /* \"#utility.yul\":1210:1211   */\n      0x00\n        /* \"#utility.yul\":1203:1218   */\n      revert\n        /* \"#utility.yul\":1230:1511   */\n    tag_142:\n        /* \"#utility.yul\":1313:1340   */\n      tag_180\n        /* \"#utility.yul\":1335:1339   */\n      dup3\n        /* \"#utility.yul\":1313:1340   */\n      tag_140\n      jump\t// in\n    tag_180:\n        /* \"#utility.yul\":1305:1311   */\n      dup2\n        /* \"#utility.yul\":1301:1341   */\n      add\n        /* \"#utility.yul\":1443:1449   */\n      dup2\n        /* \"#utility.yul\":1431:1441   */\n      dup2\n        /* \"#utility.yul\":1428:1450   */\n      lt\n        /* \"#utility.yul\":1407:1425   */\n      0xffffffffffffffff\n        /* \"#utility.yul\":1395:1405   */\n      dup3\n        /* \"#utility.yul\":1392:1426   */\n      gt\n        /* \"#utility.yul\":1389:1451   */\n      or\n        /* \"#utility.yul\":1386:1474   */\n      iszero\n      tag_181\n      jumpi\n        /* \"#utility.yul\":1454:1472   */\n      tag_182\n      tag_141\n      jump\t// in\n    tag_182:\n        /* \"#utility.yul\":1386:1474   */\n    tag_181:\n        /* \"#utility.yul\":1494:1504   */\n      dup1\n        /* \"#utility.yul\":1490:1492   */\n      0x40\n        /* \"#utility.yul\":1483:1505   */\n      mstore\n        /* \"#utility.yul\":1273:1511   */\n      pop\n        /* \"#utility.yul\":1230:1511   */\n      pop\n      pop\n      jump\t// out\n        /* \"#utility.yul\":1517:1646   */\n    tag_143:\n        /* \"#utility.yul\":1551:1557   */\n      0x00\n        /* \"#utility.yul\":1578:1598   */\n      tag_184\n      tag_132\n      jump\t// in\n    tag_184:\n        /* \"#utility.yul\":1568:1598   */\n      swap1\n      pop\n        /* \"#utility.yul\":1607:1640   */\n      tag_185\n        /* \"#utility.yul\":1635:1639   */\n      dup3\n        /* \"#utility.yul\":1627:1633   */\n      dup3\n        /* \"#utility.yul\":1607:1640   */\n      tag_142\n      jump\t// in\n    tag_185:\n        /* \"#utility.yul\":1517:1646   */\n      swap2\n      swap1\n      pop\n      jump\t// out\n        /* \"#utility.yul\":1652:1960   */\n    tag_144:\n        /* \"#utility.yul\":1714:1718   */\n      0x00\n        /* \"#utility.yul\":1804:1822   */\n      0xffffffffffffffff\n        /* \"#utility.yul\":1796:1802   */\n      dup3\n        /* \"#utility.yul\":1793:1823   */\n      gt\n        /* \"#utility.yul\":1790:1846   */\n      iszero\n      tag_187\n      jumpi\n        /* \"#utility.yul\":1826:1844   */\n      tag_188\n      tag_141\n      jump\t// in\n    tag_188:\n        /* \"#utility.yul\":1790:1846   */\n    tag_187:\n        /* \"#utility.yul\":1864:1893   */\n      tag_189\n        /* \"#utility.yul\":1886:1892   */\n      dup3\n        /* \"#utility.yul\":1864:1893   */\n      tag_140\n      jump\t// in\n    tag_189:\n        /* \"#utility.yul\":1856:1893   */\n      swap1\n      pop\n        /* \"#utility.yul\":1948:1952   */\n      0x20\n        /* \"#utility.yul\":1942:1946   */\n      dup2\n        /* \"#utility.yul\":1938:1953   */\n      add\n        /* \"#utility.yul\":1930:1953   */\n      swap1\n      pop\n        /* \"#utility.yul\":1652:1960   */\n      swap2\n      swap1\n      pop\n      jump\t// out\n        /* \"#utility.yul\":1966:2120   */\n    tag_145:\n        /* \"#utility.yul\":2050:2056   */\n      dup3\n        /* \"#utility.yul\":2045:2048   */\n      dup2\n        /* \"#utility.yul\":2040:2043   */\n      dup4\n        /* \"#utility.yul\":2027:2057   */\n      calldatacopy\n        /* \"#utility.yul\":2112:2113   */\n      0x00\n        /* \"#utility.yul\":2103:2109   */\n      dup4\n        /* \"#utility.yul\":2098:2101   */\n      dup4\n        /* \"#utility.yul\":2094:2110   */\n      add\n        /* \"#utility.yul\":2087:2114   */\n      mstore\n        /* \"#utility.yul\":1966:2120   */\n      pop\n      pop\n      pop\n      jump\t// out\n        /* \"#utility.yul\":2126:2538   */\n    tag_146:\n        /* \"#utility.yul\":2204:2209   */\n      0x00\n        /* \"#utility.yul\":2229:2295   */\n      tag_192\n        /* \"#utility.yul\":2245:2294   */\n      tag_193\n        /* \"#utility.yul\":2287:2293   */\n      dup5\n        /* \"#utility.yul\":2245:2294   */\n      tag_144\n      jump\t// in\n    tag_193:\n        /* \"#utility.yul\":2229:2295   */\n      tag_143\n      jump\t// in\n    tag_192:\n        /* \"#utility.yul\":2220:2295   */\n      swap1\n      pop\n        /* \"#utility.yul\":2318:2324   */\n      dup3\n        /* \"#utility.yul\":2311:2316   */\n      dup2\n        /* \"#utility.yul\":2304:2325   */\n      mstore\n        /* \"#utility.yul\":2356:2360   */\n      0x20\n        /* \"#utility.yul\":2349:2354   */\n      dup2\n        /* \"#utility.yul\":2345:2361   */\n      add\n        /* \"#utility.yul\":2394:2397   */\n      dup5\n        /* \"#utility.yul\":2385:2391   */\n      dup5\n        /* \"#utility.yul\":2380:2383   */\n      dup5\n        /* \"#utility.yul\":2376:2392   */\n      add\n        /* \"#utility.yul\":2373:2398   */\n      gt\n        /* \"#utility.yul\":2370:2482   */\n      iszero\n      tag_194\n      jumpi\n        /* \"#utility.yul\":2401:2480   */\n      tag_195\n      tag_139\n      jump\t// in\n    tag_195:\n        /* \"#utility.yul\":2370:2482   */\n    tag_194:\n        /* \"#utility.yul\":2491:2532   */\n      tag_196\n        /* \"#utility.yul\":2525:2531   */\n      dup5\n        /* \"#utility.yul\":2520:2523   */\n      dup3\n        /* \"#utility.yul\":2515:2518   */\n      dup6\n        /* \"#utility.yul\":2491:2532   */\n      tag_145\n      jump\t// in\n    tag_196:\n        /* \"#utility.yul\":2210:2538   */\n      pop\n        /* \"#utility.yul\":2126:2538   */\n      swap4\n      swap3\n      pop\n      pop\n      pop\n      jump\t// out\n        /* \"#utility.yul\":2558:2898   */\n    tag_147:\n        /* \"#utility.yul\":2614:2619   */\n      0x00\n        /* \"#utility.yul\":2663:2666   */\n      dup3\n        /* \"#utility.yul\":2656:2660   */\n      0x1f\n        /* \"#utility.yul\":2648:2654   */\n      dup4\n        /* \"#utility.yul\":2644:2661   */\n      add\n        /* \"#utility.yul\":2640:2667   */\n      slt\n        /* \"#utility.yul\":2630:2752   */\n      tag_198\n      jumpi\n        /* \"#utility.yul\":2671:2750   */\n      tag_199\n      tag_138\n      jump\t// in\n    tag_199:\n        /* \"#utility.yul\":2630:2752   */\n    tag_198:\n        /* \"#utility.yul\":2788:2794   */\n      dup2\n        /* \"#utility.yul\":2775:2795   */\n      calldataload\n        /* \"#utility.yul\":2813:2892   */\n      tag_200\n        /* \"#utility.yul\":2888:2891   */\n      dup5\n        /* \"#utility.yul\":2880:2886   */\n      dup3\n        /* \"#utility.yul\":2873:2877   */\n      0x20\n        /* \"#utility.yul\":2865:2871   */\n      dup7\n        /* \"#utility.yul\":2861:2878   */\n      add\n        /* \"#utility.yul\":2813:2892   */\n      tag_146\n      jump\t// in\n    tag_200:\n        /* \"#utility.yul\":2804:2892   */\n      swap2\n      pop\n        /* \"#utility.yul\":2620:2898   */\n      pop\n        /* \"#utility.yul\":2558:2898   */\n      swap3\n      swap2\n      pop\n      pop\n      jump\t// out\n        /* \"#utility.yul\":2904:3703   */\n    tag_13:\n        /* \"#utility.yul\":2991:2997   */\n      0x00\n        /* \"#utility.yul\":2999:3005   */\n      dup1\n        /* \"#utility.yul\":3007:3013   */\n      0x00\n        /* \"#utility.yul\":3056:3058   */\n      0x60\n        /* \"#utility.yul\":3044:3053   */\n      dup5\n        /* \"#utility.yul\":3035:3042   */\n      dup7\n        /* \"#utility.yul\":3031:3054   */\n      sub\n        /* \"#utility.yul\":3027:3059   */\n      slt\n        /* \"#utility.yul\":3024:3143   */\n      iszero\n      tag_202\n      jumpi\n        /* \"#utility.yul\":3062:3141   */\n      tag_203\n      tag_133\n      jump\t// in\n    tag_203:\n        /* \"#utility.yul\":3024:3143   */\n    tag_202:\n        /* \"#utility.yul\":3182:3183   */\n      0x00\n        /* \"#utility.yul\":3207:3260   */\n      tag_204\n        /* \"#utility.yul\":3252:3259   */\n      dup7\n        /* \"#utility.yul\":3243:3249   */\n      dup3\n        /* \"#utility.yul\":3232:3241   */\n      dup8\n        /* \"#utility.yul\":3228:3250   */\n      add\n        /* \"#utility.yul\":3207:3260   */\n      tag_137\n      jump\t// in\n    tag_204:\n        /* \"#utility.yul\":3197:3260   */\n      swap4\n      pop\n        /* \"#utility.yul\":3153:3270   */\n      pop\n        /* \"#utility.yul\":3309:3311   */\n      0x20\n        /* \"#utility.yul\":3335:3388   */\n      tag_205\n        /* \"#utility.yul\":3380:3387   */\n      dup7\n        /* \"#utility.yul\":3371:3377   */\n      dup3\n        /* \"#utility.yul\":3360:3369   */\n      dup8\n        /* \"#utility.yul\":3356:3378   */\n      add\n        /* \"#utility.yul\":3335:3388   */\n      tag_137\n      jump\t// in\n    tag_205:\n        /* \"#utility.yul\":3325:3388   */\n      swap3\n      pop\n        /* \"#utility.yul\":3280:3398   */\n      pop\n        /* \"#utility.yul\":3465:3467   */\n      0x40\n        /* \"#utility.yul\":3454:3463   */\n      dup5\n        /* \"#utility.yul\":3450:3468   */\n      add\n        /* \"#utility.yul\":3437:3469   */\n      calldataload\n        /* \"#utility.yul\":3496:3514   */\n      0xffffffffffffffff\n        /* \"#utility.yul\":3488:3494   */\n      dup2\n        /* \"#utility.yul\":3485:3515   */\n      gt\n        /* \"#utility.yul\":3482:3599   */\n      iszero\n      tag_206\n      jumpi\n        /* \"#utility.yul\":3518:3597   */\n      tag_207\n      tag_134\n      jump\t// in\n    tag_207:\n        /* \"#utility.yul\":3482:3599   */\n    tag_206:\n        /* \"#utility.yul\":3623:3686   */\n      tag_208\n        /* \"#utility.yul\":3678:3685   */\n      dup7\n        /* \"#utility.yul\":3669:3675   */\n      dup3\n        /* \"#utility.yul\":3658:3667   */\n      dup8\n        /* \"#utility.yul\":3654:3676   */\n      add\n        /* \"#utility.yul\":3623:3686   */\n      tag_147\n      jump\t// in\n    tag_208:\n        /* \"#utility.yul\":3613:3686   */\n      swap2\n      pop\n        /* \"#utility.yul\":3408:3696   */\n      pop\n        /* \"#utility.yul\":2904:3703   */\n      swap3\n      pop\n      swap3\n      pop\n      swap3\n      jump\t// out\n        /* \"#utility.yul\":3709:4363   */\n    tag_17:\n        /* \"#utility.yul\":3787:3793   */\n      0x00\n        /* \"#utility.yul\":3795:3801   */\n      dup1\n        /* \"#utility.yul\":3844:3846   */\n      0x40\n        /* \"#utility.yul\":3832:3841   */\n      dup4\n        /* \"#utility.yul\":3823:3830   */\n      dup6\n        /* \"#utility.yul\":3819:3842   */\n      sub\n        /* \"#utility.yul\":3815:3847   */\n      slt\n        /* \"#utility.yul\":3812:3931   */\n      iszero\n      tag_210\n      jumpi\n        /* \"#utility.yul\":3850:3929   */\n      tag_211\n      tag_133\n      jump\t// in\n    tag_211:\n        /* \"#utility.yul\":3812:3931   */\n    tag_210:\n        /* \"#utility.yul\":3970:3971   */\n      0x00\n        /* \"#utility.yul\":3995:4048   */\n      tag_212\n        /* \"#utility.yul\":4040:4047   */\n      dup6\n        /* \"#utility.yul\":4031:4037   */\n      dup3\n        /* \"#utility.yul\":4020:4029   */\n      dup7\n        /* \"#utility.yul\":4016:4038   */\n      add\n        /* \"#utility.yul\":3995:4048   */\n      tag_137\n      jump\t// in\n    tag_212:\n        /* \"#utility.yul\":3985:4048   */\n      swap3\n      pop\n        /* \"#utility.yul\":3941:4058   */\n      pop\n        /* \"#utility.yul\":4125:4127   */\n      0x20\n        /* \"#utility.yul\":4114:4123   */\n      dup4\n        /* \"#utility.yul\":4110:4128   */\n      add\n        /* \"#utility.yul\":4097:4129   */\n      calldataload\n        /* \"#utility.yul\":4156:4174   */\n      0xffffffffffffffff\n        /* \"#utility.yul\":4148:4154   */\n      dup2\n        /* \"#utility.yul\":4145:4175   */\n      gt\n        /* \"#utility.yul\":4142:4259   */\n      iszero\n      tag_213\n      jumpi\n        /* \"#utility.yul\":4178:4257   */\n      tag_214\n      tag_134\n      jump\t// in\n    tag_214:\n        /* \"#utility.yul\":4142:4259   */\n    tag_213:\n        /* \"#utility.yul\":4283:4346   */\n      tag_215\n        /* \"#utility.yul\":4338:4345   */\n      dup6\n        /* \"#utility.yul\":4329:4335   */\n      dup3\n        /* \"#utility.yul\":4318:4327   */\n      dup7\n        /* \"#utility.yul\":4314:4336   */\n      add\n        /* \"#utility.yul\":4283:4346   */\n      tag_147\n      jump\t// in\n    tag_215:\n        /* \"#utility.yul\":4273:4346   */\n      swap2\n      pop\n        /* \"#utility.yul\":4068:4356   */\n      pop\n        /* \"#utility.yul\":3709:4363   */\n      swap3\n      pop\n      swap3\n      swap1\n      pop\n      jump\t// out\n        /* \"#utility.yul\":4369:4698   */\n    tag_21:\n        /* \"#utility.yul\":4428:4434   */\n      0x00\n        /* \"#utility.yul\":4477:4479   */\n      0x20\n        /* \"#utility.yul\":4465:4474   */\n      dup3\n        /* \"#utility.yul\":4456:4463   */\n      dup5\n        /* \"#utility.yul\":4452:4475   */\n      sub\n        /* \"#utility.yul\":4448:4480   */\n      slt\n        /* \"#utility.yul\":4445:4564   */\n      iszero\n      tag_217\n      jumpi\n        /* \"#utility.yul\":4483:4562   */\n      tag_218\n      tag_133\n      jump\t// in\n    tag_218:\n        /* \"#utility.yul\":4445:4564   */\n    tag_217:\n        /* \"#utility.yul\":4603:4604   */\n      0x00\n        /* \"#utility.yul\":4628:4681   */\n      tag_219\n        /* \"#utility.yul\":4673:4680   */\n      dup5\n        /* \"#utility.yul\":4664:4670   */\n      dup3\n        /* \"#utility.yul\":4653:4662   */\n      dup6\n        /* \"#utility.yul\":4649:4671   */\n      add\n        /* \"#utility.yul\":4628:4681   */\n      tag_137\n      jump\t// in\n    tag_219:\n        /* \"#utility.yul\":4618:4681   */\n      swap2\n      pop\n        /* \"#utility.yul\":4574:4691   */\n      pop\n        /* \"#utility.yul\":4369:4698   */\n      swap3\n      swap2\n      pop\n      pop\n      jump\t// out\n        /* \"#utility.yul\":4704:4822   */\n    tag_148:\n        /* \"#utility.yul\":4791:4815   */\n      tag_221\n        /* \"#utility.yul\":4809:4814   */\n      dup2\n        /* \"#utility.yul\":4791:4815   */\n      tag_135\n      jump\t// in\n    tag_221:\n        /* \"#utility.yul\":4786:4789   */\n      dup3\n        /* \"#utility.yul\":4779:4816   */\n      mstore\n        /* \"#utility.yul\":4704:4822   */\n      pop\n      pop\n      jump\t// out\n        /* \"#utility.yul\":4828:4927   */\n    tag_149:\n        /* \"#utility.yul\":4880:4886   */\n      0x00\n        /* \"#utility.yul\":4914:4919   */\n      dup2\n        /* \"#utility.yul\":4908:4920   */\n      mload\n        /* \"#utility.yul\":4898:4920   */\n      swap1\n      pop\n        /* \"#utility.yul\":4828:4927   */\n      swap2\n      swap1\n      pop\n      jump\t// out\n        /* \"#utility.yul\":4933:5102   */\n    tag_150:\n        /* \"#utility.yul\":5017:5028   */\n      0x00\n        /* \"#utility.yul\":5051:5057   */\n      dup3\n        /* \"#utility.yul\":5046:5049   */\n      dup3\n        /* \"#utility.yul\":5039:5058   */\n      mstore\n        /* \"#utility.yul\":5091:5095   */\n      0x20\n        /* \"#utility.yul\":5086:5089   */\n      dup3\n        /* \"#utility.yul\":5082:5096   */\n      add\n        /* \"#utility.yul\":5067:5096   */\n      swap1\n      pop\n        /* \"#utility.yul\":4933:5102   */\n      swap3\n      swap2\n      pop\n      pop\n      jump\t// out\n        /* \"#utility.yul\":5108:5415   */\n    tag_151:\n        /* \"#utility.yul\":5176:5177   */\n      0x00\n        /* \"#utility.yul\":5186:5299   */\n    tag_225:\n        /* \"#utility.yul\":5200:5206   */\n      dup4\n        /* \"#utility.yul\":5197:5198   */\n      dup2\n        /* \"#utility.yul\":5194:5207   */\n      lt\n        /* \"#utility.yul\":5186:5299   */\n      iszero\n      tag_227\n      jumpi\n        /* \"#utility.yul\":5285:5286   */\n      dup1\n        /* \"#utility.yul\":5280:5283   */\n      dup3\n        /* \"#utility.yul\":5276:5287   */\n      add\n        /* \"#utility.yul\":5270:5288   */\n      mload\n        /* \"#utility.yul\":5266:5267   */\n      dup2\n        /* \"#utility.yul\":5261:5264   */\n      dup5\n        /* \"#utility.yul\":5257:5268   */\n      add\n        /* \"#utility.yul\":5250:5289   */\n      mstore\n        /* \"#utility.yul\":5222:5224   */\n      0x20\n        /* \"#utility.yul\":5219:5220   */\n      dup2\n        /* \"#utility.yul\":5215:5225   */\n      add\n        /* \"#utility.yul\":5210:5225   */\n      swap1\n      pop\n        /* \"#utility.yul\":5186:5299   */\n      jump(tag_225)\n    tag_227:\n        /* \"#utility.yul\":5317:5323   */\n      dup4\n        /* \"#utility.yul\":5314:5315   */\n      dup2\n        /* \"#utility.yul\":5311:5324   */\n      gt\n        /* \"#utility.yul\":5308:5409   */\n      iszero\n      tag_228\n      jumpi\n        /* \"#utility.yul\":5397:5398   */\n      0x00\n        /* \"#utility.yul\":5388:5394   */\n      dup5\n        /* \"#utility.yul\":5383:5386   */\n      dup5\n        /* \"#utility.yul\":5379:5395   */\n      add\n        /* \"#utility.yul\":5372:5399   */\n      mstore\n        /* \"#utility.yul\":5308:5409   */\n    tag_228:\n        /* \"#utility.yul\":5157:5415   */\n      pop\n        /* \"#utility.yul\":5108:5415   */\n      pop\n      pop\n      pop\n      jump\t// out\n        /* \"#utility.yul\":5421:5785   */\n    tag_152:\n        /* \"#utility.yul\":5509:5512   */\n      0x00\n        /* \"#utility.yul\":5537:5576   */\n      tag_230\n        /* \"#utility.yul\":5570:5575   */\n      dup3\n        /* \"#utility.yul\":5537:5576   */\n      tag_149\n      jump\t// in\n    tag_230:\n        /* \"#utility.yul\":5592:5663   */\n      tag_231\n        /* \"#utility.yul\":5656:5662   */\n      dup2\n        /* \"#utility.yul\":5651:5654   */\n      dup6\n        /* \"#utility.yul\":5592:5663   */\n      tag_150\n      jump\t// in\n    tag_231:\n        /* \"#utility.yul\":5585:5663   */\n      swap4\n      pop\n        /* \"#utility.yul\":5672:5724   */\n      tag_232\n        /* \"#utility.yul\":5717:5723   */\n      dup2\n        /* \"#utility.yul\":5712:5715   */\n      dup6\n        /* \"#utility.yul\":5705:5709   */\n      0x20\n        /* \"#utility.yul\":5698:5703   */\n      dup7\n        /* \"#utility.yul\":5694:5710   */\n      add\n        /* \"#utility.yul\":5672:5724   */\n      tag_151\n      jump\t// in\n    tag_232:\n        /* \"#utility.yul\":5749:5778   */\n      tag_233\n        /* \"#utility.yul\":5771:5777   */\n      dup2\n        /* \"#utility.yul\":5749:5778   */\n      tag_140\n      jump\t// in\n    tag_233:\n        /* \"#utility.yul\":5744:5747   */\n      dup5\n        /* \"#utility.yul\":5740:5779   */\n      add\n        /* \"#utility.yul\":5733:5779   */\n      swap2\n      pop\n        /* \"#utility.yul\":5513:5785   */\n      pop\n        /* \"#utility.yul\":5421:5785   */\n      swap3\n      swap2\n      pop\n      pop\n      jump\t// out\n        /* \"#utility.yul\":5791:6214   */\n    tag_27:\n        /* \"#utility.yul\":5932:5936   */\n      0x00\n        /* \"#utility.yul\":5970:5972   */\n      0x40\n        /* \"#utility.yul\":5959:5968   */\n      dup3\n        /* \"#utility.yul\":5955:5973   */\n      add\n        /* \"#utility.yul\":5947:5973   */\n      swap1\n      pop\n        /* \"#utility.yul\":5983:6054   */\n      tag_235\n        /* \"#utility.yul\":6051:6052   */\n      0x00\n        /* \"#utility.yul\":6040:6049   */\n      dup4\n        /* \"#utility.yul\":6036:6053   */\n      add\n        /* \"#utility.yul\":6027:6033   */\n      dup6\n        /* \"#utility.yul\":5983:6054   */\n      tag_148\n      jump\t// in\n    tag_235:\n        /* \"#utility.yul\":6101:6110   */\n      dup2\n        /* \"#utility.yul\":6095:6099   */\n      dup2\n        /* \"#utility.yul\":6091:6111   */\n      sub\n        /* \"#utility.yul\":6086:6088   */\n      0x20\n        /* \"#utility.yul\":6075:6084   */\n      dup4\n        /* \"#utility.yul\":6071:6089   */\n      add\n        /* \"#utility.yul\":6064:6112   */\n      mstore\n        /* \"#utility.yul\":6129:6207   */\n      tag_236\n        /* \"#utility.yul\":6202:6206   */\n      dup2\n        /* \"#utility.yul\":6193:6199   */\n      dup5\n        /* \"#utility.yul\":6129:6207   */\n      tag_152\n      jump\t// in\n    tag_236:\n        /* \"#utility.yul\":6121:6207   */\n      swap1\n      pop\n        /* \"#utility.yul\":5791:6214   */\n      swap4\n      swap3\n      pop\n      pop\n      pop\n      jump\t// out\n        /* \"#utility.yul\":6220:6355   */\n    tag_153:\n        /* \"#utility.yul\":6308:6314   */\n      0x00\n        /* \"#utility.yul\":6342:6347   */\n      dup2\n        /* \"#utility.yul\":6336:6348   */\n      mload\n        /* \"#utility.yul\":6326:6348   */\n      swap1\n      pop\n        /* \"#utility.yul\":6220:6355   */\n      swap2\n      swap1\n      pop\n      jump\t// out\n        /* \"#utility.yul\":6361:6566   */\n    tag_154:\n        /* \"#utility.yul\":6481:6492   */\n      0x00\n        /* \"#utility.yul\":6515:6521   */\n      dup3\n        /* \"#utility.yul\":6510:6513   */\n      dup3\n        /* \"#utility.yul\":6503:6522   */\n      mstore\n        /* \"#utility.yul\":6555:6559   */\n      0x20\n        /* \"#utility.yul\":6550:6553   */\n      dup3\n        /* \"#utility.yul\":6546:6560   */\n      add\n        /* \"#utility.yul\":6531:6560   */\n      swap1\n      pop\n        /* \"#utility.yul\":6361:6566   */\n      swap3\n      swap2\n      pop\n      pop\n      jump\t// out\n        /* \"#utility.yul\":6572:6725   */\n    tag_155:\n        /* \"#utility.yul\":6660:6664   */\n      0x00\n        /* \"#utility.yul\":6683:6686   */\n      dup2\n        /* \"#utility.yul\":6675:6686   */\n      swap1\n      pop\n        /* \"#utility.yul\":6713:6717   */\n      0x20\n        /* \"#utility.yul\":6708:6711   */\n      dup3\n        /* \"#utility.yul\":6704:6718   */\n      add\n        /* \"#utility.yul\":6696:6718   */\n      swap1\n      pop\n        /* \"#utility.yul\":6572:6725   */\n      swap2\n      swap1\n      pop\n      jump\t// out\n        /* \"#utility.yul\":6731:6839   */\n    tag_156:\n        /* \"#utility.yul\":6808:6832   */\n      tag_241\n        /* \"#utility.yul\":6826:6831   */\n      dup2\n        /* \"#utility.yul\":6808:6832   */\n      tag_135\n      jump\t// in\n    tag_241:\n        /* \"#utility.yul\":6803:6806   */\n      dup3\n        /* \"#utility.yul\":6796:6833   */\n      mstore\n        /* \"#utility.yul\":6731:6839   */\n      pop\n      pop\n      jump\t// out\n        /* \"#utility.yul\":6845:7004   */\n    tag_157:\n        /* \"#utility.yul\":6919:6930   */\n      0x00\n        /* \"#utility.yul\":6953:6959   */\n      dup3\n        /* \"#utility.yul\":6948:6951   */\n      dup3\n        /* \"#utility.yul\":6941:6960   */\n      mstore\n        /* \"#utility.yul\":6993:6997   */\n      0x20\n        /* \"#utility.yul\":6988:6991   */\n      dup3\n        /* \"#utility.yul\":6984:6998   */\n      add\n        /* \"#utility.yul\":6969:6998   */\n      swap1\n      pop\n        /* \"#utility.yul\":6845:7004   */\n      swap3\n      swap2\n      pop\n      pop\n      jump\t// out\n        /* \"#utility.yul\":7010:7354   */\n    tag_158:\n        /* \"#utility.yul\":7088:7091   */\n      0x00\n        /* \"#utility.yul\":7116:7155   */\n      tag_244\n        /* \"#utility.yul\":7149:7154   */\n      dup3\n        /* \"#utility.yul\":7116:7155   */\n      tag_149\n      jump\t// in\n    tag_244:\n        /* \"#utility.yul\":7171:7232   */\n      tag_245\n        /* \"#utility.yul\":7225:7231   */\n      dup2\n        /* \"#utility.yul\":7220:7223   */\n      dup6\n        /* \"#utility.yul\":7171:7232   */\n      tag_157\n      jump\t// in\n    tag_245:\n        /* \"#utility.yul\":7164:7232   */\n      swap4\n      pop\n        /* \"#utility.yul\":7241:7293   */\n      tag_246\n        /* \"#utility.yul\":7286:7292   */\n      dup2\n        /* \"#utility.yul\":7281:7284   */\n      dup6\n        /* \"#utility.yul\":7274:7278   */\n      0x20\n        /* \"#utility.yul\":7267:7272   */\n      dup7\n        /* \"#utility.yul\":7263:7279   */\n      add\n        /* \"#utility.yul\":7241:7293   */\n      tag_151\n      jump\t// in\n    tag_246:\n        /* \"#utility.yul\":7318:7347   */\n      tag_247\n        /* \"#utility.yul\":7340:7346   */\n      dup2\n        /* \"#utility.yul\":7318:7347   */\n      tag_140\n      jump\t// in\n    tag_247:\n        /* \"#utility.yul\":7313:7316   */\n      dup5\n        /* \"#utility.yul\":7309:7348   */\n      add\n        /* \"#utility.yul\":7302:7348   */\n      swap2\n      pop\n        /* \"#utility.yul\":7092:7354   */\n      pop\n        /* \"#utility.yul\":7010:7354   */\n      swap3\n      swap2\n      pop\n      pop\n      jump\t// out\n        /* \"#utility.yul\":7412:8001   */\n    tag_159:\n        /* \"#utility.yul\":7513:7516   */\n      0x00\n        /* \"#utility.yul\":7549:7553   */\n      0x40\n        /* \"#utility.yul\":7544:7547   */\n      dup4\n        /* \"#utility.yul\":7540:7554   */\n      add\n        /* \"#utility.yul\":7637:7641   */\n      0x00\n        /* \"#utility.yul\":7630:7635   */\n      dup4\n        /* \"#utility.yul\":7626:7642   */\n      add\n        /* \"#utility.yul\":7620:7643   */\n      mload\n        /* \"#utility.yul\":7656:7719   */\n      tag_249\n        /* \"#utility.yul\":7713:7717   */\n      0x00\n        /* \"#utility.yul\":7708:7711   */\n      dup7\n        /* \"#utility.yul\":7704:7718   */\n      add\n        /* \"#utility.yul\":7690:7702   */\n      dup3\n        /* \"#utility.yul\":7656:7719   */\n      tag_156\n      jump\t// in\n    tag_249:\n        /* \"#utility.yul\":7564:7729   */\n      pop\n        /* \"#utility.yul\":7811:7815   */\n      0x20\n        /* \"#utility.yul\":7804:7809   */\n      dup4\n        /* \"#utility.yul\":7800:7816   */\n      add\n        /* \"#utility.yul\":7794:7817   */\n      mload\n        /* \"#utility.yul\":7864:7867   */\n      dup5\n        /* \"#utility.yul\":7858:7862   */\n      dup3\n        /* \"#utility.yul\":7854:7868   */\n      sub\n        /* \"#utility.yul\":7847:7851   */\n      0x20\n        /* \"#utility.yul\":7842:7845   */\n      dup7\n        /* \"#utility.yul\":7838:7852   */\n      add\n        /* \"#utility.yul\":7831:7869   */\n      mstore\n        /* \"#utility.yul\":7890:7963   */\n      tag_250\n        /* \"#utility.yul\":7958:7962   */\n      dup3\n        /* \"#utility.yul\":7944:7956   */\n      dup3\n        /* \"#utility.yul\":7890:7963   */\n      tag_158\n      jump\t// in\n    tag_250:\n        /* \"#utility.yul\":7882:7963   */\n      swap2\n      pop\n        /* \"#utility.yul\":7739:7974   */\n      pop\n        /* \"#utility.yul\":7991:7995   */\n      dup1\n        /* \"#utility.yul\":7984:7995   */\n      swap2\n      pop\n        /* \"#utility.yul\":7518:8001   */\n      pop\n        /* \"#utility.yul\":7412:8001   */\n      swap3\n      swap2\n      pop\n      pop\n      jump\t// out\n        /* \"#utility.yul\":8007:8247   */\n    tag_160:\n        /* \"#utility.yul\":8118:8128   */\n      0x00\n        /* \"#utility.yul\":8153:8241   */\n      tag_252\n        /* \"#utility.yul\":8237:8240   */\n      dup4\n        /* \"#utility.yul\":8229:8235   */\n      dup4\n        /* \"#utility.yul\":8153:8241   */\n      tag_159\n      jump\t// in\n    tag_252:\n        /* \"#utility.yul\":8139:8241   */\n      swap1\n      pop\n        /* \"#utility.yul\":8007:8247   */\n      swap3\n      swap2\n      pop\n      pop\n      jump\t// out\n        /* \"#utility.yul\":8253:8387   */\n    tag_161:\n        /* \"#utility.yul\":8344:8348   */\n      0x00\n        /* \"#utility.yul\":8376:8380   */\n      0x20\n        /* \"#utility.yul\":8371:8374   */\n      dup3\n        /* \"#utility.yul\":8367:8381   */\n      add\n        /* \"#utility.yul\":8359:8381   */\n      swap1\n      pop\n        /* \"#utility.yul\":8253:8387   */\n      swap2\n      swap1\n      pop\n      jump\t// out\n        /* \"#utility.yul\":8449:9528   */\n    tag_162:\n        /* \"#utility.yul\":8610:8613   */\n      0x00\n        /* \"#utility.yul\":8639:8714   */\n      tag_255\n        /* \"#utility.yul\":8708:8713   */\n      dup3\n        /* \"#utility.yul\":8639:8714   */\n      tag_153\n      jump\t// in\n    tag_255:\n        /* \"#utility.yul\":8730:8837   */\n      tag_256\n        /* \"#utility.yul\":8830:8836   */\n      dup2\n        /* \"#utility.yul\":8825:8828   */\n      dup6\n        /* \"#utility.yul\":8730:8837   */\n      tag_154\n      jump\t// in\n    tag_256:\n        /* \"#utility.yul\":8723:8837   */\n      swap4\n      pop\n        /* \"#utility.yul\":8863:8866   */\n      dup4\n        /* \"#utility.yul\":8908:8912   */\n      0x20\n        /* \"#utility.yul\":8900:8906   */\n      dup3\n        /* \"#utility.yul\":8896:8913   */\n      mul\n        /* \"#utility.yul\":8891:8894   */\n      dup6\n        /* \"#utility.yul\":8887:8914   */\n      add\n        /* \"#utility.yul\":8938:9015   */\n      tag_257\n        /* \"#utility.yul\":9009:9014   */\n      dup6\n        /* \"#utility.yul\":8938:9015   */\n      tag_155\n      jump\t// in\n    tag_257:\n        /* \"#utility.yul\":9038:9045   */\n      dup1\n        /* \"#utility.yul\":9069:9070   */\n      0x00\n        /* \"#utility.yul\":9054:9483   */\n    tag_258:\n        /* \"#utility.yul\":9079:9085   */\n      dup6\n        /* \"#utility.yul\":9076:9077   */\n      dup2\n        /* \"#utility.yul\":9073:9086   */\n      lt\n        /* \"#utility.yul\":9054:9483   */\n      iszero\n      tag_260\n      jumpi\n        /* \"#utility.yul\":9150:9159   */\n      dup5\n        /* \"#utility.yul\":9144:9148   */\n      dup5\n        /* \"#utility.yul\":9140:9160   */\n      sub\n        /* \"#utility.yul\":9135:9138   */\n      dup10\n        /* \"#utility.yul\":9128:9161   */\n      mstore\n        /* \"#utility.yul\":9201:9207   */\n      dup2\n        /* \"#utility.yul\":9195:9208   */\n      mload\n        /* \"#utility.yul\":9229:9335   */\n      tag_261\n        /* \"#utility.yul\":9330:9334   */\n      dup6\n        /* \"#utility.yul\":9315:9328   */\n      dup3\n        /* \"#utility.yul\":9229:9335   */\n      tag_160\n      jump\t// in\n    tag_261:\n        /* \"#utility.yul\":9221:9335   */\n      swap5\n      pop\n        /* \"#utility.yul\":9358:9439   */\n      tag_262\n        /* \"#utility.yul\":9432:9438   */\n      dup4\n        /* \"#utility.yul\":9358:9439   */\n      tag_161\n      jump\t// in\n    tag_262:\n        /* \"#utility.yul\":9348:9439   */\n      swap3\n      pop\n        /* \"#utility.yul\":9468:9472   */\n      0x20\n        /* \"#utility.yul\":9463:9466   */\n      dup11\n        /* \"#utility.yul\":9459:9473   */\n      add\n        /* \"#utility.yul\":9452:9473   */\n      swap10\n      pop\n        /* \"#utility.yul\":9114:9483   */\n      pop\n        /* \"#utility.yul\":9101:9102   */\n      0x01\n        /* \"#utility.yul\":9098:9099   */\n      dup2\n        /* \"#utility.yul\":9094:9103   */\n      add\n        /* \"#utility.yul\":9089:9103   */\n      swap1\n      pop\n        /* \"#utility.yul\":9054:9483   */\n      jump(tag_258)\n    tag_260:\n        /* \"#utility.yul\":9058:9072   */\n      pop\n        /* \"#utility.yul\":9499:9503   */\n      dup3\n        /* \"#utility.yul\":9492:9503   */\n      swap8\n      pop\n        /* \"#utility.yul\":9519:9522   */\n      dup8\n        /* \"#utility.yul\":9512:9522   */\n      swap6\n      pop\n        /* \"#utility.yul\":8615:9528   */\n      pop\n      pop\n      pop\n      pop\n      pop\n        /* \"#utility.yul\":8449:9528   */\n      swap3\n      swap2\n      pop\n      pop\n      jump\t// out\n        /* \"#utility.yul\":9534:9991   */\n    tag_31:\n        /* \"#utility.yul\":9719:9723   */\n      0x00\n        /* \"#utility.yul\":9757:9759   */\n      0x20\n        /* \"#utility.yul\":9746:9755   */\n      dup3\n        /* \"#utility.yul\":9742:9760   */\n      add\n        /* \"#utility.yul\":9734:9760   */\n      swap1\n      pop\n        /* \"#utility.yul\":9806:9815   */\n      dup2\n        /* \"#utility.yul\":9800:9804   */\n      dup2\n        /* \"#utility.yul\":9796:9816   */\n      sub\n        /* \"#utility.yul\":9792:9793   */\n      0x00\n        /* \"#utility.yul\":9781:9790   */\n      dup4\n        /* \"#utility.yul\":9777:9794   */\n      add\n        /* \"#utility.yul\":9770:9817   */\n      mstore\n        /* \"#utility.yul\":9834:9984   */\n      tag_264\n        /* \"#utility.yul\":9979:9983   */\n      dup2\n        /* \"#utility.yul\":9970:9976   */\n      dup5\n        /* \"#utility.yul\":9834:9984   */\n      tag_162\n      jump\t// in\n    tag_264:\n        /* \"#utility.yul\":9826:9984   */\n      swap1\n      pop\n        /* \"#utility.yul\":9534:9991   */\n      swap3\n      swap2\n      pop\n      pop\n      jump\t// out\n        /* \"#utility.yul\":9997:10506   */\n    tag_34:\n        /* \"#utility.yul\":10066:10072   */\n      0x00\n        /* \"#utility.yul\":10115:10117   */\n      0x20\n        /* \"#utility.yul\":10103:10112   */\n      dup3\n        /* \"#utility.yul\":10094:10101   */\n      dup5\n        /* \"#utility.yul\":10090:10113   */\n      sub\n        /* \"#utility.yul\":10086:10118   */\n      slt\n        /* \"#utility.yul\":10083:10202   */\n      iszero\n      tag_266\n      jumpi\n        /* \"#utility.yul\":10121:10200   */\n      tag_267\n      tag_133\n      jump\t// in\n    tag_267:\n        /* \"#utility.yul\":10083:10202   */\n    tag_266:\n        /* \"#utility.yul\":10269:10270   */\n      0x00\n        /* \"#utility.yul\":10258:10267   */\n      dup3\n        /* \"#utility.yul\":10254:10271   */\n      add\n        /* \"#utility.yul\":10241:10272   */\n      calldataload\n        /* \"#utility.yul\":10299:10317   */\n      0xffffffffffffffff\n        /* \"#utility.yul\":10291:10297   */\n      dup2\n        /* \"#utility.yul\":10288:10318   */\n      gt\n        /* \"#utility.yul\":10285:10402   */\n      iszero\n      tag_268\n      jumpi\n        /* \"#utility.yul\":10321:10400   */\n      tag_269\n      tag_134\n      jump\t// in\n    tag_269:\n        /* \"#utility.yul\":10285:10402   */\n    tag_268:\n        /* \"#utility.yul\":10426:10489   */\n      tag_270\n        /* \"#utility.yul\":10481:10488   */\n      dup5\n        /* \"#utility.yul\":10472:10478   */\n      dup3\n        /* \"#utility.yul\":10461:10470   */\n      dup6\n        /* \"#utility.yul\":10457:10479   */\n      add\n        /* \"#utility.yul\":10426:10489   */\n      tag_147\n      jump\t// in\n    tag_270:\n        /* \"#utility.yul\":10416:10489   */\n      swap2\n      pop\n        /* \"#utility.yul\":10212:10499   */\n      pop\n        /* \"#utility.yul\":9997:10506   */\n      swap3\n      swap2\n      pop\n      pop\n      jump\t// out\n        /* \"#utility.yul\":10512:10734   */\n    tag_40:\n        /* \"#utility.yul\":10605:10609   */\n      0x00\n        /* \"#utility.yul\":10643:10645   */\n      0x20\n        /* \"#utility.yul\":10632:10641   */\n      dup3\n        /* \"#utility.yul\":10628:10646   */\n      add\n        /* \"#utility.yul\":10620:10646   */\n      swap1\n      pop\n        /* \"#utility.yul\":10656:10727   */\n      tag_272\n        /* \"#utility.yul\":10724:10725   */\n      0x00\n        /* \"#utility.yul\":10713:10722   */\n      dup4\n        /* \"#utility.yul\":10709:10726   */\n      add\n        /* \"#utility.yul\":10700:10706   */\n      dup5\n        /* \"#utility.yul\":10656:10727   */\n      tag_148\n      jump\t// in\n    tag_272:\n        /* \"#utility.yul\":10512:10734   */\n      swap3\n      swap2\n      pop\n      pop\n      jump\t// out\n        /* \"#utility.yul\":10740:10920   */\n    tag_44:\n        /* \"#utility.yul\":10788:10865   */\n      0x4e487b7100000000000000000000000000000000000000000000000000000000\n        /* \"#utility.yul\":10785:10786   */\n      0x00\n        /* \"#utility.yul\":10778:10866   */\n      mstore\n        /* \"#utility.yul\":10885:10889   */\n      0x32\n        /* \"#utility.yul\":10882:10883   */\n      0x04\n        /* \"#utility.yul\":10875:10890   */\n      mstore\n        /* \"#utility.yul\":10909:10913   */\n      0x24\n        /* \"#utility.yul\":10906:10907   */\n      0x00\n        /* \"#utility.yul\":10899:10914   */\n      revert\n        /* \"#utility.yul\":10926:11106   */\n    tag_163:\n        /* \"#utility.yul\":10974:11051   */\n      0x4e487b7100000000000000000000000000000000000000000000000000000000\n        /* \"#utility.yul\":10971:10972   */\n      0x00\n        /* \"#utility.yul\":10964:11052   */\n      mstore\n        /* \"#utility.yul\":11071:11075   */\n      0x22\n        /* \"#utility.yul\":11068:11069   */\n      0x04\n        /* \"#utility.yul\":11061:11076   */\n      mstore\n        /* \"#utility.yul\":11095:11099   */\n      0x24\n        /* \"#utility.yul\":11092:11093   */\n      0x00\n        /* \"#utility.yul\":11085:11100   */\n      revert\n        /* \"#utility.yul\":11112:11432   */\n    tag_52:\n        /* \"#utility.yul\":11156:11162   */\n      0x00\n        /* \"#utility.yul\":11193:11194   */\n      0x02\n        /* \"#utility.yul\":11187:11191   */\n      dup3\n        /* \"#utility.yul\":11183:11195   */\n      div\n        /* \"#utility.yul\":11173:11195   */\n      swap1\n      pop\n        /* \"#utility.yul\":11240:11241   */\n      0x01\n        /* \"#utility.yul\":11234:11238   */\n      dup3\n        /* \"#utility.yul\":11230:11242   */\n      and\n        /* \"#utility.yul\":11261:11279   */\n      dup1\n        /* \"#utility.yul\":11251:11332   */\n      tag_276\n      jumpi\n        /* \"#utility.yul\":11317:11321   */\n      0x7f\n        /* \"#utility.yul\":11309:11315   */\n      dup3\n        /* \"#utility.yul\":11305:11322   */\n      and\n        /* \"#utility.yul\":11295:11322   */\n      swap2\n      pop\n        /* \"#utility.yul\":11251:11332   */\n    tag_276:\n        /* \"#utility.yul\":11379:11381   */\n      0x20\n        /* \"#utility.yul\":11371:11377   */\n      dup3\n        /* \"#utility.yul\":11368:11382   */\n      lt\n        /* \"#utility.yul\":11348:11366   */\n      dup2\n        /* \"#utility.yul\":11345:11383   */\n      eq\n        /* \"#utility.yul\":11342:11426   */\n      iszero\n      tag_277\n      jumpi\n        /* \"#utility.yul\":11398:11416   */\n      tag_278\n      tag_163\n      jump\t// in\n    tag_278:\n        /* \"#utility.yul\":11342:11426   */\n    tag_277:\n        /* \"#utility.yul\":11163:11432   */\n      pop\n        /* \"#utility.yul\":11112:11432   */\n      swap2\n      swap1\n      pop\n      jump\t// out\n        /* \"#utility.yul\":11438:11618   */\n    tag_164:\n        /* \"#utility.yul\":11486:11563   */\n      0x4e487b7100000000000000000000000000000000000000000000000000000000\n        /* \"#utility.yul\":11483:11484   */\n      0x00\n        /* \"#utility.yul\":11476:11564   */\n      mstore\n        /* \"#utility.yul\":11583:11587   */\n      0x11\n        /* \"#utility.yul\":11580:11581   */\n      0x04\n        /* \"#utility.yul\":11573:11588   */\n      mstore\n        /* \"#utility.yul\":11607:11611   */\n      0x24\n        /* \"#utility.yul\":11604:11605   */\n      0x00\n        /* \"#utility.yul\":11597:11612   */\n      revert\n        /* \"#utility.yul\":11624:11815   */\n    tag_87:\n        /* \"#utility.yul\":11664:11668   */\n      0x00\n        /* \"#utility.yul\":11684:11704   */\n      tag_281\n        /* \"#utility.yul\":11702:11703   */\n      dup3\n        /* \"#utility.yul\":11684:11704   */\n      tag_135\n      jump\t// in\n    tag_281:\n        /* \"#utility.yul\":11679:11704   */\n      swap2\n      pop\n        /* \"#utility.yul\":11718:11738   */\n      tag_282\n        /* \"#utility.yul\":11736:11737   */\n      dup4\n        /* \"#utility.yul\":11718:11738   */\n      tag_135\n      jump\t// in\n    tag_282:\n        /* \"#utility.yul\":11713:11738   */\n      swap3\n      pop\n        /* \"#utility.yul\":11757:11758   */\n      dup3\n        /* \"#utility.yul\":11754:11755   */\n      dup3\n        /* \"#utility.yul\":11751:11759   */\n      lt\n        /* \"#utility.yul\":11748:11782   */\n      iszero\n      tag_283\n      jumpi\n        /* \"#utility.yul\":11762:11780   */\n      tag_284\n      tag_164\n      jump\t// in\n    tag_284:\n        /* \"#utility.yul\":11748:11782   */\n    tag_283:\n        /* \"#utility.yul\":11807:11808   */\n      dup3\n        /* \"#utility.yul\":11804:11805   */\n      dup3\n        /* \"#utility.yul\":11800:11809   */\n      sub\n        /* \"#utility.yul\":11792:11809   */\n      swap1\n      pop\n        /* \"#utility.yul\":11624:11815   */\n      swap3\n      swap2\n      pop\n      pop\n      jump\t// out\n        /* \"#utility.yul\":11821:12054   */\n    tag_109:\n        /* \"#utility.yul\":11860:11863   */\n      0x00\n        /* \"#utility.yul\":11883:11907   */\n      tag_286\n        /* \"#utility.yul\":11901:11906   */\n      dup3\n        /* \"#utility.yul\":11883:11907   */\n      tag_135\n      jump\t// in\n    tag_286:\n        /* \"#utility.yul\":11874:11907   */\n      swap2\n      pop\n        /* \"#utility.yul\":11929:11995   */\n      0xffffffffffffffffffffffffffffffffffffffffffffffffffffffffffffffff\n        /* \"#utility.yul\":11922:11927   */\n      dup3\n        /* \"#utility.yul\":11919:11996   */\n      eq\n        /* \"#utility.yul\":11916:12019   */\n      iszero\n      tag_287\n      jumpi\n        /* \"#utility.yul\":11999:12017   */\n      tag_288\n      tag_164\n      jump\t// in\n    tag_288:\n        /* \"#utility.yul\":11916:12019   */\n    tag_287:\n        /* \"#utility.yul\":12046:12047   */\n      0x01\n        /* \"#utility.yul\":12039:12044   */\n      dup3\n        /* \"#utility.yul\":12035:12048   */\n      add\n        /* \"#utility.yul\":12028:12048   */\n      swap1\n      pop\n        /* \"#utility.yul\":11821:12054   */\n      swap2\n      swap1\n      pop\n      jump\t// out\n\n    auxdata: 0xa2646970667358221220e373997aada7ce9d4a548190648b30b8ec287ce98033741b8fd00c8ff9b2509c64736f6c634300080a0033\n}\n",
				"bytecode": {
					"linkReferences": {},
					"object": "608060405234801561001057600080fd5b50610e9c806100206000396000f3fe608060405234801561001057600080fd5b506004361061007d5760003560e01c806353cee4c61161005b57806353cee4c6146100d6578063af6000d614610107578063efddcec014610125578063f6f8b021146101565761007d565b8063403edd791461008257806340735fcc1461009e578063411f8c84146100ba575b600080fd5b61009c6004803603810190610097919061098d565b610174565b005b6100b860048036038101906100b391906109fc565b610211565b005b6100d460048036038101906100cf9190610a58565b61027e565b005b6100f060048036038101906100eb9190610a58565b6102be565b6040516100fe929190610b1c565b60405180910390f35b61010f6103a2565b60405161011c9190610ca4565b60405180910390f35b61013f600480360381019061013a9190610cc6565b61049d565b60405161014d929190610b1c565b60405180910390f35b61015e610681565b60405161016b9190610d0f565b60405180910390f35b600080848154811061018957610188610d2a565b5b90600052602060002090600202019050828160000181905550818160010190805190602001906101ba92919061068d565b5080600085815481106101d0576101cf610d2a565b5b90600052602060002090600202016000820154816000015560018201816001019080546101fc90610d88565b610207929190610713565b5090505050505050565b6000604051806040016040528084815260200183815250908060018154018082558091505060019003906000526020600020906002020160009091909190915060008201518160000155602082015181600101908051906020019061027792919061068d565b5050505050565b6000818154811061029257610291610d2a565b5b90600052602060002090600202016000808201600090556001820160006102b991906107a0565b505050565b6000606060008084815481106102d7576102d6610d2a565b5b90600052602060002090600202016040518060400160405290816000820154815260200160018201805461030a90610d88565b80601f016020809104026020016040519081016040528092919081815260200182805461033690610d88565b80156103835780601f1061035857610100808354040283529160200191610383565b820191906000526020600020905b81548152906001019060200180831161036657829003601f168201915b5050505050815250509050806000015181602001519250925050915091565b60606000805480602002602001604051908101604052809291908181526020016000905b8282101561049457838290600052602060002090600202016040518060400160405290816000820154815260200160018201805461040390610d88565b80601f016020809104026020016040519081016040528092919081815260200182805461042f90610d88565b801561047c5780601f106104515761010080835404028352916020019161047c565b820191906000526020600020905b81548152906001019060200180831161045f57829003601f168201915b505050505081525050815260200190600101906103c6565b50505050905090565b6000606060005b60016000805490506104b69190610de9565b81101561067a5760008082815481106104d2576104d1610d2a565b5b906000526020600020906002020160010180546104ee90610d88565b80601f016020809104026020016040519081016040528092919081815260200182805461051a90610d88565b80156105675780601f1061053c57610100808354040283529160200191610567565b820191906000526020600020905b81548152906001019060200180831161054a57829003601f168201915b50505050509050808051906020012085805190602001201415610666576000828154811061059857610597610d2a565b5b906000526020600020906002020160000154600083815481106105be576105bd610d2a565b5b90600052602060002090600202016001018080546105db90610d88565b80601f016020809104026020016040519081016040528092919081815260200182805461060790610d88565b80156106545780601f1061062957610100808354040283529160200191610654565b820191906000526020600020905b81548152906001019060200180831161063757829003601f168201915b5050505050905093509350505061067c565b50808061067290610e1d565b9150506104a4565b505b915091565b60008080549050905090565b82805461069990610d88565b90600052602060002090601f0160209004810192826106bb5760008555610702565b82601f106106d457805160ff1916838001178555610702565b82800160010185558215610702579182015b828111156107015782518255916020019190600101906106e6565b5b50905061070f91906107e0565b5090565b82805461071f90610d88565b90600052602060002090601f016020900481019282610741576000855561078f565b82601f10610752578054855561078f565b8280016001018555821561078f57600052602060002091601f016020900482015b8281111561078e578254825591600101919060010190610773565b5b50905061079c91906107e0565b5090565b5080546107ac90610d88565b6000825580601f106107be57506107dd565b601f0160209004906000526020600020908101906107dc91906107e0565b5b50565b5b808211156107f95760008160009055506001016107e1565b5090565b6000604051905090565b600080fd5b600080fd5b6000819050919050565b61082481610811565b811461082f57600080fd5b50565b6000813590506108418161081b565b92915050565b600080fd5b600080fd5b6000601f19601f8301169050919050565b7f4e487b7100000000000000000000000000000000000000000000000000000000600052604160045260246000fd5b61089a82610851565b810181811067ffffffffffffffff821117156108b9576108b8610862565b5b80604052505050565b60006108cc6107fd565b90506108d88282610891565b919050565b600067ffffffffffffffff8211156108f8576108f7610862565b5b61090182610851565b9050602081019050919050565b82818337600083830152505050565b600061093061092b846108dd565b6108c2565b90508281526020810184848401111561094c5761094b61084c565b5b61095784828561090e565b509392505050565b600082601f83011261097457610973610847565b5b813561098484826020860161091d565b91505092915050565b6000806000606084860312156109a6576109a5610807565b5b60006109b486828701610832565b93505060206109c586828701610832565b925050604084013567ffffffffffffffff8111156109e6576109e561080c565b5b6109f28682870161095f565b9150509250925092565b60008060408385031215610a1357610a12610807565b5b6000610a2185828601610832565b925050602083013567ffffffffffffffff811115610a4257610a4161080c565b5b610a4e8582860161095f565b9150509250929050565b600060208284031215610a6e57610a6d610807565b5b6000610a7c84828501610832565b91505092915050565b610a8e81610811565b82525050565b600081519050919050565b600082825260208201905092915050565b60005b83811015610ace578082015181840152602081019050610ab3565b83811115610add576000848401525b50505050565b6000610aee82610a94565b610af88185610a9f565b9350610b08818560208601610ab0565b610b1181610851565b840191505092915050565b6000604082019050610b316000830185610a85565b8181036020830152610b438184610ae3565b90509392505050565b600081519050919050565b600082825260208201905092915050565b6000819050602082019050919050565b610b8181610811565b82525050565b600082825260208201905092915050565b6000610ba382610a94565b610bad8185610b87565b9350610bbd818560208601610ab0565b610bc681610851565b840191505092915050565b6000604083016000830151610be96000860182610b78565b5060208301518482036020860152610c018282610b98565b9150508091505092915050565b6000610c1a8383610bd1565b905092915050565b6000602082019050919050565b6000610c3a82610b4c565b610c448185610b57565b935083602082028501610c5685610b68565b8060005b85811015610c925784840389528151610c738582610c0e565b9450610c7e83610c22565b925060208a01995050600181019050610c5a565b50829750879550505050505092915050565b60006020820190508181036000830152610cbe8184610c2f565b905092915050565b600060208284031215610cdc57610cdb610807565b5b600082013567ffffffffffffffff811115610cfa57610cf961080c565b5b610d068482850161095f565b91505092915050565b6000602082019050610d246000830184610a85565b92915050565b7f4e487b7100000000000000000000000000000000000000000000000000000000600052603260045260246000fd5b7f4e487b7100000000000000000000000000000000000000000000000000000000600052602260045260246000fd5b60006002820490506001821680610da057607f821691505b60208210811415610db457610db3610d59565b5b50919050565b7f4e487b7100000000000000000000000000000000000000000000000000000000600052601160045260246000fd5b6000610df482610811565b9150610dff83610811565b925082821015610e1257610e11610dba565b5b828203905092915050565b6000610e2882610811565b91507fffffffffffffffffffffffffffffffffffffffffffffffffffffffffffffffff821415610e5b57610e5a610dba565b5b60018201905091905056fea2646970667358221220e373997aada7ce9d4a548190648b30b8ec287ce98033741b8fd00c8ff9b2509c64736f6c634300080a0033",
					"opcodes": "PUSH1 0x80 PUSH1 0x40 MSTORE CALLVALUE DUP1 ISZERO PUSH2 0x10 JUMPI PUSH1 0x0 DUP1 REVERT JUMPDEST POP PUSH2 0xE9C DUP1 PUSH2 0x20 PUSH1 0x0 CODECOPY PUSH1 0x0 RETURN INVALID PUSH1 0x80 PUSH1 0x40 MSTORE CALLVALUE DUP1 ISZERO PUSH2 0x10 JUMPI PUSH1 0x0 DUP1 REVERT JUMPDEST POP PUSH1 0x4 CALLDATASIZE LT PUSH2 0x7D JUMPI PUSH1 0x0 CALLDATALOAD PUSH1 0xE0 SHR DUP1 PUSH4 0x53CEE4C6 GT PUSH2 0x5B JUMPI DUP1 PUSH4 0x53CEE4C6 EQ PUSH2 0xD6 JUMPI DUP1 PUSH4 0xAF6000D6 EQ PUSH2 0x107 JUMPI DUP1 PUSH4 0xEFDDCEC0 EQ PUSH2 0x125 JUMPI DUP1 PUSH4 0xF6F8B021 EQ PUSH2 0x156 JUMPI PUSH2 0x7D JUMP JUMPDEST DUP1 PUSH4 0x403EDD79 EQ PUSH2 0x82 JUMPI DUP1 PUSH4 0x40735FCC EQ PUSH2 0x9E JUMPI DUP1 PUSH4 0x411F8C84 EQ PUSH2 0xBA JUMPI JUMPDEST PUSH1 0x0 DUP1 REVERT JUMPDEST PUSH2 0x9C PUSH1 0x4 DUP1 CALLDATASIZE SUB DUP2 ADD SWAP1 PUSH2 0x97 SWAP2 SWAP1 PUSH2 0x98D JUMP JUMPDEST PUSH2 0x174 JUMP JUMPDEST STOP JUMPDEST PUSH2 0xB8 PUSH1 0x4 DUP1 CALLDATASIZE SUB DUP2 ADD SWAP1 PUSH2 0xB3 SWAP2 SWAP1 PUSH2 0x9FC JUMP JUMPDEST PUSH2 0x211 JUMP JUMPDEST STOP JUMPDEST PUSH2 0xD4 PUSH1 0x4 DUP1 CALLDATASIZE SUB DUP2 ADD SWAP1 PUSH2 0xCF SWAP2 SWAP1 PUSH2 0xA58 JUMP JUMPDEST PUSH2 0x27E JUMP JUMPDEST STOP JUMPDEST PUSH2 0xF0 PUSH1 0x4 DUP1 CALLDATASIZE SUB DUP2 ADD SWAP1 PUSH2 0xEB SWAP2 SWAP1 PUSH2 0xA58 JUMP JUMPDEST PUSH2 0x2BE JUMP JUMPDEST PUSH1 0x40 MLOAD PUSH2 0xFE SWAP3 SWAP2 SWAP1 PUSH2 0xB1C JUMP JUMPDEST PUSH1 0x40 MLOAD DUP1 SWAP2 SUB SWAP1 RETURN JUMPDEST PUSH2 0x10F PUSH2 0x3A2 JUMP JUMPDEST PUSH1 0x40 MLOAD PUSH2 0x11C SWAP2 SWAP1 PUSH2 0xCA4 JUMP JUMPDEST PUSH1 0x40 MLOAD DUP1 SWAP2 SUB SWAP1 RETURN JUMPDEST PUSH2 0x13F PUSH1 0x4 DUP1 CALLDATASIZE SUB DUP2 ADD SWAP1 PUSH2 0x13A SWAP2 SWAP1 PUSH2 0xCC6 JUMP JUMPDEST PUSH2 0x49D JUMP JUMPDEST PUSH1 0x40 MLOAD PUSH2 0x14D SWAP3 SWAP2 SWAP1 PUSH2 0xB1C JUMP JUMPDEST PUSH1 0x40 MLOAD DUP1 SWAP2 SUB SWAP1 RETURN JUMPDEST PUSH2 0x15E PUSH2 0x681 JUMP JUMPDEST PUSH1 0x40 MLOAD PUSH2 0x16B SWAP2 SWAP1 PUSH2 0xD0F JUMP JUMPDEST PUSH1 0x40 MLOAD DUP1 SWAP2 SUB SWAP1 RETURN JUMPDEST PUSH1 0x0 DUP1 DUP5 DUP2 SLOAD DUP2 LT PUSH2 0x189 JUMPI PUSH2 0x188 PUSH2 0xD2A JUMP JUMPDEST JUMPDEST SWAP1 PUSH1 0x0 MSTORE PUSH1 0x20 PUSH1 0x0 KECCAK256 SWAP1 PUSH1 0x2 MUL ADD SWAP1 POP DUP3 DUP2 PUSH1 0x0 ADD DUP2 SWAP1 SSTORE POP DUP2 DUP2 PUSH1 0x1 ADD SWAP1 DUP1 MLOAD SWAP1 PUSH1 0x20 ADD SWAP1 PUSH2 0x1BA SWAP3 SWAP2 SWAP1 PUSH2 0x68D JUMP JUMPDEST POP DUP1 PUSH1 0x0 DUP6 DUP2 SLOAD DUP2 LT PUSH2 0x1D0 JUMPI PUSH2 0x1CF PUSH2 0xD2A JUMP JUMPDEST JUMPDEST SWAP1 PUSH1 0x0 MSTORE PUSH1 0x20 PUSH1 0x0 KECCAK256 SWAP1 PUSH1 0x2 MUL ADD PUSH1 0x0 DUP3 ADD SLOAD DUP2 PUSH1 0x0 ADD SSTORE PUSH1 0x1 DUP3 ADD DUP2 PUSH1 0x1 ADD SWAP1 DUP1 SLOAD PUSH2 0x1FC SWAP1 PUSH2 0xD88 JUMP JUMPDEST PUSH2 0x207 SWAP3 SWAP2 SWAP1 PUSH2 0x713 JUMP JUMPDEST POP SWAP1 POP POP POP POP POP POP JUMP JUMPDEST PUSH1 0x0 PUSH1 0x40 MLOAD DUP1 PUSH1 0x40 ADD PUSH1 0x40 MSTORE DUP1 DUP5 DUP2 MSTORE PUSH1 0x20 ADD DUP4 DUP2 MSTORE POP SWAP1 DUP1 PUSH1 0x1 DUP2 SLOAD ADD DUP1 DUP3 SSTORE DUP1 SWAP2 POP POP PUSH1 0x1 SWAP1 SUB SWAP1 PUSH1 0x0 MSTORE PUSH1 0x20 PUSH1 0x0 KECCAK256 SWAP1 PUSH1 0x2 MUL ADD PUSH1 0x0 SWAP1 SWAP2 SWAP1 SWAP2 SWAP1 SWAP2 POP PUSH1 0x0 DUP3 ADD MLOAD DUP2 PUSH1 0x0 ADD SSTORE PUSH1 0x20 DUP3 ADD MLOAD DUP2 PUSH1 0x1 ADD SWAP1 DUP1 MLOAD SWAP1 PUSH1 0x20 ADD SWAP1 PUSH2 0x277 SWAP3 SWAP2 SWAP1 PUSH2 0x68D JUMP JUMPDEST POP POP POP POP POP JUMP JUMPDEST PUSH1 0x0 DUP2 DUP2 SLOAD DUP2 LT PUSH2 0x292 JUMPI PUSH2 0x291 PUSH2 0xD2A JUMP JUMPDEST JUMPDEST SWAP1 PUSH1 0x0 MSTORE PUSH1 0x20 PUSH1 0x0 KECCAK256 SWAP1 PUSH1 0x2 MUL ADD PUSH1 0x0 DUP1 DUP3 ADD PUSH1 0x0 SWAP1 SSTORE PUSH1 0x1 DUP3 ADD PUSH1 0x0 PUSH2 0x2B9 SWAP2 SWAP1 PUSH2 0x7A0 JUMP JUMPDEST POP POP POP JUMP JUMPDEST PUSH1 0x0 PUSH1 0x60 PUSH1 0x0 DUP1 DUP5 DUP2 SLOAD DUP2 LT PUSH2 0x2D7 JUMPI PUSH2 0x2D6 PUSH2 0xD2A JUMP JUMPDEST JUMPDEST SWAP1 PUSH1 0x0 MSTORE PUSH1 0x20 PUSH1 0x0 KECCAK256 SWAP1 PUSH1 0x2 MUL ADD PUSH1 0x40 MLOAD DUP1 PUSH1 0x40 ADD PUSH1 0x40 MSTORE SWAP1 DUP2 PUSH1 0x0 DUP3 ADD SLOAD DUP2 MSTORE PUSH1 0x20 ADD PUSH1 0x1 DUP3 ADD DUP1 SLOAD PUSH2 0x30A SWAP1 PUSH2 0xD88 JUMP JUMPDEST DUP1 PUSH1 0x1F ADD PUSH1 0x20 DUP1 SWAP2 DIV MUL PUSH1 0x20 ADD PUSH1 0x40 MLOAD SWAP1 DUP2 ADD PUSH1 0x40 MSTORE DUP1 SWAP3 SWAP2 SWAP1 DUP2 DUP2 MSTORE PUSH1 0x20 ADD DUP3 DUP1 SLOAD PUSH2 0x336 SWAP1 PUSH2 0xD88 JUMP JUMPDEST DUP1 ISZERO PUSH2 0x383 JUMPI DUP1 PUSH1 0x1F LT PUSH2 0x358 JUMPI PUSH2 0x100 DUP1 DUP4 SLOAD DIV MUL DUP4 MSTORE SWAP2 PUSH1 0x20 ADD SWAP2 PUSH2 0x383 JUMP JUMPDEST DUP3 ADD SWAP2 SWAP1 PUSH1 0x0 MSTORE PUSH1 0x20 PUSH1 0x0 KECCAK256 SWAP1 JUMPDEST DUP2 SLOAD DUP2 MSTORE SWAP1 PUSH1 0x1 ADD SWAP1 PUSH1 0x20 ADD DUP1 DUP4 GT PUSH2 0x366 JUMPI DUP3 SWAP1 SUB PUSH1 0x1F AND DUP3 ADD SWAP2 JUMPDEST POP POP POP POP POP DUP2 MSTORE POP POP SWAP1 POP DUP1 PUSH1 0x0 ADD MLOAD DUP2 PUSH1 0x20 ADD MLOAD SWAP3 POP SWAP3 POP POP SWAP2 POP SWAP2 JUMP JUMPDEST PUSH1 0x60 PUSH1 0x0 DUP1 SLOAD DUP1 PUSH1 0x20 MUL PUSH1 0x20 ADD PUSH1 0x40 MLOAD SWAP1 DUP2 ADD PUSH1 0x40 MSTORE DUP1 SWAP3 SWAP2 SWAP1 DUP2 DUP2 MSTORE PUSH1 0x20 ADD PUSH1 0x0 SWAP1 JUMPDEST DUP3 DUP3 LT ISZERO PUSH2 0x494 JUMPI DUP4 DUP3 SWAP1 PUSH1 0x0 MSTORE PUSH1 0x20 PUSH1 0x0 KECCAK256 SWAP1 PUSH1 0x2 MUL ADD PUSH1 0x40 MLOAD DUP1 PUSH1 0x40 ADD PUSH1 0x40 MSTORE SWAP1 DUP2 PUSH1 0x0 DUP3 ADD SLOAD DUP2 MSTORE PUSH1 0x20 ADD PUSH1 0x1 DUP3 ADD DUP1 SLOAD PUSH2 0x403 SWAP1 PUSH2 0xD88 JUMP JUMPDEST DUP1 PUSH1 0x1F ADD PUSH1 0x20 DUP1 SWAP2 DIV MUL PUSH1 0x20 ADD PUSH1 0x40 MLOAD SWAP1 DUP2 ADD PUSH1 0x40 MSTORE DUP1 SWAP3 SWAP2 SWAP1 DUP2 DUP2 MSTORE PUSH1 0x20 ADD DUP3 DUP1 SLOAD PUSH2 0x42F SWAP1 PUSH2 0xD88 JUMP JUMPDEST DUP1 ISZERO PUSH2 0x47C JUMPI DUP1 PUSH1 0x1F LT PUSH2 0x451 JUMPI PUSH2 0x100 DUP1 DUP4 SLOAD DIV MUL DUP4 MSTORE SWAP2 PUSH1 0x20 ADD SWAP2 PUSH2 0x47C JUMP JUMPDEST DUP3 ADD SWAP2 SWAP1 PUSH1 0x0 MSTORE PUSH1 0x20 PUSH1 0x0 KECCAK256 SWAP1 JUMPDEST DUP2 SLOAD DUP2 MSTORE SWAP1 PUSH1 0x1 ADD SWAP1 PUSH1 0x20 ADD DUP1 DUP4 GT PUSH2 0x45F JUMPI DUP3 SWAP1 SUB PUSH1 0x1F AND DUP3 ADD SWAP2 JUMPDEST POP POP POP POP POP DUP2 MSTORE POP POP DUP2 MSTORE PUSH1 0x20 ADD SWAP1 PUSH1 0x1 ADD SWAP1 PUSH2 0x3C6 JUMP JUMPDEST POP POP POP POP SWAP1 POP SWAP1 JUMP JUMPDEST PUSH1 0x0 PUSH1 0x60 PUSH1 0x0 JUMPDEST PUSH1 0x1 PUSH1 0x0 DUP1 SLOAD SWAP1 POP PUSH2 0x4B6 SWAP2 SWAP1 PUSH2 0xDE9 JUMP JUMPDEST DUP2 LT ISZERO PUSH2 0x67A JUMPI PUSH1 0x0 DUP1 DUP3 DUP2 SLOAD DUP2 LT PUSH2 0x4D2 JUMPI PUSH2 0x4D1 PUSH2 0xD2A JUMP JUMPDEST JUMPDEST SWAP1 PUSH1 0x0 MSTORE PUSH1 0x20 PUSH1 0x0 KECCAK256 SWAP1 PUSH1 0x2 MUL ADD PUSH1 0x1 ADD DUP1 SLOAD PUSH2 0x4EE SWAP1 PUSH2 0xD88 JUMP JUMPDEST DUP1 PUSH1 0x1F ADD PUSH1 0x20 DUP1 SWAP2 DIV MUL PUSH1 0x20 ADD PUSH1 0x40 MLOAD SWAP1 DUP2 ADD PUSH1 0x40 MSTORE DUP1 SWAP3 SWAP2 SWAP1 DUP2 DUP2 MSTORE PUSH1 0x20 ADD DUP3 DUP1 SLOAD PUSH2 0x51A SWAP1 PUSH2 0xD88 JUMP JUMPDEST DUP1 ISZERO PUSH2 0x567 JUMPI DUP1 PUSH1 0x1F LT PUSH2 0x53C JUMPI PUSH2 0x100 DUP1 DUP4 SLOAD DIV MUL DUP4 MSTORE SWAP2 PUSH1 0x20 ADD SWAP2 PUSH2 0x567 JUMP JUMPDEST DUP3 ADD SWAP2 SWAP1 PUSH1 0x0 MSTORE PUSH1 0x20 PUSH1 0x0 KECCAK256 SWAP1 JUMPDEST DUP2 SLOAD DUP2 MSTORE SWAP1 PUSH1 0x1 ADD SWAP1 PUSH1 0x20 ADD DUP1 DUP4 GT PUSH2 0x54A JUMPI DUP3 SWAP1 SUB PUSH1 0x1F AND DUP3 ADD SWAP2 JUMPDEST POP POP POP POP POP SWAP1 POP DUP1 DUP1 MLOAD SWAP1 PUSH1 0x20 ADD KECCAK256 DUP6 DUP1 MLOAD SWAP1 PUSH1 0x20 ADD KECCAK256 EQ ISZERO PUSH2 0x666 JUMPI PUSH1 0x0 DUP3 DUP2 SLOAD DUP2 LT PUSH2 0x598 JUMPI PUSH2 0x597 PUSH2 0xD2A JUMP JUMPDEST JUMPDEST SWAP1 PUSH1 0x0 MSTORE PUSH1 0x20 PUSH1 0x0 KECCAK256 SWAP1 PUSH1 0x2 MUL ADD PUSH1 0x0 ADD SLOAD PUSH1 0x0 DUP4 DUP2 SLOAD DUP2 LT PUSH2 0x5BE JUMPI PUSH2 0x5BD PUSH2 0xD2A JUMP JUMPDEST JUMPDEST SWAP1 PUSH1 0x0 MSTORE PUSH1 0x20 PUSH1 0x0 KECCAK256 SWAP1 PUSH1 0x2 MUL ADD PUSH1 0x1 ADD DUP1 DUP1 SLOAD PUSH2 0x5DB SWAP1 PUSH2 0xD88 JUMP JUMPDEST DUP1 PUSH1 0x1F ADD PUSH1 0x20 DUP1 SWAP2 DIV MUL PUSH1 0x20 ADD PUSH1 0x40 MLOAD SWAP1 DUP2 ADD PUSH1 0x40 MSTORE DUP1 SWAP3 SWAP2 SWAP1 DUP2 DUP2 MSTORE PUSH1 0x20 ADD DUP3 DUP1 SLOAD PUSH2 0x607 SWAP1 PUSH2 0xD88 JUMP JUMPDEST DUP1 ISZERO PUSH2 0x654 JUMPI DUP1 PUSH1 0x1F LT PUSH2 0x629 JUMPI PUSH2 0x100 DUP1 DUP4 SLOAD DIV MUL DUP4 MSTORE SWAP2 PUSH1 0x20 ADD SWAP2 PUSH2 0x654 JUMP JUMPDEST DUP3 ADD SWAP2 SWAP1 PUSH1 0x0 MSTORE PUSH1 0x20 PUSH1 0x0 KECCAK256 SWAP1 JUMPDEST DUP2 SLOAD DUP2 MSTORE SWAP1 PUSH1 0x1 ADD SWAP1 PUSH1 0x20 ADD DUP1 DUP4 GT PUSH2 0x637 JUMPI DUP3 SWAP1 SUB PUSH1 0x1F AND DUP3 ADD SWAP2 JUMPDEST POP POP POP POP POP SWAP1 POP SWAP4 POP SWAP4 POP POP POP PUSH2 0x67C JUMP JUMPDEST POP DUP1 DUP1 PUSH2 0x672 SWAP1 PUSH2 0xE1D JUMP JUMPDEST SWAP2 POP POP PUSH2 0x4A4 JUMP JUMPDEST POP JUMPDEST SWAP2 POP SWAP2 JUMP JUMPDEST PUSH1 0x0 DUP1 DUP1 SLOAD SWAP1 POP SWAP1 POP SWAP1 JUMP JUMPDEST DUP3 DUP1 SLOAD PUSH2 0x699 SWAP1 PUSH2 0xD88 JUMP JUMPDEST SWAP1 PUSH1 0x0 MSTORE PUSH1 0x20 PUSH1 0x0 KECCAK256 SWAP1 PUSH1 0x1F ADD PUSH1 0x20 SWAP1 DIV DUP2 ADD SWAP3 DUP3 PUSH2 0x6BB JUMPI PUSH1 0x0 DUP6 SSTORE PUSH2 0x702 JUMP JUMPDEST DUP3 PUSH1 0x1F LT PUSH2 0x6D4 JUMPI DUP1 MLOAD PUSH1 0xFF NOT AND DUP4 DUP1 ADD OR DUP6 SSTORE PUSH2 0x702 JUMP JUMPDEST DUP3 DUP1 ADD PUSH1 0x1 ADD DUP6 SSTORE DUP3 ISZERO PUSH2 0x702 JUMPI SWAP2 DUP3 ADD JUMPDEST DUP3 DUP2 GT ISZERO PUSH2 0x701 JUMPI DUP3 MLOAD DUP3 SSTORE SWAP2 PUSH1 0x20 ADD SWAP2 SWAP1 PUSH1 0x1 ADD SWAP1 PUSH2 0x6E6 JUMP JUMPDEST JUMPDEST POP SWAP1 POP PUSH2 0x70F SWAP2 SWAP1 PUSH2 0x7E0 JUMP JUMPDEST POP SWAP1 JUMP JUMPDEST DUP3 DUP1 SLOAD PUSH2 0x71F SWAP1 PUSH2 0xD88 JUMP JUMPDEST SWAP1 PUSH1 0x0 MSTORE PUSH1 0x20 PUSH1 0x0 KECCAK256 SWAP1 PUSH1 0x1F ADD PUSH1 0x20 SWAP1 DIV DUP2 ADD SWAP3 DUP3 PUSH2 0x741 JUMPI PUSH1 0x0 DUP6 SSTORE PUSH2 0x78F JUMP JUMPDEST DUP3 PUSH1 0x1F LT PUSH2 0x752 JUMPI DUP1 SLOAD DUP6 SSTORE PUSH2 0x78F JUMP JUMPDEST DUP3 DUP1 ADD PUSH1 0x1 ADD DUP6 SSTORE DUP3 ISZERO PUSH2 0x78F JUMPI PUSH1 0x0 MSTORE PUSH1 0x20 PUSH1 0x0 KECCAK256 SWAP2 PUSH1 0x1F ADD PUSH1 0x20 SWAP1 DIV DUP3 ADD JUMPDEST DUP3 DUP2 GT ISZERO PUSH2 0x78E JUMPI DUP3 SLOAD DUP3 SSTORE SWAP2 PUSH1 0x1 ADD SWAP2 SWAP1 PUSH1 0x1 ADD SWAP1 PUSH2 0x773 JUMP JUMPDEST JUMPDEST POP SWAP1 POP PUSH2 0x79C SWAP2 SWAP1 PUSH2 0x7E0 JUMP JUMPDEST POP SWAP1 JUMP JUMPDEST POP DUP1 SLOAD PUSH2 0x7AC SWAP1 PUSH2 0xD88 JUMP JUMPDEST PUSH1 0x0 DUP3 SSTORE DUP1 PUSH1 0x1F LT PUSH2 0x7BE JUMPI POP PUSH2 0x7DD JUMP JUMPDEST PUSH1 0x1F ADD PUSH1 0x20 SWAP1 DIV SWAP1 PUSH1 0x0 MSTORE PUSH1 0x20 PUSH1 0x0 KECCAK256 SWAP1 DUP2 ADD SWAP1 PUSH2 0x7DC SWAP2 SWAP1 PUSH2 0x7E0 JUMP JUMPDEST JUMPDEST POP JUMP JUMPDEST JUMPDEST DUP1 DUP3 GT ISZERO PUSH2 0x7F9 JUMPI PUSH1 0x0 DUP2 PUSH1 0x0 SWAP1 SSTORE POP PUSH1 0x1 ADD PUSH2 0x7E1 JUMP JUMPDEST POP SWAP1 JUMP JUMPDEST PUSH1 0x0 PUSH1 0x40 MLOAD SWAP1 POP SWAP1 JUMP JUMPDEST PUSH1 0x0 DUP1 REVERT JUMPDEST PUSH1 0x0 DUP1 REVERT JUMPDEST PUSH1 0x0 DUP2 SWAP1 POP SWAP2 SWAP1 POP JUMP JUMPDEST PUSH2 0x824 DUP2 PUSH2 0x811 JUMP JUMPDEST DUP2 EQ PUSH2 0x82F JUMPI PUSH1 0x0 DUP1 REVERT JUMPDEST POP JUMP JUMPDEST PUSH1 0x0 DUP2 CALLDATALOAD SWAP1 POP PUSH2 0x841 DUP2 PUSH2 0x81B JUMP JUMPDEST SWAP3 SWAP2 POP POP JUMP JUMPDEST PUSH1 0x0 DUP1 REVERT JUMPDEST PUSH1 0x0 DUP1 REVERT JUMPDEST PUSH1 0x0 PUSH1 0x1F NOT PUSH1 0x1F DUP4 ADD AND SWAP1 POP SWAP2 SWAP1 POP JUMP JUMPDEST PUSH32 0x4E487B7100000000000000000000000000000000000000000000000000000000 PUSH1 0x0 MSTORE PUSH1 0x41 PUSH1 0x4 MSTORE PUSH1 0x24 PUSH1 0x0 REVERT JUMPDEST PUSH2 0x89A DUP3 PUSH2 0x851 JUMP JUMPDEST DUP2 ADD DUP2 DUP2 LT PUSH8 0xFFFFFFFFFFFFFFFF DUP3 GT OR ISZERO PUSH2 0x8B9 JUMPI PUSH2 0x8B8 PUSH2 0x862 JUMP JUMPDEST JUMPDEST DUP1 PUSH1 0x40 MSTORE POP POP POP JUMP JUMPDEST PUSH1 0x0 PUSH2 0x8CC PUSH2 0x7FD JUMP JUMPDEST SWAP1 POP PUSH2 0x8D8 DUP3 DUP3 PUSH2 0x891 JUMP JUMPDEST SWAP2 SWAP1 POP JUMP JUMPDEST PUSH1 0x0 PUSH8 0xFFFFFFFFFFFFFFFF DUP3 GT ISZERO PUSH2 0x8F8 JUMPI PUSH2 0x8F7 PUSH2 0x862 JUMP JUMPDEST JUMPDEST PUSH2 0x901 DUP3 PUSH2 0x851 JUMP JUMPDEST SWAP1 POP PUSH1 0x20 DUP2 ADD SWAP1 POP SWAP2 SWAP1 POP JUMP JUMPDEST DUP3 DUP2 DUP4 CALLDATACOPY PUSH1 0x0 DUP4 DUP4 ADD MSTORE POP POP POP JUMP JUMPDEST PUSH1 0x0 PUSH2 0x930 PUSH2 0x92B DUP5 PUSH2 0x8DD JUMP JUMPDEST PUSH2 0x8C2 JUMP JUMPDEST SWAP1 POP DUP3 DUP2 MSTORE PUSH1 0x20 DUP2 ADD DUP5 DUP5 DUP5 ADD GT ISZERO PUSH2 0x94C JUMPI PUSH2 0x94B PUSH2 0x84C JUMP JUMPDEST JUMPDEST PUSH2 0x957 DUP5 DUP3 DUP6 PUSH2 0x90E JUMP JUMPDEST POP SWAP4 SWAP3 POP POP POP JUMP JUMPDEST PUSH1 0x0 DUP3 PUSH1 0x1F DUP4 ADD SLT PUSH2 0x974 JUMPI PUSH2 0x973 PUSH2 0x847 JUMP JUMPDEST JUMPDEST DUP2 CALLDATALOAD PUSH2 0x984 DUP5 DUP3 PUSH1 0x20 DUP7 ADD PUSH2 0x91D JUMP JUMPDEST SWAP2 POP POP SWAP3 SWAP2 POP POP JUMP JUMPDEST PUSH1 0x0 DUP1 PUSH1 0x0 PUSH1 0x60 DUP5 DUP7 SUB SLT ISZERO PUSH2 0x9A6 JUMPI PUSH2 0x9A5 PUSH2 0x807 JUMP JUMPDEST JUMPDEST PUSH1 0x0 PUSH2 0x9B4 DUP7 DUP3 DUP8 ADD PUSH2 0x832 JUMP JUMPDEST SWAP4 POP POP PUSH1 0x20 PUSH2 0x9C5 DUP7 DUP3 DUP8 ADD PUSH2 0x832 JUMP JUMPDEST SWAP3 POP POP PUSH1 0x40 DUP5 ADD CALLDATALOAD PUSH8 0xFFFFFFFFFFFFFFFF DUP2 GT ISZERO PUSH2 0x9E6 JUMPI PUSH2 0x9E5 PUSH2 0x80C JUMP JUMPDEST JUMPDEST PUSH2 0x9F2 DUP7 DUP3 DUP8 ADD PUSH2 0x95F JUMP JUMPDEST SWAP2 POP POP SWAP3 POP SWAP3 POP SWAP3 JUMP JUMPDEST PUSH1 0x0 DUP1 PUSH1 0x40 DUP4 DUP6 SUB SLT ISZERO PUSH2 0xA13 JUMPI PUSH2 0xA12 PUSH2 0x807 JUMP JUMPDEST JUMPDEST PUSH1 0x0 PUSH2 0xA21 DUP6 DUP3 DUP7 ADD PUSH2 0x832 JUMP JUMPDEST SWAP3 POP POP PUSH1 0x20 DUP4 ADD CALLDATALOAD PUSH8 0xFFFFFFFFFFFFFFFF DUP2 GT ISZERO PUSH2 0xA42 JUMPI PUSH2 0xA41 PUSH2 0x80C JUMP JUMPDEST JUMPDEST PUSH2 0xA4E DUP6 DUP3 DUP7 ADD PUSH2 0x95F JUMP JUMPDEST SWAP2 POP POP SWAP3 POP SWAP3 SWAP1 POP JUMP JUMPDEST PUSH1 0x0 PUSH1 0x20 DUP3 DUP5 SUB SLT ISZERO PUSH2 0xA6E JUMPI PUSH2 0xA6D PUSH2 0x807 JUMP JUMPDEST JUMPDEST PUSH1 0x0 PUSH2 0xA7C DUP5 DUP3 DUP6 ADD PUSH2 0x832 JUMP JUMPDEST SWAP2 POP POP SWAP3 SWAP2 POP POP JUMP JUMPDEST PUSH2 0xA8E DUP2 PUSH2 0x811 JUMP JUMPDEST DUP3 MSTORE POP POP JUMP JUMPDEST PUSH1 0x0 DUP2 MLOAD SWAP1 POP SWAP2 SWAP1 POP JUMP JUMPDEST PUSH1 0x0 DUP3 DUP3 MSTORE PUSH1 0x20 DUP3 ADD SWAP1 POP SWAP3 SWAP2 POP POP JUMP JUMPDEST PUSH1 0x0 JUMPDEST DUP4 DUP2 LT ISZERO PUSH2 0xACE JUMPI DUP1 DUP3 ADD MLOAD DUP2 DUP5 ADD MSTORE PUSH1 0x20 DUP2 ADD SWAP1 POP PUSH2 0xAB3 JUMP JUMPDEST DUP4 DUP2 GT ISZERO PUSH2 0xADD JUMPI PUSH1 0x0 DUP5 DUP5 ADD MSTORE JUMPDEST POP POP POP POP JUMP JUMPDEST PUSH1 0x0 PUSH2 0xAEE DUP3 PUSH2 0xA94 JUMP JUMPDEST PUSH2 0xAF8 DUP2 DUP6 PUSH2 0xA9F JUMP JUMPDEST SWAP4 POP PUSH2 0xB08 DUP2 DUP6 PUSH1 0x20 DUP7 ADD PUSH2 0xAB0 JUMP JUMPDEST PUSH2 0xB11 DUP2 PUSH2 0x851 JUMP JUMPDEST DUP5 ADD SWAP2 POP POP SWAP3 SWAP2 POP POP JUMP JUMPDEST PUSH1 0x0 PUSH1 0x40 DUP3 ADD SWAP1 POP PUSH2 0xB31 PUSH1 0x0 DUP4 ADD DUP6 PUSH2 0xA85 JUMP JUMPDEST DUP2 DUP2 SUB PUSH1 0x20 DUP4 ADD MSTORE PUSH2 0xB43 DUP2 DUP5 PUSH2 0xAE3 JUMP JUMPDEST SWAP1 POP SWAP4 SWAP3 POP POP POP JUMP JUMPDEST PUSH1 0x0 DUP2 MLOAD SWAP1 POP SWAP2 SWAP1 POP JUMP JUMPDEST PUSH1 0x0 DUP3 DUP3 MSTORE PUSH1 0x20 DUP3 ADD SWAP1 POP SWAP3 SWAP2 POP POP JUMP JUMPDEST PUSH1 0x0 DUP2 SWAP1 POP PUSH1 0x20 DUP3 ADD SWAP1 POP SWAP2 SWAP1 POP JUMP JUMPDEST PUSH2 0xB81 DUP2 PUSH2 0x811 JUMP JUMPDEST DUP3 MSTORE POP POP JUMP JUMPDEST PUSH1 0x0 DUP3 DUP3 MSTORE PUSH1 0x20 DUP3 ADD SWAP1 POP SWAP3 SWAP2 POP POP JUMP JUMPDEST PUSH1 0x0 PUSH2 0xBA3 DUP3 PUSH2 0xA94 JUMP JUMPDEST PUSH2 0xBAD DUP2 DUP6 PUSH2 0xB87 JUMP JUMPDEST SWAP4 POP PUSH2 0xBBD DUP2 DUP6 PUSH1 0x20 DUP7 ADD PUSH2 0xAB0 JUMP JUMPDEST PUSH2 0xBC6 DUP2 PUSH2 0x851 JUMP JUMPDEST DUP5 ADD SWAP2 POP POP SWAP3 SWAP2 POP POP JUMP JUMPDEST PUSH1 0x0 PUSH1 0x40 DUP4 ADD PUSH1 0x0 DUP4 ADD MLOAD PUSH2 0xBE9 PUSH1 0x0 DUP7 ADD DUP3 PUSH2 0xB78 JUMP JUMPDEST POP PUSH1 0x20 DUP4 ADD MLOAD DUP5 DUP3 SUB PUSH1 0x20 DUP7 ADD MSTORE PUSH2 0xC01 DUP3 DUP3 PUSH2 0xB98 JUMP JUMPDEST SWAP2 POP POP DUP1 SWAP2 POP POP SWAP3 SWAP2 POP POP JUMP JUMPDEST PUSH1 0x0 PUSH2 0xC1A DUP4 DUP4 PUSH2 0xBD1 JUMP JUMPDEST SWAP1 POP SWAP3 SWAP2 POP POP JUMP JUMPDEST PUSH1 0x0 PUSH1 0x20 DUP3 ADD SWAP1 POP SWAP2 SWAP1 POP JUMP JUMPDEST PUSH1 0x0 PUSH2 0xC3A DUP3 PUSH2 0xB4C JUMP JUMPDEST PUSH2 0xC44 DUP2 DUP6 PUSH2 0xB57 JUMP JUMPDEST SWAP4 POP DUP4 PUSH1 0x20 DUP3 MUL DUP6 ADD PUSH2 0xC56 DUP6 PUSH2 0xB68 JUMP JUMPDEST DUP1 PUSH1 0x0 JUMPDEST DUP6 DUP2 LT ISZERO PUSH2 0xC92 JUMPI DUP5 DUP5 SUB DUP10 MSTORE DUP2 MLOAD PUSH2 0xC73 DUP6 DUP3 PUSH2 0xC0E JUMP JUMPDEST SWAP5 POP PUSH2 0xC7E DUP4 PUSH2 0xC22 JUMP JUMPDEST SWAP3 POP PUSH1 0x20 DUP11 ADD SWAP10 POP POP PUSH1 0x1 DUP2 ADD SWAP1 POP PUSH2 0xC5A JUMP JUMPDEST POP DUP3 SWAP8 POP DUP8 SWAP6 POP POP POP POP POP POP SWAP3 SWAP2 POP POP JUMP JUMPDEST PUSH1 0x0 PUSH1 0x20 DUP3 ADD SWAP1 POP DUP2 DUP2 SUB PUSH1 0x0 DUP4 ADD MSTORE PUSH2 0xCBE DUP2 DUP5 PUSH2 0xC2F JUMP JUMPDEST SWAP1 POP SWAP3 SWAP2 POP POP JUMP JUMPDEST PUSH1 0x0 PUSH1 0x20 DUP3 DUP5 SUB SLT ISZERO PUSH2 0xCDC JUMPI PUSH2 0xCDB PUSH2 0x807 JUMP JUMPDEST JUMPDEST PUSH1 0x0 DUP3 ADD CALLDATALOAD PUSH8 0xFFFFFFFFFFFFFFFF DUP2 GT ISZERO PUSH2 0xCFA JUMPI PUSH2 0xCF9 PUSH2 0x80C JUMP JUMPDEST JUMPDEST PUSH2 0xD06 DUP5 DUP3 DUP6 ADD PUSH2 0x95F JUMP JUMPDEST SWAP2 POP POP SWAP3 SWAP2 POP POP JUMP JUMPDEST PUSH1 0x0 PUSH1 0x20 DUP3 ADD SWAP1 POP PUSH2 0xD24 PUSH1 0x0 DUP4 ADD DUP5 PUSH2 0xA85 JUMP JUMPDEST SWAP3 SWAP2 POP POP JUMP JUMPDEST PUSH32 0x4E487B7100000000000000000000000000000000000000000000000000000000 PUSH1 0x0 MSTORE PUSH1 0x32 PUSH1 0x4 MSTORE PUSH1 0x24 PUSH1 0x0 REVERT JUMPDEST PUSH32 0x4E487B7100000000000000000000000000000000000000000000000000000000 PUSH1 0x0 MSTORE PUSH1 0x22 PUSH1 0x4 MSTORE PUSH1 0x24 PUSH1 0x0 REVERT JUMPDEST PUSH1 0x0 PUSH1 0x2 DUP3 DIV SWAP1 POP PUSH1 0x1 DUP3 AND DUP1 PUSH2 0xDA0 JUMPI PUSH1 0x7F DUP3 AND SWAP2 POP JUMPDEST PUSH1 0x20 DUP3 LT DUP2 EQ ISZERO PUSH2 0xDB4 JUMPI PUSH2 0xDB3 PUSH2 0xD59 JUMP JUMPDEST JUMPDEST POP SWAP2 SWAP1 POP JUMP JUMPDEST PUSH32 0x4E487B7100000000000000000000000000000000000000000000000000000000 PUSH1 0x0 MSTORE PUSH1 0x11 PUSH1 0x4 MSTORE PUSH1 0x24 PUSH1 0x0 REVERT JUMPDEST PUSH1 0x0 PUSH2 0xDF4 DUP3 PUSH2 0x811 JUMP JUMPDEST SWAP2 POP PUSH2 0xDFF DUP4 PUSH2 0x811 JUMP JUMPDEST SWAP3 POP DUP3 DUP3 LT ISZERO PUSH2 0xE12 JUMPI PUSH2 0xE11 PUSH2 0xDBA JUMP JUMPDEST JUMPDEST DUP3 DUP3 SUB SWAP1 POP SWAP3 SWAP2 POP POP JUMP JUMPDEST PUSH1 0x0 PUSH2 0xE28 DUP3 PUSH2 0x811 JUMP JUMPDEST SWAP2 POP PUSH32 0xFFFFFFFFFFFFFFFFFFFFFFFFFFFFFFFFFFFFFFFFFFFFFFFFFFFFFFFFFFFFFFFF DUP3 EQ ISZERO PUSH2 0xE5B JUMPI PUSH2 0xE5A PUSH2 0xDBA JUMP JUMPDEST JUMPDEST PUSH1 0x1 DUP3 ADD SWAP1 POP SWAP2 SWAP1 POP JUMP INVALID LOG2 PUSH5 0x6970667358 0x22 SLT KECCAK256 0xE3 PUSH20 0x997AADA7CE9D4A548190648B30B8EC287CE98033 PUSH21 0x1B8FD00C8FF9B2509C64736F6C634300080A003300 "
				},
				"gasEstimates": {
					"creation": {
						"codeDepositCost": "748000",
						"executionCost": "779",
						"totalCost": "748779"
					},
					"external": {
						"AtualizarPessoa(uint256,uint256,string)": "infinite",
						"DeletarPessoa(uint256)": "infinite",
						"InserirPessoas(uint256,string)": "infinite",
						"ObterPessoa(uint256)": "infinite",
						"ObterPessoaPeloNome(string)": "infinite",
						"ObterPessoas()": "infinite",
						"TotalDePessoas()": "2511"
					}
				},
				"methodIdentifiers": {
					"AtualizarPessoa(uint256,uint256,string)": "403edd79",
					"DeletarPessoa(uint256)": "411f8c84",
					"InserirPessoas(uint256,string)": "40735fcc",
					"ObterPessoa(uint256)": "53cee4c6",
					"ObterPessoaPeloNome(string)": "efddcec0",
					"ObterPessoas()": "af6000d6",
					"TotalDePessoas()": "f6f8b021"
				}
			},
			"storageLayout": {
				"storage": [
					{
						"astId": 10,
						"contract": "contracts/Struct.sol:Struct",
						"label": "listaPessoas",
						"offset": 0,
						"slot": "0",
						"type": "t_array(t_struct(Pessoa)6_storage)dyn_storage"
					}
				],
				"types": {
					"t_array(t_struct(Pessoa)6_storage)dyn_storage": {
						"base": "t_struct(Pessoa)6_storage",
						"encoding": "dynamic_array",
						"label": "struct Struct.Pessoa[]",
						"numberOfBytes": "32"
					},
					"t_string_storage": {
						"encoding": "bytes",
						"label": "string",
						"numberOfBytes": "32"
					},
					"t_struct(Pessoa)6_storage": {
						"encoding": "inplace",
						"label": "struct Struct.Pessoa",
						"members": [
							{
								"astId": 3,
								"contract": "contracts/Struct.sol:Struct",
								"label": "idade",
								"offset": 0,
								"slot": "0",
								"type": "t_uint256"
							},
							{
								"astId": 5,
								"contract": "contracts/Struct.sol:Struct",
								"label": "nome",
								"offset": 0,
								"slot": "1",
								"type": "t_string_storage"
							}
						],
						"numberOfBytes": "64"
					},
					"t_uint256": {
						"encoding": "inplace",
						"label": "uint256",
						"numberOfBytes": "32"
					}
				}
			},
			"userdoc": {
				"kind": "user",
				"methods": {},
				"version": 1
			}
		}
	}
}